:020000040000FA
:1000000000A4040000000000A4020000A4020000FC
:10001000D67C0000FA7C00001E7D0000A4020000D7
:10002000A4020000A4020000A4020000A402000038
:10003000A4020000A4020000A4020000A402000028
:10004000A4020000A4020000C83E0000A4020000B8
:10005000387C0000A4020000A4020000A4020000FA
:10006000A4020000A4020000A4020000A4020000F8
:10007000A4020000A40200009E7C0000A402000074
:10008000A4020000A4020000A4020000A4020000D8
:10009000A4020000CE7B0000A4020000A402000025
:1000A000A4020000A4020000A4020000A4020000B8
:1000B000A4020000A4020000A4020000A4020000A8
:1000C000A4020000A4020000A4020000A402000098
:1000D000A4020000A4020000A4020000A402000088
:1000E000A4020000A4020000A4020000A402000078
:1000F000A4020000A4020000A4020000A402000068
:10010000A4020000A4020000A4020000A402000057
:10011000A4020000A4020000A4020000A402000047
:10012000A4020000A4020000A4020000A402000037
:10013000A4020000A4020000A4020000A402000027
:10014000A4020000A4020000A4020000A402000017
:10015000A4020000A4020000A4020000A402000007
:10016000A4020000A4020000A4020000A4020000F7
:10017000A4020000A4020000A4020000A4020000E7
:1001800030630000A4020000A4020000A4020000EA
:10019000A4020000A4020000A4020000A4020000C7
:1001A000A4020000A4020000A4020000A4020000B7
:1001B000A4020000A4020000A4020000A4020000A7
:1001C000A4020000A4020000A4020000A402000097
:1001D000A4020000A4020000A4020000A402000087
:1001E000A4020000A4020000A4020000A402000077
:1001F000A4020000A4020000A4020000A402000067
:10020000FFFFFF00FFFFFF00A4020000A4020000A8
:10021000D67C0000FA7C00001E7D0000A4020000D5
:10022000A4020000A4020000A4020000A402000036
:10023000A4020000A4020000A4020000A402000026
:10024000A4020000A4020000C83E0000A4020000B6
:10025000387C0000A4020000A4020000A4020000F8
:10026000A4020000A4020000A4020000A4020000F6
:10027000A4020000A40200009E7C0000A402000072
:10028000A4020000A4020000A4020000A4020000D6
:10029000A4020000CE7B0000A4020000A402000023
:1002A000A4020000A4020000A4020000A4020000B6
:1002B000A4020000A4020000A4020000A4020000A6
:1002C000A4020000A4020000A4020000A402000096
:1002D000A4020000A4020000A4020000A402000086
:1002E000A4020000A4020000A4020000A402000076
:1002F000A4020000A4020000A4020000A402000066
:10030000A4020000A4020000A4020000A402000055
:10031000A4020000A4020000A4020000A402000045
:10032000A4020000A4020000A4020000A402000035
:10033000A4020000A4020000A4020000A402000025
:10034000A4020000A4020000A4020000A402000015
:10035000A4020000A4020000A4020000A402000005
:10036000A4020000A4020000A4020000A4020000F5
:10037000A4020000A4020000A4020000A4020000E5
:1003800030630000A4020000A4020000A4020000E8
:10039000A4020000A4020000A4020000A4020000C5
:1003A000A4020000A4020000A4020000A4020000B5
:1003B000A4020000A4020000A4020000A4020000A5
:1003C000A4020000A4020000A4020000A402000095
:1003D000A4020000A4020000A4020000A402000085
:1003E000A4020000A4020000A4020000A402000075
:1003F000A4020000A4020000A4020000A402000065
:100400000F7223000E7F24000E0188000000000000
:100410000C000700C0A72000010020001100070009
:10042000000020000000E000020032000000020096
:10043000000000007A790200000000000040DA00AD
:100440000000FE004440A900A0AE21000000E00032
:100450000300320000002000A00188004440A800F2
:100460000000060091018800800078000000EB0089
:1004700015003700E280400032A0B4009101BA00BC
:10048000E280400032A0B4009102BA00E280400055
:1004900032A0B4000002EB00472BDE00F507B200EB
:1004A000602CE10004003A000059EB008301E900F0
:1004B000FDFF3E00040037006128E100010032002A
:1004C0000082EB00040007001101BA000200E00006
:1004D000E8FF3A00000006003159BA008301E90044
:1004E0000C0032002159BA008301E90008003200F3
:1004F0000400E00003003A00E280400032A0B400B3
:10050000F5FF370011D9BA008301E900FAFF3A007C
:100510008100E800E180400032A0B4000000060045
:1005200000000000000000000000000000000000CB
:1005300000000000000000000000000000000000BB
:1005400000000000000000000040DA000000FE0093
:10055000839F68000100E00002003D006000100081
:10056000E08018000300E00002003D00600111007F
:10057000E0811900050007004F00E00002003B0089
:1005800060001000E0801800000006006022B80043
:10059000060220000000D0008180D2000482D20038
:1005A0008582D2000000A0000202520083825A001D
:1005B000030031000202420083824A000000A100D1
:1005C0000603E900F3FF3A0000000600020AB90042
:1005D000001BB9000200B800810042008100430006
:1005E00000000600800178000001780031407800AA
:1005F000005978000004E000FCFF3A000300780096
:1006000000000600889FBE008A9FBE008C9FBE002F
:1006100000017800E1F020001100E0000B003A003A
:1006200020F1200070788800507888009178880048
:1006300061788800214090000004A000A04098004C
:10064000614090000004A000E0409800E7004100F5
:10065000C208DE00C20CDD00647880000D012100BC
:10066000007223000D05500022002000811F780039
:10067000110009000205D80000067800CF007800BC
:10068000C308DD00E48540008001EB000601210085
:10069000E5F02000010037000102780024409000BE
:1006A0000008A300020032000A003700110A780097
:1006B00094007800214090000008A300FBFF320066
:1006C00009014200828F500002003900840F51005E
:1006D0004600310094007800848F5000EEFF3E0009
:1006E000868F500002003900858F5000EAFF3900E4
:1006F00050788000800F52004F003A00858F5000E4
:100700004D003A008301E800E18F5100E2FF36001E
:100710008C8F5400040036008A8F54000200310090
:100720000B04780012003700614AB8006151B9002B
:10073000B0FF2F000100200002005000838058000D
:10074000800F5200818F5A000200350009047800A2
:10075000070037000D805400327223000200400071
:10076000110009000A80D8000A80B900000478004E
:10077000080078006F00070080017800E10F40005A
:100780002D003200507880000308780052788000F5
:1007900064004100A2409000808F510002003200AE
:1007A0000104A000010037000104A10021419800CC
:1007B000088041006400500080097800507888006B
:1007C000E2F020000208780051788000214090007B
:1007D0000004A000A0409800234090000004A10065
:1007E000A041980002027800A7FF370062788800D5
:1007F000828F5000090036009200780080F02000BF
:10080000A2419000034878003178880014097800EC
:100810008040EB0060788000214098006078800084
:10082000000A7800244090000004A00020429800B4
:1008300064004200010037000000EB004F06BE00DC
:100840004F05BE004F04BE000000060064005000CB
:1008500060788800A04090000104A1002140980029
:1008600000000600889FBE008A9FBE000005780039
:10087000E401500013001000C285DE002340900008
:100880000008A30004003200637888002340900031
:100890000004A100A04198000100780059FF070062
:1008A000000478000000E000170032008A0F5000BA
:1008B0001500320060B8970008005000C284DE00C6
:1008C000898F550001003600890578004259DD0006
:1008D0008A007800080078000F0007008A0F540093
:1008E000090031004248DD00000044008A0F50003A
:1008F000050036000A0050000000440032788000F5
:10090000437880000288BE00080078004F05BE00D2
:100910004F04BE00000006008001EB00020037001B
:1009200061F079008301E800828F5100FCFF3A00FA
:1009300000000600889FBE0080047800B078800028
:100940000000E00003003A00100007000000E00093
:100950000A003500B07880000900E00002003A008B
:100960000004780006003700000478000900400009
:10097000060007000000E00001003D000084EB00DD
:10098000080078004F04BE000000060080007800D8
:100990000000E00004003A0000012100B078880067
:1009A00001017800060037000081EB00007223008F
:1009B000808F500002003E00B17888000001EB00FB
:1009C0000200780000000600881F7800280420003C
:1009D000184478000884FB004544DE009102800042
:1009E000FF3FFC0000CEB3004260B70091028800D8
:1009F0004C03070091028000FF3FFC004544DD00EE
:100A000042C0BF007F4060000840700042E0B70075
:100A1000910288004F04780000000600889FBE0005
:100A20000244780022032000124178008284FB00F7
:100A300006C02000070020000080FB008180FB0032
:100A40004B02DD0004024300E0824B004A09DD0056
:100A500002014200E0814A004019DE000001FD0071
:100A600032E0B7000001FD0000004000010040003E
:100A70004A00DD000600400026030700F34F540043
:100A800008003200F44F5400090032008040EB00AF
:100A9000F24F540008003A0064006000C200DE001B
:100AA0000500370068006000C300DE000200370068
:100AB00070006000C400DE000900780032E0B7007A
:100AC0000180FB004F04BE0000000600881F780074
:100AD000280320001844780006C0200007002000EA
:100AE0000080FB008180FB004B02DD00040243001C
:100AF000E0824B004A09DD0002014200E0814A0029
:100B00004019DE000001FD0032E0B7000001FD00E9
:100B100022042400023B8800000040000100400045
:100B20004A00DD0006004000800078000E03070048
:100B3000A5FF07000800780032E0B7004F047800F6
:100B400000000600889FBE008A1F7800804478005D
:100B500032C0BF000085FB000004EB00030037003B
:100B60000804E800E20F54000600320032C1B3006E
:100B70008840780009407800A8FF0700E10F500086
:100B8000F7FF320006C02000070020000982FB00AA
:100B90004B21DD0002014300E0814B004A40DD00B3
:100BA00000004100E08049004008DE0032E0B7006C
:100BB00004024200080242004A22DD00060442000C
:100BC0008004EB008984E8000884E80008007800CD
:100BD000D00207008040780000402000808F540041
:100BE00002003A008004EB0002003700E1CF400031
:100BF000F4FF3A000A00780032E0B70009007800FC
:100C00004F0578004F04BE0000000600889FBE001C
:100C10008A9FBE0080047800E00F2000808F54007F
:100C20000200360004AFA80016003700F20F2000C3
:100C3000110009008284D800000178008245780004
:100C400032C0BF000085FB000004EB00030037004A
:100C50000804E800E20F54000700320032C1B3007C
:100C6000884078000B4078006CFF0700E10F5000CF
:100C7000F7FF3200050037000A00780032E0B700C5
:100C800004CFA8000080EB002600370004C020003D
:100C9000050020004B59DD00CA41DD000200420082
:100CA000E0804A0003004000E08048004008DE0089
:100CB00032E0B7000401410003014100E13F2000A0
:100CC00082804000F20F20008105780011000900A9
:100CD0008284D8008105FD000920200001047800ED
:100CE000010078008B0207008880E9008904E90090
:100CF000030032008B0F500005003200F7FF370071
:100D0000040FA8000A00780032E0B700DDFF3700CA
:100D100008007800810207000005FD0032E0B700FE
:100D20000005FD004F05BE004F04BE000000060098
:100D3000F4874700889FBE008A9FBE008C9FBE003C
:100D40008E1F780080F79F0032C0BF000080FB003C
:100D500090B79F008006EB00030037008D06E80087
:100D6000E28F56000700320032C1B3008D40780098
:100D70000FF0970029FF0700E10F5000F7FF320046
:100D8000050037002FE0970032E0B700046FA8009D
:100D900030002000DE0037000D06E800E20F5600AC
:100DA00008003A000006EB00060037000C06E800D9
:100DB000E20F560001003A000006EB008D0F5600CE
:100DC000C200320042C1B3008C4078000FF097009F
:100DD00012FF07000000E000F4FF320004C0200012
:100DE000050020008FF097000181FB004B10DD0013
:100DF0006103B800E6B79F00F7B79F004A60DD00C7
:100E00006103B800C6B79F00D7B79F006FB39700C4
:100E1000FFB397000400430085804B004FB3970059
:100E2000DFB397000000430081804B004008DE00E4
:100E300032E0B70002014100B2B79F000C00410050
:100E40004A07DD00040447000FF097003DFF07004C
:100E50000000E00001003200044FA80004CFBF00F2
:100E600080E79F00040FA90010002400003B8800C9
:100E7000880078000080EB003B02070088007800C3
:100E8000F00F2000340207000884E8008FF097007C
:100E90000180FB00F20F20000280B900A0B79F0084
:100EA000190020008045EB000B85FB002FB2970056
:100EB0000A00420055FF0700040FAB000200320099
:100EC000040FA900070037008800780026020700F9
:100ED000880078000A0078001F0207000884E800F4
:100EE0008904E8008B45E800E1CF45000E003A0098
:100EF00008003700880078000080EB001A02070025
:100F000088007800F00F2000130207000884E80032
:100F10008904E800F0032000808F5400F5FF3400BE
:100F200080C5EB0003003700F0032000808F5400E1
:100F3000DDFF3400A4FE07008004EB00E1CF450094
:100F4000D9FF3A000FE0970004EFB70002C020007D
:100F5000030020006FB29700FFB29700020042002A
:100F600083804A004FB39700DFB39700000043002F
:100F700081804B004008DE0032E0B70002054700E8
:100F80000A84E80008007800E20107008044780045
:100F90008885E800630045000C0037000980FB00ED
:100FA000AFB397000080430018FF0700880F500080
:100FB0004B003A000B04E8000B007800D501070055
:100FC000804478008B85E80008007800D301070092
:100FD00000047800E1CF4400F0FF3A0002C0200096
:100FE00003002000BFB097000D8040004A00DD00E4
:100FF00002044000020547006FB29700FFB297005D
:101000000201420083814A004A68DD00000041007D
:10101000E08049004008DE0032E0B70008007800B8
:10102000BE0107008004780008007800B9010700BD
:10103000004178000C00E00001003A008904E8005B
:10104000E38F540002003600042FA8000244A100E0
:1010500000C02000010020006FB39700FFB397008D
:101060000000430081804B004FB29700DFB2970031
:101070000000420081804A004008DE0032E0B700F4
:101080000284FB008A00780008007800B2010700A3
:101090008A00780009007800B301070030002400BE
:1010A000003B880048FE07000A007800990107000D
:1010B000800F54000A003A000A00780097010700E8
:1010C000808F54000B003200050037002FE097009E
:1010D00032E0B700042FA800100020000C003700F9
:1010E0002FE0970032E0B70004EFA8007000200066
:1010F000070037008D4078000FF0970073FE07005F
:101100002FE0970032E0B700040FD50061006000C7
:101110004F0778004F06BE004F05BE004F04BE00CB
:101120004F01B10000000600889FBE008A1F7800B2
:1011300032C0BF000085FB0000C02000010020007D
:101140004008DE0032E0B7000004EB000300370087
:101150000804E800E20F54000700320042C1B30067
:10116000884078000040EB002CFE07000000E00003
:10117000F7FF3200050037000A00780032E0B700C0
:10118000042FA800100020004E0037000044EB00A0
:101190008004EB0032C1B300894078000040EB00CE
:1011A0001EFE07000000E00001003A000844E800CD
:1011B0008904E800E28F5400F6FF3A000804E000DA
:1011C00012003A0088407800084078003FFE07008F
:1011D00008C02000090020004048DE000100200077
:1011E00032E0B70030002400003B8800880078001F
:1011F0000000EB005C01070088007800300F200041
:1012000055010700F0FD070026003700E14F5400AC
:1012100024003200E24F540026003A0032C1B300ED
:1012200011C0B3000040EB00FCFD07000000E0002F
:1012300005003A0032C1B30080407800F7FD070096
:101240000000E0000F0032000004EB000100370056
:101250000804E8008844780032C1B3008840780070
:101260000040EB00EDFD0700E10F500002003A00E6
:10127000E20F5400F6FF3A008940E800E2CF500048
:1012800001003A008040EB000040EB000FFE070039
:101290000040EB002BFE07000000E00001003A00D8
:1012A000A3FE07000A00780032E0B7000000EB0060
:1012B000040037000A00780032E0B70004CFA8002D
:1012C000600020004F0578004F04BE0000000600BB
:1012D000E4874700889FBE008A9FBE008C9FBE00A7
:1012E0008E1F78008006780081057800E00F2000CE
:1012F000808F50000300360004AFA800500020008B
:1013000077003700F20F2000110009008280D8001A
:101310000004780032C0BF000085FB0030002400CC
:10132000003B88008004EB00030037008904E800DC
:10133000E28F5400080032000847780032C1B30041
:101340008940780008407800B4FD0700E10F5000A4
:10135000F6FF3200050037000A00780032E0B700DF
:1013600004CFA800600020005D00370004C020000A
:10137000050020004B41DD0002014200E0814A00EF
:101380004A48DD0000004100E08049004008DE00DE
:1013900032E0B70008004400090040004A00DD00C8
:1013A0008404400048F02000184478000B007800C6
:1013B00016FE07008D0F50000A003A0020788000CA
:1013C0006100600007003A000005FD0032E0B70050
:1013D0000005FD000004FD0004EFB7000004FD005F
:1013E0003F0037000800780004EFB7000E40780097
:1013F000D4FD0700000678000000E00005003A0078
:101400000A00780032E0B700048FA80040002000F6
:101410003300370080844400890078000D00780094
:10142000D1000700F80F2000110009008885D800BE
:1014300081057800890078000B007800C60007005D
:1014400061FD0700000000000000000009007800B6
:10145000B200070080F79F008FF097000180FB002B
:1014600008846600880F500010003A0009007800D8
:10147000A800070080F79F008FF097000180FB0015
:101480008B0F500009003A000900E800A300070094
:101490004880DE0080F79F000FF097008080FB00FF
:1014A0004868DE00808F5000050032000A00780096
:1014B00032E0B70004EFA8007000200008003700F9
:1014C000E03F2000800F560002003A000E407800F6
:1014D00017FE07000A00780032E0B7000000EB00BA
:1014E0004F0778004F06BE004F05BE004F04BE00F8
:1014F0004F00B10000000600040F000002000000D1
:1015000000000000F80E00000400000002000000CF
:1015100000000000000000009A0E00005E000000C5
:10152000000000000010000010000000000000009B
:101530007E0E00001C00000000000000FC0E0000F9
:10154000040000000200000002820100810000008F
:10155000000F000004000000020000000000E50091
:101560000C0000002E0C00001E0100000000000016
:101570004C0D00006000000002000000E0010100CE
:101580000000000002006D000426C60000020000FA
:10159000006D040027C60000020000006F252E0029
:1015A000C600020000006F00252FC60000020000E8
:1015B000004F04007BB6000003000000FFFFFF00A7
:1015C000FF00010000008E0089F88A000000000082
:1015D00000000000EE89F8008A0000000000000012
:1015E00000468A00F88A00000000000000009C000D
:1015F0008AF88A00000000000000000000080000D7
:10160000C4020000000000004C0E00003200000088
:1016100002000000E093040000E093000400E000FA
:1016200093040000E093040000E093000400E00055
:1016300093040000E093040000E093000400E00045
:1016400093040000E09304000030750000003000B7
:101650007500000001000000080E000044000000BA
:1016600000000000AC0D00005C0000000200000063
:10167000000000000000000000000000000000006A
:10168000000000000000000000000000000000005A
:10169000000000000000000000000000000000004A
:1016A000000000000000000000000000000000003A
:1016B000000000000000000000000000000000002A
:1016C000000000000000000000000000000000001A
:1016D000000000000000000000000000000000000A
:1016E0000000000000AC0D00B70D0000C40A0000AF
:1016F0006A01000000000000060F0000100000005A
:1017000000000000160F00000200000000000000B2
:10171000000000001080BA00000006001000BA00AF
:1017200000000600801F78000500FC005005200026
:10173000303B8800A00A2000303B880061E7A80009
:10174000000000000000000061E7AF00FEFF37006E
:101750004F007800000006008088BB0000000600F3
:1017600080C8BB00000006008008BB000000060027
:101770008048BB0000000600F03FB1000180B100CE
:1017800006003500EE03090000000000403FB100F4
:101790000180B100FBFF3D001000B000203FB00011
:1017A0000200350000800900000000000000060073
:1017B000FFFFFF00FFFFFF00FFFFFF00FFFFFF0035
:1017C000FFFFFF00FFFFFF00FFFFFF00FFFFFF0025
:1017D000FFFFFF00FFFFFF00FFFFFF00FFFFFF0015
:1017E000FFFFFF00FFFFFF00FFFFFF00FFFFFF0005
:1017F000FFFFFF00FFFFFF00FFFFFF00FFFFFF00F5
:101800000000F300B80B0400B80B0500B80B06008D
:10181000B80B0700B80B0800B80B0900B80B0A009A
:10182000B80B0B00B80B0C00B80B0D00B80B0E007A
:10183000B80B0F00DC000000000010007D0011005C
:10184000000012000A001300000014000000150040
:101850000000160001001700000018000000190029
:1018600080001A0000001B00B80B1C0000001D00C7
:101870007D001E0000001F000A0020000000210063
:1018800000002200000023000100240000002500C9
:10189000000026008000270000002800B80B290067
:1018A00000002A007D002B0000002C000A002D0003
:1018B00000002E0000002F00000030000100310069
:1018C00000003200000033008000340000003500CA
:1018D000B80B3600000037007D00380000003900EA
:1018E0000A003A0000003B0000003C0000003D0000
:1018F00001003E0000003F00000040008000410069
:1019000000004200B80B4300000044007D00450089
:10191000000046000A00470000004800000049009F
:1019200000004A0001004B0000004C0000004D0088
:1019300000004E0000004F00B80B500000005100A6
:101940007D005200000053000A00540000005500C2
:101950000000560000005700010058000000590028
:1019600000005A0000005B0000005C00B80B5D0046
:1019700000005E007D005F00000060000A00610062
:1019800000006200000063000000640001006500C8
:1019900000006600000067000000680000006900A9
:1019A000B80B6A0000006B007D006C0000006D0049
:1019B0000A006E0000006F0000007000000071005F
:1019C0000100720000007300000074000000750048
:1019D00000007600B80B7700000078007D007900E9
:1019E00000007A000A007B0000007C0000007D00FF
:1019F00000007E0001007F000000800000008100E8
:101A00000000820000008300B80B84000000850005
:101A10007D008600000087000A0088000000890021
:101A200000008A0000008B0001008C0000008D0087
:101A300000008E0000008F0000009000B80B9100A5
:101A4000000092007D009300000094000A009500C1
:101A50000000960000009700000098000100990027
:101A600000009A0000009B0000009C0000009D0008
:101A7000B80B9E0000009F007D00A0000000A100A8
:101A80000A00A2000000A3000000A4000000A500BE
:101A90000100A6000000A7000000A8000000A900A7
:101AA0000000AA00B80BAB000000AC000000AD00C5
:101AB0000500AE001400AF000000B0000000B1004F
:101AC0000500B2001400B3000000B4000000B5002F
:101AD0000500B6001400B7000000B8000000B9000F
:101AE0000500BA001400BB000000BC000000BD00EF
:101AF0000500BE001400BF000000C0000000C100CF
:101B00000500C2001400C3000000C4000000C500AE
:101B10000500C6001400C7000000C8000000C9008E
:101B20000500CA001400CB000000CC000000CD006E
:101B30000500CE001400CF000000D0000000D1004E
:101B40000500D2001400D3000000D4000000D5002E
:101B50000500D6001400D7000000D8000000D9000E
:101B60000500DA001400DB000000DC000000DD00EE
:101B70000500DE001400DF000000E0000000E100CE
:101B80000500E2001400E3000000E4000000E500AE
:101B90000500E6001400E7000000E8000000E9008E
:101BA0000500EA001400EB000000EC000000ED006E
:101BB0000500EE001400EF000000F0000000F1004E
:101BC0000500F2001400F3000000F4000000F5002E
:101BD0000000F60060EAF7000000F8000000F900DD
:101BE0000000FA000100FB000B00FC000000FD00FB
:101BF000B80B0400B80B0400B80B0500B80B0600C6
:101C0000B80B0700B80B0800B80B0900B80B0A00A6
:101C1000B80B0B00B80B0C00B80B0D00B80B0E0086
:101C2000B80B0F00000010007D0011000000120032
:101C30000A00130000001400000015000000160048
:101C400001001700000018000000190080001A00B1
:101C500000001B00B80B1C0000001D007D001E00D2
:101C600000001F000A0020000000210000002200E8
:101C700000002300010024000000250000002600D1
:101C80008000270000002800B80B290000002A006F
:101C90007D002B0000002C000A002D0000002E000B
:101CA00000002F0000003000010031000000320071
:101CB000000033008000340000003500B80B36000F
:101CC000000037007D003800000039000A003A00AB
:101CD00000003B0000003C0000003D0001003E0011
:101CE00000003F0000004000800041000000420072
:101CF000B80B4300000044007D0045000000460092
:101D00000A004700000048000000490000004A00A7
:101D100001004B0000004C0000004D0000004E0090
:101D200000004F00B80B5000000051007D00520031
:101D3000000053000A005400000055000000560047
:101D400000005700010058000000590000005A0030
:101D500000005B0000005C00B80B5D0000005E004E
:101D60007D005F00000060000A006100000062006A
:101D700000006300000064000100650000006600D0
:101D8000000067000000680000006900B80B6A00EE
:101D900000006B007D006C0000006D000A006E000A
:101DA00000006F0000007000000071000100720070
:101DB0000000730000007400000075000000760051
:101DC000B80B7700000078007D00790000007A00F1
:101DD0000A007B0000007C0000007D0000007E0007
:101DE00001007F00000080000000810000008200F0
:101DF00000008300B80B8400000085007D00860091
:101E0000000087000A0088000000890000008A00A6
:101E100000008B0001008C0000008D0000008E008F
:101E200000008F0000009000B80B910000009200AD
:101E30007D009300000094000A00950000009600C9
:101E400000009700000098000100990000009A002F
:101E500000009B0000009C0000009D00B80B9E004D
:101E600000009F007D00A0000000A1000A00A20069
:101E70000000A3000000A4000000A5000100A600CF
:101E80000000A7000000A8000000A9000000AA00B0
:101E9000B80BAB000000AC000000AD000500AE00C8
:101EA0001400AF000000B0000000B1000500B20057
:101EB0001400B3000000B4000000B5000500B60037
:101EC0001400B7000000B8000000B9000500BA0017
:101ED0001400BB000000BC000000BD000500BE00F7
:101EE0001400BF000000C0000000C1000500C200D7
:101EF0001400C3000000C4000000C5000500C600B7
:101F00001400C7000000C8000000C9000500CA0096
:101F10001400CB000000CC000000CD000500CE0076
:101F20001400CF000000D0000000D1000500D20056
:101F30001400D3000000D4000000D5000500D60036
:101F40001400D7000000D8000000D9000500DA0016
:101F50001400DB000000DC000000DD000500DE00F6
:101F60001400DF000000E0000000E1000500E200D6
:101F70001400E3000000E4000000E5000500E600B6
:101F80001400E7000000E8000000E9000500EA0096
:101F90001400EB000000EC000000ED000500EE0076
:101FA0001400EF000000F0000000F1000500F20056
:101FB0001400F3000000F4000000F5000000F6003B
:101FC00060EAF7000000F8000000F9000000FA00E5
:101FD0000100FB000B00FC000000FD00FFFFFF0004
:101FE000FFFFFF00FFFFFF00FFFFFF00FFFFFF00FD
:101FF000FFFFFF00FFFFFF00FFFFFF00FFFFFF00ED
:10200000FFFFFF00FFFFFF00FFFFFF00FFFFFF00DC
:10201000FFFFFF00FFFFFF00FFFFFF00FFFFFF00CC
:1028000096010000A0010000AA010000B401000030
:10281000BE010000C8010000D2010000DC01000080
:10282000E6010000C20A0000BC0A0000B60A00006F
:10283000940100009E010000A8010000B201000008
:10284000BC010000C6010000D0010000DA01000058
:10285000E4010000C00A0000BA0A0000B40A000047
:10286000900100009A010000A4010000AE010000E8
:10287000B8010000C2010000CC010000D601000038
:10288000E0010000BE0A0000B80A0000B20A000021
:102890002045000045500000524F00004D20000030
:1028A000776F0000726400007320000075730000F1
:1028B000656400002E0A00000D0000004C6F00004F
:1028C00061640000696E0000672000007361000011
:1028D00076650000642000007365000074740000D9
:1028E000696E0000677300002E2E00002E000000AD
:1028F000446F00006E6500000A0D000000530000E8
:1029000061760000696E00006720000053650000DA
:1029100074740000696E0000677300002E2E0000C2
:102920002E000000446F00006E6500002E0A0000BB
:102930000D0000002A2A00002A52000065730000E2
:1029400065740000204F0000757400007075000071
:10295000747300002E2A00002A2A00000A0D0000CD
:10296000004C00002D53000074690000636B0000F0
:10297000205800002D6100007869000073000000FD
:102980004C2D000053740000696300006B200000B0
:10299000592D0000617800006973000000520000AA
:1029A0002D53000074690000636B00002058000084
:1029B0002D6100007869000073000000522D0000B6
:1029C00053740000696300006B200000592D000063
:1029D0006178000069730000004C00002D54000075
:1029E0007269000067200000616E0000616C0000E9
:1029F0006F670000005200002D5400007269000053
:102A000067200000616E0000616C00006F670000CD
:102A1000005400006F7500006368000070610000E2
:102A2000642000004C650000667400002020000057
:102A3000582D000061780000697300000054000008
:102A40006F75000063680000706100006420000082
:102A50004C6500006674000020200000592D000025
:102A60006178000069730000005400006F75000079
:102A7000636800007061000064200000526900007B
:102A80006768000074200000582D00006178000085
:102A900069730000005400006F7500006368000057
:102AA0007061000064200000526900006768000047
:102AB00074200000592D0000617800006973000047
:102AC000005800002D540000696C000074000000E4
:102AD000592D0000546900006C7400000053000080
:102AE00068610000726500002062000075740000DB
:102AF000746F00006E0000004C2D00005374000045
:102B0000696300006B2000006275000074740000AF
:102B10006F6E0000005200002D5300007469000029
:102B2000636B00002062000075740000746F000089
:102B30006E0000004F700000746900006F6E0000AE
:102B40007320000062750000747400006F6E000056
:102B5000004400002D50000061640000205500007A
:102B600070000000442D000050610000642000004F
:102B7000526900006768000074000000442D0000E6
:102B80005061000064200000446F0000776E000078
:102B9000004400002D50000061640000204C000043
:102BA00065660000740000004C2D000054720000A7
:102BB000696700002062000075740000746F0000F7
:102BC0006E000000522D0000547200006967000082
:102BD0002062000075740000746F00006E00000039
:102BE0004C2D0000427500006D7000006572000001
:102BF000005200002D420000756D0000706500005D
:102C00007200000054720000696100006E670000ED
:102C10006C6500002062000075740000746F000095
:102C20006E00000043690000726300006C650000E4
:102C30002062000075740000746F00006E000000D8
:102C4000437200006F730000732000006275000083
:102C5000747400006F6E0000005300007175000076
:102C6000617200006520000062750000747400004D
:102C70006F6E0000005000005320000062750000DD
:102C8000747400006F6E0000005400006F75000047
:102C9000636800007061000064200000627500003D
:102CA000747400006F6E000000000000B19400001A
:102CB000C0940000CF940000DE940000ED9400006A
:102CC000FB940000099500001F9500003595000059
:102CD0004B95000061950000689500006F9500001D
:102CE0007C9500008B9500009A950000A995000046
:102CF000B2950000BE950000C9950000D495000073
:102D0000E2950000F0950000F995000002960000A1
:102D100012960000209600002D9600003B960000C1
:102D20004596000045720000726F0000723A000084
:102D3000204900006E64000065780000206F0000EC
:102D400075740000206F00006620000072610000B2
:102D50006E670000652E0000200A00000D000000D4
:102D600043680000616E00006E6500006C2000008A
:102D7000000A00000D0000004C6F000061640000BC
:102D8000696E000067200000646500006661000055
:102D9000756C0000742000007365000074740000FE
:102DA000696E000067730000206600006F7200000B
:102DB000200000004C6F000061640000696E00009C
:102DC00067200000616C00006C200000646500005A
:102DD00066610000756C00007420000073650000DF
:102DE00074740000696E0000677300002E2E0000EE
:102DF0002E00000045450000505200004F4D0000DD
:102E000020770000726900007465000020650000F2
:102E1000727200006F7200003A200000003D000056
:102E20003D3D0000456E00007465000072690000C1
:102E30006E670000204300006F6E000066690000AE
:102E4000672000004D6F0000646500003A0A000032
:102E50000D0A00000D2A000050720000657300008A
:102E60007320000027450000736300002720000046
:102E7000746F00002064000069730000706C000033
:102E800061790000206300006F6E00006669000039
:102E9000672000006775000069640000653D000060
:102EA0003D3D00000A0D00000A0D00000045000035
:102EB00078690000746900006E670000204300001C
:102EC0006F6E000066690000672000004D6F000013
:102ED000646500002E0A00000D0000005350000041
:102EE0004920000042750000732000004D6F000073
:102EF00064650000203000000A0D0000005300004F
:102F0000504900002042000075730000204D000071
:102F10006F64000065200000310A00000D00000011
:102F2000535000004920000042750000732000004B
:102F30004D6F000064650000203200000A0D0000A3
:102F4000005300005049000020420000757300004B
:102F5000204D00006F64000065200000330A00006F
:102F60000D00000045520000524F000052200000AA
:102F7000535000004920000042550000532000003B
:102F80004D4F0000444500000A0D000000490000BC
:102F9000646C00006520000061750000746F000023
:102FA0002D6F00006666000020730000657400004D
:102FB000207400006F20000031300000206D000000
:102FC000696E00002E0A00000D0000004964000038
:102FD0006C65000020610000757400006F2D00001A
:102FE0006F660000662000006469000073610000E5
:102FF000626C0000656400002E0A00000D000000F5
:10300000546F0000676700006C65000064200000DA
:103010006F7500007470000075740000732000006C
:103020007265000073650000742000006F6E000080
:103030002064000069730000636F00006E6E000082
:1030400065630000742E00000A0D000000540000AB
:103050006F670000676C000065640000206F00006F
:10306000757400007075000074730000207000001B
:1030700072650000736500007276000065640000F0
:10308000206F00006E200000646900007363000080
:103090006F6E00006E650000637400002E0A000071
:1030A0000D0000004C45000044200000427200006A
:1030B00069670000687400006E65000073730000AB
:1030C0003A200000004C000045440000204300006E
:1030D0006F6C00006F7200002053000065740000E8
:1030E000746900006E6700003A2000000042000092
:1030F0006C7500006500000052650000640000006F
:103100004F720000616E000067650000005900000A
:10311000656C00006C6F0000770000004C690000D7
:103120006D6500000047000072650000656E0000DC
:103130000054000075720000717500006F69000096
:10314000736500000050000075720000706C000094
:1031500065000000506900006E6B00000057000021
:1031600068690000746500000041000044430000ED
:103170000042000061740000746500007279000074
:1031800000450000727200006F72000000500000E5
:10319000504D0000204F0000757400007075000055
:1031A000742000004D6F000064650000203D0000A9
:1031B0002000000054720000696D0000203D0000F6
:1031C00020000000546F000075630000687000006C
:1031D00061640000204D00006F6400006520000065
:1031E0003D20000056690000727400007561000007
:1031F0006C2000004A6F00007973000074690000C1
:10320000636B00000A0D0000005400006F750000A1
:103210006368000070610000642000004D6F0000D2
:1032200064650000203D0000205400006F75000020
:103230006368000070610000640A00000D00000077
:10324000546F000075630000687000006164000046
:1032500020530000706C000069740000203D0000E5
:10326000204F00006E0A00000D000000546F0000A7
:103270007563000068700000616400002053000066
:10328000706C000069740000203D0000204F0000B9
:10329000666600000A0D0000005300006572000021
:1032A000766F00002F4D00006F7400006F720000F9
:1032B000204600006F720000776100007264000019
:1032C0002E0A00000D000000536500007276000019
:1032D0006F2F00004D6F0000746F0000722000001F
:1032E000526500007665000072730000652E0000D4
:1032F0000A0D0000005000006F73000069740000A8
:10330000696F00006E200000696E0000707500009B
:10331000742000006D6F0000646500002E0A00003C
:103320000D000000496E000063720000656D000032
:10333000656E0000746100006C200000696E000082
:1033400070750000742000006D6F0000646500005F
:103350002E0A00000D000000547200006967000092
:1033600067650000722000004C6900006E6B000071
:10337000204F00006E2E00000A0D000000540000D7
:10338000726900006767000065720000204C000051
:10339000696E00006B2000004F660000662E000082
:1033A0000A0D0000004C000065660000742000005B
:1033B00053740000696300006B2000004469000042
:1033C0006666000065720000656E000074690000AA
:1033D000616C0000204D000069780000204F000063
:1033E0006E2E00000A0D0000004C00006566000013
:1033F0007420000053740000696300006B2000001B
:10340000446900006666000065720000656E000099
:1034100074690000616C0000204D000069780000B4
:10342000204F0000666600002E0A00000D0000001C
:1034300052690000676800007420000053740000A7
:10344000696300006B2000004469000066660000AC
:1034500065720000656E000074690000616C000018
:10346000204D000069780000204F00006E2E000003
:103470000A0D000000520000696700006874000037
:103480002053000074690000636B000020440000BA
:103490006966000066650000726500006E740000D9
:1034A000696100006C2000004D6900007820000078
:1034B0004F660000662E00000A0D0000004D00005F
:1034C00065630000616E0000756D00002053000010
:1034D0007465000065720000696E000067200000DE
:1034E0004D690000782000004F660000662E000045
:1034F0000A0D0000004D000065630000616E0000D1
:10350000756D0000205300007465000065720000B6
:10351000696E0000672000004D69000078200000FF
:103520004F6E00002E0A00000D0000004D650000E7
:10353000636100006E7500006D2000005374000090
:1035400065650000726900006E670000204D000094
:1035500069780000204F00006E2C000020720000EF
:10356000656D000061700000207200006967000056
:10357000687400002073000074690000636B000031
:10358000207900002D6100007869000073200000A0
:10359000746F000020000000537400006963000095
:1035A0006B200000486F00006C6400002F52000088
:1035B00065630000616C00006C200000646900001D
:1035C00073610000626C0000656400002E0A000058
:1035D0000D00000053740000696300006B200000C0
:1035E000486F00006C6400002F520000656300000B
:1035F000616C00006C2000007469000065640000CC
:10360000207400006F2000004C2D00005374000057
:10361000696300006B2000004275000074740000B4
:103620006F6E00002E0A00000D00000053740000B1
:10363000696300006B200000486F00006C640000AC
:103640002F52000065630000616C00006C200000D8
:103650007469000065640000207400006F200000A1
:10366000522D000053740000696300006B200000BD
:1036700042750000747400006F6E00002E0A000096
:103680000D000000526100006E6700006520000020
:103690004F6600006673000065740000203D000066
:1036A00020000000526100006E67000065200000ED
:1036B0003D200000004400006561000064620000DD
:1036C000616E0000642000003D20000000530000F7
:1036D000656E00007369000074690000766900007F
:1036E00074790000203D000020000000486F0000B9
:1036F0006D650000205000006F73000069740000C9
:10370000696F00006E2000003D20000000430000B3
:10371000616C000069620000726100007469000061
:103720006E670000204100006C6C00002048000023
:103730006F6D000065200000506F0000736900008D
:10374000746900006F6E0000732E00002E2E0000C2
:10375000004F0000757400007075000074200000B8
:10376000496E000076650000727400006564000018
:103770002E0A00000D0000004F750000747000005C
:1037800075740000204E00006F7200006D61000033
:103790006C2E00000A0D0000004F00007574000040
:1037A0007075000074200000546F0000676700000F
:1037B0006C6500002E0A00000D0000004F7500002F
:1037C000747000007574000020530000696E0000E2
:1037D000676C000065200000536800006F740000F3
:1037E0002E0A00000D0000004F75000074700000EC
:1037F0007574000020410000757400006F660000C1
:1038000069720000652E00000A0D0000004F0000E4
:10381000757400007075000074200000546F000083
:10382000676700006C6500002041000075740000AF
:103830006F66000069720000652E00000A0D00002E
:10384000004F0000757400007075000074200000C7
:103850005075000073680000627500007474000009
:103860006F6E00002E0A00000D000000455200009F
:10387000524F0000522000004F55000054500000ED
:1038800055540000204D00004F440000452E00001C
:103890000A0D000000500000756C00007365000008
:1038A0005769000064740000682000003D2000009B
:1038B00000300000206D0000730A00000D000000C1
:1038C00041750000746F00006669000072650000B9
:1038D0002050000065720000696F00006420000045
:1038E0003D200000000A00000D3D00003D3D0000AD
:1038F000476500006E650000726100006C200000EA
:103900005365000074740000696E00006773000066
:103910003D3D00003D0A00000D000000456E000026
:103920007465000072200000636F00006E66000086
:1039300069670000206D00006F640000653A0000B8
:10394000204800006F6C000064200000505300000D
:103950002042000075740000746F00006E200000AB
:103960002B200000536800006172000065200000F9
:103970003320000073650000636F00006E64000078
:10398000730A00000D00000053610000766500001E
:10399000206100006E64000020650000786900006E
:1039A000743A0000204800006F6C000064200000A2
:1039B0004F700000746900006F6E0000730A000011
:1039C0000D0000004C6F00006164000020640000E6
:1039D00065660000617500006C740000733A0000B9
:1039E000204800006F6C0000642000005368000055
:1039F0006172000065200000312000007365000046
:103A0000636F00006E6400002028000063750000F2
:103A100072720000656E0000742000006368000090
:103A2000616E00006E6500006C2900002F330000FD
:103A300020730000656300006F6E00006473000077
:103A400020280000616C00006C200000636800000A
:103A5000616E00006E6500006C730000290A0000B2
:103A60000D00000043790000636C00006520000039
:103A7000746F0000206E000065780000742F000055
:103A80007072000065760000696F000075730000B9
:103A900020630000686100006E6E0000656C00002D
:103AA000203A0000205200002F4C0000204200006D
:103AB000756D000070650000720A00000D000000C6
:103AC00043790000636C0000652000005350000043
:103AD0004920000062750000732000006D6F000037
:103AE00064650000733A0000205200002D5300006E
:103AF00074690000636B0000202B0000205400005C
:103B000072690000616E0000676C0000650A0000C9
:103B10000D000000456E0000616200006C65000051
:103B20002F44000069730000616200006C650000B2
:103B300020690000646C00006520000061750000D1
:103B4000746F00002D64000069730000636F000053
:103B50006E6E000065630000743A000020520000A1
:103B60002D53000074690000636B0000202B0000DF
:103B700020430000726F0000737300000D0A000004
:103B8000005000007265000073650000727600004E
:103B9000652F00005265000073650000742000006E
:103BA0006F750000747000007574000073200000D1
:103BB0006F6E0000206300006F6E000074720000E2
:103BC0006F6C00006C6500007220000064690000EA
:103BD000736300006F6E00006E6500006374000088
:103BE0003A200000522D0000537400006963000069
:103BF0006B2000002B2000005053000020420000EA
:103C000075740000746F00006E0A00000D00000063
:103C100043680000616E000067650000206C0000D2
:103C20006967000068740000626100007220000093
:103C30006272000069670000687400006E65000031
:103C4000737300003A2000004C2D000053740000F4
:103C5000696300006B2000002B200000442D000051
:103C600050610000642000004C6500006674000094
:103C70002F52000069670000687400000A0D000000
:103C800000430000686100006E67000065200000CE
:103C90006C690000676800007462000061720000D7
:103CA000206300006F6C00006F7200003A2000007B
:103CB0004C2D000053740000696300006B2000006D
:103CC0002B2000005368000061720000650A0000AC
:103CD0000D000000546F0000676700006C65000075
:103CE0002052000043200000505000004D200000F2
:103CF0004D6F000064650000206F00006E20000022
:103D000063680000313100003A2000004C2D0000B3
:103D100053740000696300006B2000002B2000003A
:103D20004F700000746900006F6E0000730A00009D
:103D30000D0000000A0D00003D3D00003D53000055
:103D400065720000766F000020410000646A000088
:103D500075730000746D0000656E000074730000E0
:103D60003D3D00003D0A00000D000000546F0000C2
:103D7000676700006C65000020610000627300004E
:103D80006F6C00007574000065200000706F00000B
:103D900073690000746900006F6E00002F690000F5
:103DA0006E630000726500006D6500006E740000B7
:103DB000616C0000206D00006F640000653A000037
:103DC000205200002D53000074690000636B000056
:103DD000202B0000205200002D420000756D0000D5
:103DE00070650000720A00000D000000496E0000BE
:103DF00076650000727400002064000069720000A3
:103E000065630000746900006F6E00003A200000D6
:103E1000522D000053740000696300006B20000005
:103E20002B2000004C2D0000427500006D7000003A
:103E3000657200000A0D000000530000656E00006E
:103E400073690000746900007669000074790000ED
:103E50003A20000054720000696100006E670000A3
:103E60006C6500002F430000726F00007373000048
:103E70000A0D00000044000065610000646200005B
:103E8000616E0000643A000020530000717500006C
:103E900061720000652F000043690000726300003A
:103EA0006C6500000A0D000000520000616E000009
:103EB00067650000206F0000662000006D6F000045
:103EC000746900006F6E00003A200000442D00006D
:103ED0005061000064200000557000002F44000075
:103EE0006F7700006E0A00000D00000054720000A1
:103EF000696D000020280000726100006E670000FC
:103F0000652000006F660000206D00006F740000E7
:103F1000696F00006E2000006C6900006D69000090
:103F200074730000206D00006F76000065200000B3
:103F30007769000074680000207400007269000056
:103F40006D2900003A200000442D0000506100005F
:103F5000642000004C650000667400002F520000D1
:103F600069670000687400000A0D0000004300004B
:103F7000656E000074650000722000006F6600002E
:103F80006673000065740000207400007269000010
:103F90006D20000028720000616E0000676500005F
:103FA000206F0000662000006D6F00007469000043
:103FB0006F6E0000206C0000696D000069740000E5
:103FC00073200000646F0000206E00006F7400001A
:103FD000206D00006F760000652900003A20000087
:103FE000522D000053740000696300006B20000034
:103FF0002B200000442D00005061000064200000D0
:104000004C650000667400002F52000069670000D4
:10401000687400000A0D0000004A00006F7900007B
:1040200073740000696300006B2000007A65000073
:10403000726F000020630000616C00006962000084
:1040400072610000746900006F6E00003A20000089
:10405000486F00006C6400002050000053200000F6
:1040600042750000747400006F6E00002031000083
:1040700020730000656300006F6E00006420000084
:104080002863000075720000726500006E74000005
:1040900020630000686100006E6E0000656C000027
:1040A000292F00003320000073650000636F0000BB
:1040B0006E64000073200000286100006C6C00003A
:1040C00020630000686100006E6E0000656C0000F7
:1040D000732900000A0D0000005300006572000003
:1040E000766F0000206800006F6C0000642F0000F5
:1040F00072650000636100006C6C000020700000BD
:104100006F73000069740000696F00006E2000008A
:104110006D6F000064650000206500006E610000A6
:10412000626C0000653A0000204C00002D53000036
:1041300074690000636B0000202B00002043000026
:1041400069720000636C0000650A00000D00000049
:10415000547200006967000067650000722000006B
:104160006C6900006E6B00003A2000004C2D0000CE
:1041700053740000696300006B2000002B200000D6
:10418000437200006F730000730A00000D0000000E
:10419000546F0000756300006870000061640000E7
:1041A000206D00006F6400006520000028610000A1
:1041B000627300006F6C00007574000065200000E1
:1041C000706F000073690000746900006F6E00007A
:1041D00020760000732000007669000072740000F1
:1041E000756100006C2000006A6F000079730000A8
:1041F00074690000636B0000293A0000205200003F
:104200002D53000074690000636B0000202B000038
:10421000204400002D500000616400002055000083
:10422000700A00000D000000546F0000756300006C
:10423000687000006164000020730000706C000072
:104240006974000020760000732000007768000089
:104250006F6C0000653A0000205200002D530000F2
:1042600074690000636B0000202B000020440000F4
:104270002D50000061640000204400006F770000B2
:104280006E0A00000D0000004A6F00007973000004
:1042900074690000636B0000206400006966000020
:1042A00066650000726500006E74000069610000C0
:1042B0006C20000064720000697600006520000038
:1042C0006D69000078650000722000003A2000004F
:1042D0004C2D000053740000696300006B20000047
:1042E0002B200000437200006F730000730A00006F
:1042F0000D0000004A6F000079730000746900002F
:10430000636B0000206D000065630000616E0000BB
:10431000756D00002077000068650000656C000086
:10432000206D000069780000657200003A200000EE
:104330004C2D000053740000696300006B200000E6
:104340002B200000537100007561000072650000B1
:104350000A0D0000000A00000D3D00003D3D000078
:1043600042750000747400006F6E00002041000070
:10437000646A000075730000746D0000656E0000D3
:10438000747300003D3D00003D0A00000D00000078
:104390005465000073740000206F00007574000005
:1043A000707500007420000077680000696C0000E0
:1043B00065200000636F00006E6600006967000002
:1043C00075720000696E0000673A0000205200001C
:1043D0002D53000074690000636B00000A0D00009B
:1043E000004900006E760000657200007420000035
:1043F0004F75000074700000757400003A200000D2
:10440000437200006F730000730A00000D0000008B
:1044100043680000616E00006765000020620000D4
:1044200075740000746F00006E2000006D6F000056
:1044300064650000202800007075000073680000AB
:1044400062750000747400006F6E00002C20000084
:10445000746F0000676700006C6500002C2000008E
:1044600065740000632E0000293A0000205400000B
:1044700072690000616E0000676C0000650A000050
:104480000D000000536900006E6700006C650000BD
:104490002D530000686F0000742F0000417500006C
:1044A000746F0000666900007265000020700000F3
:1044B000756C0000736500002077000069640000DF
:1044C000746800003A200000442D00005061000094
:1044D000642000004C650000667400002F5200004C
:1044E00069670000687400000A0D000000410000C8
:1044F000646A00007573000074200000617500009C
:10450000746F000066690000726500002070000092
:1045100065720000696F0000643A000020440000EA
:104520002D5000006164000020550000702F000035
:10453000446F0000776E00000A0D00000A0D0000B5
:104540000000000072000000710000007000000018
:104550002A2A00002A5200006573000065740000DA
:10456000205300007461000074650000732E000089
:104570002A2A00002A0A00000D0000005541000010
:1045800052540000204900006E6900007469000068
:10459000616C0000697A0000656400002F2E000045
:1045A0000A0D0000004300004D440000206300009D
:1045B0006F6D0000706C000065740000653A0000CB
:1045C000200000005265000073650000742E00009A
:1045D0000A0D000000520000656100006420000028
:1045E000416400006472000065730000732E0000D7
:1045F000204C00006F630000616C0000204200004E
:10460000445F000041440000445200003A20000092
:10461000002E000020530000746F0000726900003B
:104620006E67000020610000646400007265000095
:10463000737300002E0A00000D0000000A0D000038
:10464000004C00006F630000616C0000204E000011
:10465000616D0000652E00000A0D0000005700008B
:104660007269000074650000204300006C61000066
:10467000737300002E0A00000D0000005772000046
:10468000697400006520000053630000616E000043
:10469000204500006E610000626C0000652F000084
:1046A0004469000073610000626C0000652E000028
:1046B0000A0D0000004C0000696E00006B20000035
:1046C0004B6500007920000052650000706C00000E
:1046D000792E00000A0D0000004F000074680000F1
:1046E000657200002E0A00000D000000526F0000ED
:1046F0006C65000020430000686100006E670000E8
:1047000065200000537500006363000065730000BE
:1047100073660000756C00002E0A00000D0000009A
:10472000526F00006C6500002043000068610000CB
:104730006E6700006520000046610000696C0000A3
:10474000656400002E200000204500007272000009
:104750006F7200003A200000004900006E710000F6
:104760007569000072790000204300006F6D000041
:10477000706C000065740000650A00000D00000008
:10478000496E000071750000697200007920000018
:1047900052650000737500006C7400002C2000004E
:1047A000726500006D6F000074650000204200001B
:1047B000445F000041440000445200003A200000E1
:1047C000004300006F6E00006E650000637400001F
:1047D000696F00006E200000416300006365000007
:1047E00070740000656400002045000076650000DC
:1047F0006E7400003A200000005300007563000052
:1048000063650000737300002E2000004861000003
:104810006E6400006C650000203D00002000000078
:1048200045720000726F0000723A00002000000024
:10483000496E0000636F00006D6900006E67000044
:10484000204300006F6E00006E650000637400007E
:10485000696F00006E3A000020520000656D000094
:104860006F740000655F0000426400005F4100005B
:1048700064640000722000003D200000004400003D
:1048800069730000636F00006E6E000065630000D6
:104890007420000045760000656E0000743A000048
:1048A0002000000053750000636300006573000082
:1048B000732E000000450000727200006F7200004D
:1048C0002E000000456E0000637200007970000049
:1048D000746900006F6E00002063000068610000D2
:1048E0006E670000653A0000004300006861000048
:1048F0006E6E0000656C0000204500006E630000D5
:104900007279000070740000696F00006E20000072
:104910004F6E00002E200000486100006E64000011
:104920006C6500003D000000436F00006D6D0000ED
:10493000616E000064200000537400006174000088
:104940007573000020450000766500006E7400005D
:104950003A20000000500000656E0000646900000D
:104960006E6700002E00000045720000726F0000AC
:104970007220000030780000303200003A20000041
:10498000556E00006B6E00006F7700006E20000017
:10499000436F00006E6E00006563000074690000E4
:1049A0006F6E000020490000442E0000004500000A
:1049B000727200006F720000204300006F640000FC
:1049C000653A0000004C0000696E00006B2000009A
:1049D0004B650000792000005265000071750000F1
:1049E00065730000742E0000202000004244000087
:1049F0005F41000044440000523A0000004D0000B6
:104A000061780000205300006C6F00007473000098
:104A100020430000686100006E670000652E000002
:104A20000A0D0000004300006F640000653D0000B7
:104A300030780000303100002E200000436F00006D
:104A40006D6D0000616E0000642000005265000082
:104A50006A65000063740000656400002E0A0000AF
:104A60000D000000436F0000646500003D30000051
:104A700078300000322E0000284300006F6E0000E6
:104A80006E65000063740000696F00006E20000016
:104A900052650000712900002E00000050530000F4
:104AA0004D3D000030780000303000003031000013
:104AB0002028000053440000502900002E20000050
:104AC00053430000494400003D00000050530000E3
:104AD0004D3D0000307800003030000031310000E2
:104AE0002028000048490000445F000043540000B3
:104AF000524C0000292E00002053000043490000C2
:104B0000443D000000500000534D00003D300000C7
:104B10007830000030310000332E000020530000B8
:104B200043490000443D0000002100002121000015
:104B300045720000726F0000723A000020500000C1
:104B4000534D0000206E00006F74000020730000C1
:104B500075700000706F00007274000065640000E2
:104B60002E0A00000D000000436F00006E6E000072
:104B700065630000746900006F6E00002043000050
:104B80006F6D0000706C000065740000653A0000F5
:104B9000005300007563000063650000737300003C
:104BA0002E2000000048000049440000204300007F
:104BB000545200004C20000028500000534D0000CB
:104BC0002030000078310000312900000A0D00007B
:104BD0000048000049440000204400004154000007
:104BE0004120000028500000534D000020300000FC
:104BF00078310000332900000A0D00000055000044
:104C00006E6B00006E6F0000776E00000A0D0000F2
:104C100000500000656E0000646900006E670000CF
:104C20002E2E00002E0A00000D000000466100003C
:104C3000696C000075720000652E000020450000C0
:104C4000727200006F7200003A000000436F0000B3
:104C5000646500003D30000078300000342800001A
:104C6000436F00006E66000069670000205200007C
:104C700065710000293A0000004800004944000026
:104C8000204300006F6E0000747200006F6C000023
:104C900020430000686100006E6E0000656C00003B
:104CA0002E0A00000D0000004849000044200000CA
:104CB000446100007461000020430000686100004E
:104CC0006E6E0000656C00002E0A00000D000000F2
:104CD000534400005020000043680000616E000053
:104CE0006E6500006C2E00000A0D0000002100001F
:104CF0002121000045720000726F0000723A00002E
:104D0000205500006E6B00006E6F0000776E000093
:104D100020430000686100006E6E0000656C0000BA
:104D200020490000442E00000A0D0000004300004E
:104D30006F640000653D00003078000030350000F1
:104D4000284300006F6E00006669000067200000C5
:104D50005265000073700000292E00002000000042
:104D6000537500006363000065730000730A000060
:104D70000D00000046610000696C00002E0A000072
:104D80000D00000044690000736300006F6E0000B6
:104D90006E65000063740000207200006571000001
:104DA00075650000737400003A00000020440000A4
:104DB00041540000412E00000A0D000000200000B8
:104DC00043540000524C00002E0A00000D00000069
:104DD00020530000445000002E0A00000D00000087
:104DE000205500006E6B00006E6F0000776E0000B3
:104DF00020430000686100006E6E0000656C0000DA
:104E00002E0A00000D0000004469000073630000DA
:104E10006F6E00006E650000637400002052000099
:104E200065730000706F00006E730000653A00004B
:104E300000430000683A000053440000502E000078
:104E40000A0D000000530000445000002041000003
:104E500074740000726900006275000074650000DF
:104E60002052000065710000756500007374000039
:104E70002E0A00000D000000577200006974000047
:104E800065200000436C0000617300007320000087
:104E900045720000726F0000723A000020000000AE
:104EA000202D000020410000434C00002063000042
:104EB000616E00006E6F00007420000062650000EB
:104EC000207700007269000074740000656E0000B5
:104ED0002000000042540000204F000075740000C4
:104EE00070750000743A0000200000004572000058
:104EF000726F0000723A000020430000616E0000F3
:104F00006E6F000074200000666900006E6400008F
:104F1000206300006F72000072650000637400007F
:104F20002074000079700000652E00000A0D00005A
:104F3000004900004E490000540A00000D00000026
:104F400048430000495F0000434D0000445F0000FB
:104F50005245000053450000543A00002000000074
:104F600048430000495F0000434D0000445F0000DB
:104F700052450000414400005F420000445F0000D1
:104F800041440000445200003A2000000048000064
:104F9000434900005F4300004D4400005F4C0000A7
:104FA0004F430000414C00005F4E0000414D0000A7
:104FB000453A00002000000048430000495F00001F
:104FC000434D0000445F0000434C0000415300008B
:104FD000535F00004445000056490000434500006F
:104FE0003A20000000480000434900005F430000F1
:104FF0004D4400005F530000434100004E5F00003D
:10500000454E0000414200004C4500003A2000009F
:1050100000480000434900005F4300004D44000089
:105020005F4900004E5100005549000052590000F0
:105030003A20000000480000434900005F430000A0
:105040004D4400005F430000524500004154000001
:10505000455F0000434F00004E4E000045430000F6
:10506000544900004F4E00003A2000000048000064
:10507000434900005F4300004D4400005F410000D1
:105080004343000045500000545F0000494E0000BB
:10509000434F00004D4900004E4700002E20000005
:1050A000524F00004C4500002043000048410000E2
:1050B0004E470000452000005245000051550000B9
:1050C0004553000054450000443A00002000000011
:1050D00048430000495F0000434D0000445F00006A
:1050E00053430000414E00005F440000495300005C
:1050F000414200004C4500003A200000004C0000F6
:10510000494E00004B5F00004B450000595F000016
:1051100052450000504C0000593A000020000000A9
:105120005343000049440000204300005452000053
:105130004C2000003D200000004C000032430000E5
:10514000415000005F4300004F4E00004E450000FC
:10515000435400005F5200004553000050300000EF
:10516000313A0000200000004C32000043410000B2
:10517000505F0000434F00004E46000049470000CA
:105180005F52000045510000303100003A2000001D
:10519000004C000032430000415000005F4300001B
:1051A0004F4E000046490000475F00005245000096
:1051B00053500000303100003A200000004C000045
:1051C00032430000415000005F440000495300009A
:1051D000434F00004E4E000045430000545F000066
:1051E00053440000505F000052450000513A000057
:1051F000200000004C32000043410000505F0000DE
:1052000044490000534300004F4E00004E4500004B
:10521000435400005F52000045530000503000002E
:10522000313A0000200000004C32000043410000F1
:10523000505F0000434F00004E4E00004543000009
:10524000545F00005245000051310000313A000027
:10525000200000004C32000043410000505F00007D
:10526000434F00004E4E000045430000545F0000D5
:105270005245000053500000313100003A20000038
:10528000004C000032430000415000005F4300002A
:105290004F4E000046490000475F000052450000A5
:1052A00051310000313A0000200000004C32000073
:1052B00043410000505F0000434F00004E46000095
:1052C000494700005F520000455300005031000084
:1052D000313A000020000000534300004944000020
:1052E0002044000041540000412000003D20000007
:1052F000004C000032430000415000005F430000BA
:105300004F4E00004E450000435400005F52000025
:105310004553000050310000333A000020000000E7
:105320004C32000043410000505F0000434F00003A
:105330004E460000494700005F5200004551000002
:10534000313300003A200000004C000032430000DE
:10535000415000005F4300004F4E000046490000EE
:10536000475F0000524500005350000031330000F9
:105370003A2000000047000045540000204600008D
:105380004541000054550000524500002030000007
:105390007830000032200000285000005334000014
:1053A0005F420000545F0000494E00004954000075
:1053B000293A0000200000004C3200004341000068
:1053C000505F000044490000534300004F4E00006E
:1053D0004E450000435400005F440000415400006B
:1053E000415F000052450000535000003A20000089
:1053F000004C000032430000415000005F440000B8
:1054000049530000434F00004E4E0000454300004A
:10541000545F000043540000524C00005F520000F3
:1054200045530000503A0000200000004C320000BC
:1054300043410000505F0000444900005343000016
:105440004F4E00004E450000435400005F440000F2
:1054500041540000413A0000200000004843000091
:10546000495F000044490000534300004F4E0000D4
:105470004E450000435400003A2000000055000053
:105480006E6B00006E6F0000776E0000204400001D
:10549000656D00006F20000053740000617400000F
:1054A000652E00000A0D000000520000656100003A
:1054B0006420000042610000636B00002041000096
:1054C00044440000522E00000A0D00000057000066
:1054D00061690000746900006E67000020660000CA
:1054E0006F720000207200006561000064200000FF
:1054F000746F0000206300006F6D0000706C00008E
:1055000065740000652E00002E2E00000050000083
:105510006169000072200000436F00006E7400009B
:10552000726F00006C6C0000657200002077000054
:1055300069740000682000006C6100007374000052
:10554000204200006C750000657400006F6F000061
:1055500074680000206400006F6E0000676C00003B
:10556000652E00002E2E00000A0D000000570000DE
:1055700061690000746900006E6700002066000029
:105580006F720000207700007269000074650000EF
:10559000207400006F200000636F00006D70000039
:1055A0006C650000746500002E2E00002E000000C7
:1055B000446F00006E6500002E20000000440000D3
:1055C00065760000696300006520000057720000E6
:1055D000697400006520000045720000726F0000D1
:1055E00072200000210D00000A0000005365000039
:1055F0007420000052650000706F0000727400009B
:105600002030000078310000343A000000530000E0
:105610007563000063650000737300002E0A0000CC
:105620000D000000496E000069740000696100000F
:105630006C6900007A650000204300006F6E000076
:10564000747200006F6C00006C650000722E000028
:105650000A0D0000002000002D200000446500001D
:10566000766900006365000020520000656100005B
:105670006420000045720000726F0000722000007C
:10568000210D00000A000000476500006E65000063
:105690007269000063200000646500006D6F000007
:1056A000206400006576000069630000652000004A
:1056B00061740000746100006368000065640000AC
:1056C000202D000020650000766500006E7400004B
:1056D0002C2000006465000076690000636500000E
:1056E000416400006472000065730000733D0000B7
:1056F000000D00000A000000476500006E65000014
:105700007269000063200000646500006D6F000096
:1057100020640000657600006963000065200000D9
:105720006465000074610000636800006564000047
:10573000202D000020650000766500006E740000DA
:105740000D0A0000000D00000A2A00002A2A0000AD
:105750002A2A000020550000534200002045000086
:10576000727200006F720000202D0000206800009F
:105770007562000073200000617200006520000067
:105780006E6F0000742000007375000070700000E0
:105790006F72000074650000642000002A2A000077
:1057A0002A2A00002A0D00000A0000000D0A00004D
:1057B0002A2A00002A2A00002A200000555300004F
:1057C0004220000045720000726F0000722000004D
:1057D0002D2000006465000076690000636500000C
:1057E00020690000732000006E6F0000742000002C
:1057F00073750000707000006F7200007465000027
:10580000642000002A2A00002A2A00002A0D000035
:105810000A0000000D0A00002A2A00002A2A0000BF
:105820002A2000005553000042200000457200006D
:10583000726F0000722000002D20000063610000E4
:105840006E6E00006F740000206500006E75000031
:105850006D65000072610000746500002064000046
:105860006576000069630000652000002A2A0000B8
:105870002A2A00002A0D00000A0000000D0A00007C
:105880002A2A00002A2A00002A200000555300007E
:105890004220000045720000726F0000722000007C
:1058A0002D200000636C0000696500006E7400002C
:1058B000206400007269000076650000722000001C
:1058C000696E000069740000696100006C69000085
:1058D0007A610000746900006F6E000020650000AE
:1058E000727200006F720000202A00002A2A000055
:1058F0002A2A00000D0A0000000D00000A2A0000FC
:105900002A2A00002A2A00002055000053420000E5
:1059100020450000727200006F720000202D000010
:10592000206F000075740000206F000066200000EA
:105930006865000061700000206D0000656D00006A
:105940006F720000792000002A2A00002A2A000035
:105950002A0D00000A0000000D0A00002A2A00009B
:105960002A2A00002A20000055530000422000008F
:1059700045720000726F0000722000002D200000B0
:10598000756E0000737000006563000069660000BA
:1059900069650000642000002A2A00002A2A00000D
:1059A0002A0D00000A000000322E00003000000026
:1059B0003A200000436F0000756C00006420000076
:1059C0006E6F000074200000696E000069740000B2
:1059D000696100006C6900007A65000020730000B6
:1059E00079730000746500006D2E00002020000017
:1059F000486100006C740000696E0000672E0000B2
:105A0000000D00000A0D00000A2A000020530000CB
:105A100065720000766F0000536800006F6300003D
:105A20006B2000003220000046690000726D00000B
:105A3000776100007265000020520000657600006A
:105A400020000000202A00000D0A0000003D000098
:105A500050720000657300007320000027450000AD
:105A60007363000027200000696E000020630000BF
:105A70006F6E0000736F00006C6500002074000002
:105A80006F20000064690000737000006C6100000A
:105A90007920000071750000696300006B20000030
:105AA0007265000066650000726500006E630000AC
:105AB000652000006775000069640000653D000016
:105AC0000A0D00000A0D000000200000436F0000D6
:105AD000756C0000642000006E6F000074200000F0
:105AE000696E000069740000696100006C69000063
:105AF0007A65000020550000534200002E2000006F
:105B000020480000616C0000746900006E670000AE
:105B10002E000000436900007263000075690000F8
:105B2000742000005465000073740000204D0000D4
:105B30006F640000652E00000A0D000000460000A2
:105B4000697200006D77000061720000652000003E
:105B5000436F0000646500003A200000004400002C
:105B600065660000617500006C7400007320000021
:105B70004C6F000061640000656400002E0A0000A4
:105B80000D00000045450000505200004F4D000040
:105B90002057000072690000746500002045000075
:105BA000727200006F7200003A200000000A0000CC
:105BB0000D45000072610000736900006E6700000F
:105BC0002070000061670000652E00000A0D0000D3
:105BD000004C00006F610000646900006E67000007
:105BE000205300006176000065640000205300002F
:105BF00065740000746900006E670000732E000079
:105C0000200A00000D0000004469000073630000DA
:105C10006F6E00006E65000063740000696E000026
:105C2000672E00002E2E00000A0D00000049000023
:105C3000646C000065200000546900006D65000080
:105C40006F750000742E00000A0D00000053000064
:105C500074610000636B000045720000726F000009
:105C6000720000004D6100007468000020450000D3
:105C7000727200006F7200000000000053500000BC
:105C80004920000042750000732000004D6F0000A5
:105C900064650000203000000A0D00000053000081
:105CA000504900002042000075730000204D0000A4
:105CB0006F64000065200000310A00000D00000044
:105CC000535000004920000042750000732000007E
:105CD0004D6F000064650000203200000A0D0000D6
:105CE000005300005049000020420000757300007E
:105CF000204D00006F64000065200000330A0000A2
:105D00000D00000045520000524F000052200000DC
:105D1000535000004920000042550000532000006D
:105D20004D4F0000444500000A0D00000000000037
:105D3000496E000069740000203300004420000018
:105D40004D6F000075730000650A00000D00000033
:105D5000496E000069740000205400006872000061
:105D600075730000746D00006173000074650000BD
:105D7000720A00000D0000005465000073740000FA
:105D80002043000061730000653A0000200000001D
:105D90000A0D0000005500006E6B00006E6F0000E1
:105DA000776E00002043000061730000650A000068
:105DB0000D000000303100003233000034350000A7
:105DC00036370000383900004142000043440000EB
:105DD00045460000881F78000000EB00800888001E
:105DE00011A1A90010C1A900011120009140780063
:105DF000F2CCB30082C060000144A0008000FD002E
:105E000010E1B7008000FD001061A9001021A90079
:105E100030088800800078000743290066002000D1
:105E200085412900140020000340290082BB200086
:105E300061807B000608780061807A0004087800A1
:105E400061807900020878008180E800F88F5000B6
:105E5000F7FF3A00A0002000400D8800F00320006A
:105E6000900C8800E00C8800300D8800800D8800C0
:105E7000D00D8800200E8800700E8800C00E8800AB
:105E8000100F880011E1A80000A026008101200069
:105E900039EE070008C42900A80C880000D02700AC
:105EA0000100200034EE0700F80C880000D0270025
:105EB0000100200030EE0700480D880000D02700C8
:105EC000010020002CEE0700980D880000D027006C
:105ED0000100200028EE0700E80D880000D0270010
:105EE0000100200024EE0700380E880000D02700B3
:105EF0000100200020EE0700880E880000D0270057
:105F0000010020001CEE0700D80E880000D02700FA
:105F10000100200018EE0700280F8800D5C6BF003A
:105F200008CCB300084060002041B300D5E6B700BC
:105F300092A1A90000A02600810120000EEE07001A
:105F4000DAC6BF00084060003041B300DAE6B700AF
:105F50009CA1A90000A026008101200006EE0700F8
:105F6000D3C6BF00084060004041B300D3E6B7008D
:105F7000A6A1A90000A0260081012000FEED0700D7
:105F8000DBC6BF00084060005041B300DBE6B7004D
:105F9000B0A1A90000A0260081012000F6ED0700B5
:105FA000D2C6BF00084060006041B300D2E6B7002F
:105FB000BAA1A90000A0260081012000EEED070093
:105FC000DCC6BF00084060007041B300DCE6B700EB
:105FD000C4A1A90000A0260081012000E6ED070071
:105FE000CDC6BF00084060008041B300CDE6B700D9
:105FF000CEA1A90000A0260081012000DEED07004F
:10600000C1C6BF00084060009041B300C1E6B700C0
:10601000D8A1A90000A0260081012000D6ED07002C
:10602000C0C6BF00084060003042B300C0E6B70001
:10603000E2A1A9000001EB009208880013A1A900C9
:1060400012C1A90012C1BF00F1CCB3000140600031
:106050000044A00012E1B7001221A90052088800F4
:1060600013E1A8009500A80070C0B300A860B700B5
:106070004F04780000000600889FBE008A9FBE0083
:106080008C9FBE00800578000006EB000D0120000B
:106090007A60B900A2972000000441008D047800C6
:1060A0000005EB000B00E0000400320089007800DE
:1060B0001800780086EC070003003700090078001C
:1060C000D2EA0700000C78008904E8000A05E8001D
:1060D0000884E800ED0F5500F2FF3A000C06E800D6
:1060E000ED864600EC0F5600E9FF3A008006EB0013
:1060F000C368DD00A08E2000008440000905780000
:106100004C0020000B00E000040032008A00780000
:10611000180078006EEC0700030037000A007800D2
:10612000BAEA0700000C78008A00E8000C06E900D3
:106130000884E8000C00E00002003200010578004D
:10614000F0FF37008D06E800E4844400F28F56002B
:10615000E7FF3A000B00E0000300320040478000F8
:106160005BEC07000300370001007800A7EA070096
:10617000404788008A80E8000B00E00003003200FE
:106180001046800052EC0700030037000100780041
:106190009EEA070010468800E30045000B00E0007F
:1061A000030032000046800049EC0700030037007E
:1061B0000100780095EA070000468800E4004500E9
:1061C0000B00E00003003200F045800040EC0700C7
:1061D00003003700010078008CEA0700F0458800D2
:1061E000E50045000B00E00003003200E0458000C0
:1061F00037EC0700030037000100780083EA07004E
:10620000E0458800E60045000B00E0000300320096
:10621000D04580002EEC0700030037000100780015
:106220007AEA0700D0458800E70045000B00E0004F
:10623000030032001040800025EC07000300370007
:106240000100780071EA070010408800E80045006E
:106250000B00E00003003200C04580001CEC07008A
:10626000030037000100780068EA0700C045880095
:10627000E90045000B00E00003003200B04580005B
:1062800013EC070003003700010078005FEA070005
:10629000B0458800EA0045000B00E0000300320032
:1062A000004080000AEC070003003700010078007E
:1062B00056EA0700004088006B004500852F070064
