:020000040000fa
:080000000002040000000000f2
:020000040000fa
:100400000f7223000e7f24000e0188000000000000
:100410000c000700c0a72000010020001100070009
:10042000000020000000e000020032000000020096
:10043000000000007a790200000000000040da00ad
:100440000000fe004440a900a0ae21000000e00032
:100450000300320000002000a00188004440a800f2
:100460000000060091018800800078000000eb0089
:1004700015003700e280400032a0b4009101ba00bc
:10048000e280400032a0b4009102ba00e280400055
:1004900032a0b4000002eb00472bde00f507b200eb
:1004a000602ce10004003a000059eb008301e900f0
:1004b000fdff3e00040037006128e100010032002a
:1004c0000082eb00040007001101ba000200e00006
:1004d000e8ff3a00000006003159ba008301e90044
:1004e0000c0032002159ba008301e90008003200f3
:1004f0000400e00003003a00e280400032a0b400b3
:10050000f5ff370011d9ba008301e900faff3a007c
:100510008100e800e180400032a0b4000000060045
:1005200000000000000000000000000000000000cb
:1005300000000000000000000000000000000000bb
:1005400000000000000000000040da000000fe0093
:10055000839f68000100e00002003d006000100081
:10056000e08018000300e00002003d00600111007f
:10057000e0811900050007004f00e00002003b0089
:1005800060001000e0801800000006006022b80043
:10059000060220000000d0008180d2000482d20038
:1005a0008582d2000000a0000202520083825a001d
:1005b000030031000202420083824a000000a100d1
:1005c0000603e900f3ff3a0000000600020ab90042
:1005d000001bb9000200b800810042008100430006
:1005e00000000600800178000001780031407800aa
:1005f000005978000004e000fcff3a000300780096
:1006000000000600889fbe008a9fbe008c9fbe002f
:1006100000017800e1f020001100e0000b003a003a
:1006200020f1200070788800507888009178880048
:1006300061788800214090000004a000a04098004c
:10064000614090000004a000e0409800e7004100f5
:10065000c208de00c20cdd00647880000d012100bc
:10066000007223000d05500022002000811f780039
:10067000110009000205d80000067800cf007800bc
:10068000c308dd00e48540008001eb000601210085
:10069000e5f02000010037000102780024409000be
:1006a0000008a300020032000a003700110a780097
:1006b00094007800214090000008a300fbff320066
:1006c00009014200828f500002003900840f51005e
:1006d0004600310094007800848f5000eeff3e0009
:1006e000868f500002003900858f5000eaff3900e4
:1006f00050788000800f52004f003a00858f5000e4
:100700004d003a008301e800e18f5100e2ff36001e
:100710008c8f5400040036008a8f54000200310090
:100720000b04780012003700614ab8006151b9002b
:10073000b0ff2f000100200002005000838058000d
:10074000800f5200818f5a000200350009047800a2
:10075000070037000d805400327223000200400071
:10076000110009000a80d8000a80b900000478004e
:10077000080078006f00070080017800e10f40005a
:100780002d003200507880000308780052788000f5
:1007900064004100a2409000808f510002003200ae
:1007a0000104a000010037000104a10021419800cc
:1007b000088041006400500080097800507888006b
:1007c000e2f020000208780051788000214090007b
:1007d0000004a000a0409800234090000004a10065
:1007e000a041980002027800a7ff370062788800d5
:1007f000828f5000090036009200780080f02000bf
:10080000a2419000034878003178880014097800ec
:100810008040eb0060788000214098006078800084
:10082000000a7800244090000004a00020429800b4
:1008300064004200010037000000eb004f06be00dc
:100840004f05be004f04be000000060064005000cb
:1008500060788800a04090000104a1002140980029
:1008600000000600889fbe008a9fbe000005780039
:10087000e401500013001000c285de002340900008
:100880000008a30004003200637888002340900031
:100890000004a100a04198000100780059ff070062
:1008a000000478000000e000170032008a0f5000ba
:1008b0001500320060b8970008005000c284de00c6
:1008c000898f550001003600890578004259dd0006
:1008d0008a007800080078000f0007008a0f540093
:1008e000090031004248dd00000044008a0f50003a
:1008f000050036000a0050000000440032788000f5
:10090000437880000288be00080078004f05be00d2
:100910004f04be00000006008001eb00020037001b
:1009200061f079008301e800828f5100fcff3a00fa
:1009300000000600889fbe0080047800b078800028
:100940000000e00003003a00100007000000e00093
:100950000a003500b07880000900e00002003a008b
:100960000004780006003700000478000900400009
:10097000060007000000e00001003d000084eb00dd
:10098000080078004f04be000000060080007800d8
:100990000000e00004003a0000012100b078880067
:1009a00001017800060037000081eb00007223008f
:1009b000808f500002003e00b17888000001eb00fb
:0809c0000200780000000600af
:020000040000fa
:020000040001f9
:0457f800fe4300006c
:020000040000fa
:020000040001f9
:0457fc007f3e0000ec
:020000040000fa
:10000800a4020000a4020000d67c0000fa7c0000d4
:100018001e7d0000a4020000a4020000a40200004b
:10002800a4020000a4020000a4020000a402000030
:10003800a4020000a4020000a4020000a402000020
:10004800c83e0000a4020000387c0000a4020000a2
:10005800a4020000a4020000a4020000a402000000
:10006800a4020000a4020000a4020000a4020000f0
:100078009e7c0000a4020000a4020000a40200006c
:10008800a4020000a4020000a4020000ce7b00002d
:10009800a4020000a4020000a4020000a4020000c0
:1000a800a4020000a4020000a4020000a4020000b0
:1000b800a4020000a4020000a4020000a4020000a0
:1000c800a4020000a4020000a4020000a402000090
:1000d800a4020000a4020000a4020000a402000080
:1000e800a4020000a4020000a4020000a402000070
:1000f800a4020000a4020000a4020000a402000060
:10010800a4020000a4020000a4020000a40200004f
:10011800a4020000a4020000a4020000a40200003f
:10012800a4020000a4020000a4020000a40200002f
:10013800a4020000a4020000a4020000a40200001f
:10014800a4020000a4020000a4020000a40200000f
:10015800a4020000a4020000a4020000a4020000ff
:10016800a4020000a4020000a4020000a4020000ef
:10017800a4020000a402000030630000a4020000f2
:10018800a4020000a4020000a4020000a4020000cf
:10019800a4020000a4020000a4020000a4020000bf
:1001a800a4020000a4020000a4020000a4020000af
:1001b800a4020000a4020000a4020000a40200009f
:1001c800a4020000a4020000a4020000a40200008f
:1001d800a4020000a4020000a4020000a40200007f
:1001e800a4020000a4020000a4020000a40200006f
:0801f800a4020000a4020000b3
:020000040000fa
:10020800a4020000a4020000d67c0000fa7c0000d2
:100218001e7d0000a4020000a4020000a402000049
:10022800a4020000a4020000a4020000a40200002e
:10023800a4020000a4020000a4020000a40200001e
:10024800c83e0000a4020000387c0000a4020000a0
:10025800a4020000a4020000a4020000a4020000fe
:10026800a4020000a4020000a4020000a4020000ee
:100278009e7c0000a4020000a4020000a40200006a
:10028800a4020000a4020000a4020000ce7b00002b
:10029800a4020000a4020000a4020000a4020000be
:1002a800a4020000a4020000a4020000a4020000ae
:1002b800a4020000a4020000a4020000a40200009e
:1002c800a4020000a4020000a4020000a40200008e
:1002d800a4020000a4020000a4020000a40200007e
:1002e800a4020000a4020000a4020000a40200006e
:1002f800a4020000a4020000a4020000a40200005e
:10030800a4020000a4020000a4020000a40200004d
:10031800a4020000a4020000a4020000a40200003d
:10032800a4020000a4020000a4020000a40200002d
:10033800a4020000a4020000a4020000a40200001d
:10034800a4020000a4020000a4020000a40200000d
:10035800a4020000a4020000a4020000a4020000fd
:10036800a4020000a4020000a4020000a4020000ed
:10037800a4020000a402000030630000a4020000f0
:10038800a4020000a4020000a4020000a4020000cd
:10039800a4020000a4020000a4020000a4020000bd
:1003a800a4020000a4020000a4020000a4020000ad
:1003b800a4020000a4020000a4020000a40200009d
:1003c800a4020000a4020000a4020000a40200008d
:1003d800a4020000a4020000a4020000a40200007d
:1003e800a4020000a4020000a4020000a40200006d
:0803f800a4020000a4020000b1
:020000040000fa
:1028000096010000a0010000aa010000b401000030
:10281000be010000c8010000d2010000dc01000080
:10282000e6010000c20a0000bc0a0000b60a00006f
:10283000940100009e010000a8010000b201000008
:10284000bc010000c6010000d0010000da01000058
:10285000e4010000c00a0000ba0a0000b40a000047
:10286000900100009a010000a4010000ae010000e8
:10287000b8010000c2010000cc010000d601000038
:10288000e0010000be0a0000b80a0000b20a000021
:102890002045000045500000524f00004d20000030
:1028a000776f0000726400007320000075730000f1
:1028b000656400002e0a00000d0000004c6f00004f
:1028c00061640000696e0000672000007361000011
:1028d00076650000642000007365000074740000d9
:1028e000696e0000677300002e2e00002e000000ad
:1028f000446f00006e6500000a0d000000530000e8
:1029000061760000696e00006720000053650000da
:1029100074740000696e0000677300002e2e0000c2
:102920002e000000446f00006e6500002e0a0000bb
:102930000d0000002a2a00002a52000065730000e2
:1029400065740000204f0000757400007075000071
:10295000747300002e2a00002a2a00000a0d0000cd
:10296000004c00002d53000074690000636b0000f0
:10297000205800002d6100007869000073000000fd
:102980004c2d000053740000696300006b200000b0
:10299000592d0000617800006973000000520000aa
:1029a0002d53000074690000636b00002058000084
:1029b0002d6100007869000073000000522d0000b6
:1029c00053740000696300006b200000592d000063
:1029d0006178000069730000004c00002d54000075
:1029e0007269000067200000616e0000616c0000e9
:1029f0006f670000005200002d5400007269000053
:102a000067200000616e0000616c00006f670000cd
:102a1000005400006f7500006368000070610000e2
:102a2000642000004c650000667400002020000057
:102a3000582d000061780000697300000054000008
:102a40006f75000063680000706100006420000082
:102a50004c6500006674000020200000592d000025
:102a60006178000069730000005400006f75000079
:102a7000636800007061000064200000526900007b
:102a80006768000074200000582d00006178000085
:102a900069730000005400006f7500006368000057
:102aa0007061000064200000526900006768000047
:102ab00074200000592d0000617800006973000047
:102ac000005800002d540000696c000074000000e4
:102ad000592d0000546900006c7400000053000080
:102ae00068610000726500002062000075740000db
:102af000746f00006e0000004c2d00005374000045
:102b0000696300006b2000006275000074740000af
:102b10006f6e0000005200002d5300007469000029
:102b2000636b00002062000075740000746f000089
:102b30006e0000004f700000746900006f6e0000ae
:102b40007320000062750000747400006f6e000056
:102b5000004400002d50000061640000205500007a
:102b600070000000442d000050610000642000004f
:102b7000526900006768000074000000442d0000e6
:102b80005061000064200000446f0000776e000078
:102b9000004400002d50000061640000204c000043
:102ba00065660000740000004c2d000054720000a7
:102bb000696700002062000075740000746f0000f7
:102bc0006e000000522d0000547200006967000082
:102bd0002062000075740000746f00006e00000039
:102be0004c2d0000427500006d7000006572000001
:102bf000005200002d420000756d0000706500005d
:102c00007200000054720000696100006e670000ed
:102c10006c6500002062000075740000746f000095
:102c20006e00000043690000726300006c650000e4
:102c30002062000075740000746f00006e000000d8
:102c4000437200006f730000732000006275000083
:102c5000747400006f6e0000005300007175000076
:102c6000617200006520000062750000747400004d
:102c70006f6e0000005000005320000062750000dd
:102c8000747400006f6e0000005400006f75000047
:102c9000636800007061000064200000627500003d
:102ca000747400006f6e000000000000b19400001a
:102cb000c0940000cf940000de940000ed9400006a
:102cc000fb940000099500001f9500003595000059
:102cd0004b95000061950000689500006f9500001d
:102ce0007c9500008b9500009a950000a995000046
:102cf000b2950000be950000c9950000d495000073
:102d0000e2950000f0950000f995000002960000a1
:102d100012960000209600002d9600003b960000c1
:102d20004596000045720000726f0000723a000084
:102d3000204900006e64000065780000206f0000ec
:102d400075740000206f00006620000072610000b2
:102d50006e670000652e0000200a00000d000000d4
:102d600043680000616e00006e6500006c2000008a
:102d7000000a00000d0000004c6f000061640000bc
:102d8000696e000067200000646500006661000055
:102d9000756c0000742000007365000074740000fe
:102da000696e000067730000206600006f7200000b
:102db000200000004c6f000061640000696e00009c
:102dc00067200000616c00006c200000646500005a
:102dd00066610000756c00007420000073650000df
:102de00074740000696e0000677300002e2e0000ee
:102df0002e00000045450000505200004f4d0000dd
:102e000020770000726900007465000020650000f2
:102e1000727200006f7200003a200000003d000056
:102e20003d3d0000456e00007465000072690000c1
:102e30006e670000204300006f6e000066690000ae
:102e4000672000004d6f0000646500003a0a000032
:102e50000d0a00000d2a000050720000657300008a
:102e60007320000027450000736300002720000046
:102e7000746f00002064000069730000706c000033
:102e800061790000206300006f6e00006669000039
:102e9000672000006775000069640000653d000060
:102ea0003d3d00000a0d00000a0d00000045000035
:102eb00078690000746900006e670000204300001c
:102ec0006f6e000066690000672000004d6f000013
:102ed000646500002e0a00000d0000005350000041
:102ee0004920000042750000732000004d6f000073
:102ef00064650000203000000a0d0000005300004f
:102f0000504900002042000075730000204d000071
:102f10006f64000065200000310a00000d00000011
:102f2000535000004920000042750000732000004b
:102f30004d6f000064650000203200000a0d0000a3
:102f4000005300005049000020420000757300004b
:102f5000204d00006f64000065200000330a00006f
:102f60000d00000045520000524f000052200000aa
:102f7000535000004920000042550000532000003b
:102f80004d4f0000444500000a0d000000490000bc
:102f9000646c00006520000061750000746f000023
:102fa0002d6f00006666000020730000657400004d
:102fb000207400006f20000031300000206d000000
:102fc000696e00002e0a00000d0000004964000038
:102fd0006c65000020610000757400006f2d00001a
:102fe0006f660000662000006469000073610000e5
:102ff000626c0000656400002e0a00000d000000f5
:10300000546f0000676700006c65000064200000da
:103010006f7500007470000075740000732000006c
:103020007265000073650000742000006f6e000080
:103030002064000069730000636f00006e6e000082
:1030400065630000742e00000a0d000000540000ab
:103050006f670000676c000065640000206f00006f
:10306000757400007075000074730000207000001b
:1030700072650000736500007276000065640000f0
:10308000206f00006e200000646900007363000080
:103090006f6e00006e650000637400002e0a000071
:1030a0000d0000004c45000044200000427200006a
:1030b00069670000687400006e65000073730000ab
:1030c0003a200000004c000045440000204300006e
:1030d0006f6c00006f7200002053000065740000e8
:1030e000746900006e6700003a2000000042000092
:1030f0006c7500006500000052650000640000006f
:103100004f720000616e000067650000005900000a
:10311000656c00006c6f0000770000004c690000d7
:103120006d6500000047000072650000656e0000dc
:103130000054000075720000717500006f69000096
:10314000736500000050000075720000706c000094
:1031500065000000506900006e6b00000057000021
:1031600068690000746500000041000044430000ed
:103170000042000061740000746500007279000074
:1031800000450000727200006f72000000500000e5
:10319000504d0000204f0000757400007075000055
:1031a000742000004d6f000064650000203d0000a9
:1031b0002000000054720000696d0000203d0000f6
:1031c00020000000546f000075630000687000006c
:1031d00061640000204d00006f6400006520000065
:1031e0003d20000056690000727400007561000007
:1031f0006c2000004a6f00007973000074690000c1
:10320000636b00000a0d0000005400006f750000a1
:103210006368000070610000642000004d6f0000d2
:1032200064650000203d0000205400006f75000020
:103230006368000070610000640a00000d00000077
:10324000546f000075630000687000006164000046
:1032500020530000706c000069740000203d0000e5
:10326000204f00006e0a00000d000000546f0000a7
:103270007563000068700000616400002053000066
:10328000706c000069740000203d0000204f0000b9
:10329000666600000a0d0000005300006572000021
:1032a000766f00002f4d00006f7400006f720000f9
:1032b000204600006f720000776100007264000019
:1032c0002e0a00000d000000536500007276000019
:1032d0006f2f00004d6f0000746f0000722000001f
:1032e000526500007665000072730000652e0000d4
:1032f0000a0d0000005000006f73000069740000a8
:10330000696f00006e200000696e0000707500009b
:10331000742000006d6f0000646500002e0a00003c
:103320000d000000496e000063720000656d000032
:10333000656e0000746100006c200000696e000082
:1033400070750000742000006d6f0000646500005f
:103350002e0a00000d000000547200006967000092
:1033600067650000722000004c6900006e6b000071
:10337000204f00006e2e00000a0d000000540000d7
:10338000726900006767000065720000204c000051
:10339000696e00006b2000004f660000662e000082
:1033a0000a0d0000004c000065660000742000005b
:1033b00053740000696300006b2000004469000042
:1033c0006666000065720000656e000074690000aa
:1033d000616c0000204d000069780000204f000063
:1033e0006e2e00000a0d0000004c00006566000013
:1033f0007420000053740000696300006b2000001b
:10340000446900006666000065720000656e000099
:1034100074690000616c0000204d000069780000b4
:10342000204f0000666600002e0a00000d0000001c
:1034300052690000676800007420000053740000a7
:10344000696300006b2000004469000066660000ac
:1034500065720000656e000074690000616c000018
:10346000204d000069780000204f00006e2e000003
:103470000a0d000000520000696700006874000037
:103480002053000074690000636b000020440000ba
:103490006966000066650000726500006e740000d9
:1034a000696100006c2000004d6900007820000078
:1034b0004f660000662e00000a0d0000004d00005f
:1034c00065630000616e0000756d00002053000010
:1034d0007465000065720000696e000067200000de
:1034e0004d690000782000004f660000662e000045
:1034f0000a0d0000004d000065630000616e0000d1
:10350000756d0000205300007465000065720000b6
:10351000696e0000672000004d69000078200000ff
:103520004f6e00002e0a00000d0000004d650000e7
:10353000636100006e7500006d2000005374000090
:1035400065650000726900006e670000204d000094
:1035500069780000204f00006e2c000020720000ef
:10356000656d000061700000207200006967000056
:10357000687400002073000074690000636b000031
:10358000207900002d6100007869000073200000a0
:10359000746f000020000000537400006963000095
:1035a0006b200000486f00006c6400002f52000088
:1035b00065630000616c00006c200000646900001d
:1035c00073610000626c0000656400002e0a000058
:1035d0000d00000053740000696300006b200000c0
:1035e000486f00006c6400002f520000656300000b
:1035f000616c00006c2000007469000065640000cc
:10360000207400006f2000004c2d00005374000057
:10361000696300006b2000004275000074740000b4
:103620006f6e00002e0a00000d00000053740000b1
:10363000696300006b200000486f00006c640000ac
:103640002f52000065630000616c00006c200000d8
:103650007469000065640000207400006f200000a1
:10366000522d000053740000696300006b200000bd
:1036700042750000747400006f6e00002e0a000096
:103680000d000000526100006e6700006520000020
:103690004f6600006673000065740000203d000066
:1036a00020000000526100006e67000065200000ed
:1036b0003d200000004400006561000064620000dd
:1036c000616e0000642000003d20000000530000f7
:1036d000656e00007369000074690000766900007f
:1036e00074790000203d000020000000486f0000b9
:1036f0006d650000205000006f73000069740000c9
:10370000696f00006e2000003d20000000430000b3
:10371000616c000069620000726100007469000061
:103720006e670000204100006c6c00002048000023
:103730006f6d000065200000506f0000736900008d
:10374000746900006f6e0000732e00002e2e0000c2
:10375000004f0000757400007075000074200000b8
:10376000496e000076650000727400006564000018
:103770002e0a00000d0000004f750000747000005c
:1037800075740000204e00006f7200006d61000033
:103790006c2e00000a0d0000004f00007574000040
:1037a0007075000074200000546f0000676700000f
:1037b0006c6500002e0a00000d0000004f7500002f
:1037c000747000007574000020530000696e0000e2
:1037d000676c000065200000536800006f740000f3
:1037e0002e0a00000d0000004f75000074700000ec
:1037f0007574000020410000757400006f660000c1
:1038000069720000652e00000a0d0000004f0000e4
:10381000757400007075000074200000546f000083
:10382000676700006c6500002041000075740000af
:103830006f66000069720000652e00000a0d00002e
:10384000004f0000757400007075000074200000c7
:103850005075000073680000627500007474000009
:103860006f6e00002e0a00000d000000455200009f
:10387000524f0000522000004f55000054500000ed
:1038800055540000204d00004f440000452e00001c
:103890000a0d000000500000756c00007365000008
:1038a0005769000064740000682000003d2000009b
:1038b00000300000206d0000730a00000d000000c1
:1038c00041750000746f00006669000072650000b9
:1038d0002050000065720000696f00006420000045
:1038e0003d200000000a00000d3d00003d3d0000ad
:1038f000476500006e650000726100006c200000ea
:103900005365000074740000696e00006773000066
:103910003d3d00003d0a00000d000000456e000026
:103920007465000072200000636f00006e66000086
:1039300069670000206d00006f640000653a0000b8
:10394000204800006f6c000064200000505300000d
:103950002042000075740000746f00006e200000ab
:103960002b200000536800006172000065200000f9
:103970003320000073650000636f00006e64000078
:10398000730a00000d00000053610000766500001e
:10399000206100006e64000020650000786900006e
:1039a000743a0000204800006f6c000064200000a2
:1039b0004f700000746900006f6e0000730a000011
:1039c0000d0000004c6f00006164000020640000e6
:1039d00065660000617500006c740000733a0000b9
:1039e000204800006f6c0000642000005368000055
:1039f0006172000065200000312000007365000046
:103a0000636f00006e6400002028000063750000f2
:103a100072720000656e0000742000006368000090
:103a2000616e00006e6500006c2900002f330000fd
:103a300020730000656300006f6e00006473000077
:103a400020280000616c00006c200000636800000a
:103a5000616e00006e6500006c730000290a0000b2
:103a60000d00000043790000636c00006520000039
:103a7000746f0000206e000065780000742f000055
:103a80007072000065760000696f000075730000b9
:103a900020630000686100006e6e0000656c00002d
:103aa000203a0000205200002f4c0000204200006d
:103ab000756d000070650000720a00000d000000c6
:103ac00043790000636c0000652000005350000043
:103ad0004920000062750000732000006d6f000037
:103ae00064650000733a0000205200002d5300006e
:103af00074690000636b0000202b0000205400005c
:103b000072690000616e0000676c0000650a0000c9
:103b10000d000000456e0000616200006c65000051
:103b20002f44000069730000616200006c650000b2
:103b300020690000646c00006520000061750000d1
:103b4000746f00002d64000069730000636f000053
:103b50006e6e000065630000743a000020520000a1
:103b60002d53000074690000636b0000202b0000df
:103b700020430000726f0000737300000d0a000004
:103b8000005000007265000073650000727600004e
:103b9000652f00005265000073650000742000006e
:103ba0006f750000747000007574000073200000d1
:103bb0006f6e0000206300006f6e000074720000e2
:103bc0006f6c00006c6500007220000064690000ea
:103bd000736300006f6e00006e6500006374000088
:103be0003a200000522d0000537400006963000069
:103bf0006b2000002b2000005053000020420000ea
:103c000075740000746f00006e0a00000d00000063
:103c100043680000616e000067650000206c0000d2
:103c20006967000068740000626100007220000093
:103c30006272000069670000687400006e65000031
:103c4000737300003a2000004c2d000053740000f4
:103c5000696300006b2000002b200000442d000051
:103c600050610000642000004c6500006674000094
:103c70002f52000069670000687400000a0d000000
:103c800000430000686100006e67000065200000ce
:103c90006c690000676800007462000061720000d7
:103ca000206300006f6c00006f7200003a2000007b
:103cb0004c2d000053740000696300006b2000006d
:103cc0002b2000005368000061720000650a0000ac
:103cd0000d000000546f0000676700006c65000075
:103ce0002052000043200000505000004d200000f2
:103cf0004d6f000064650000206f00006e20000022
:103d000063680000313100003a2000004c2d0000b3
:103d100053740000696300006b2000002b2000003a
:103d20004f700000746900006f6e0000730a00009d
:103d30000d0000000a0d00003d3d00003d53000055
:103d400065720000766f000020410000646a000088
:103d500075730000746d0000656e000074730000e0
:103d60003d3d00003d0a00000d000000546f0000c2
:103d7000676700006c65000020610000627300004e
:103d80006f6c00007574000065200000706f00000b
:103d900073690000746900006f6e00002f690000f5
:103da0006e630000726500006d6500006e740000b7
:103db000616c0000206d00006f640000653a000037
:103dc000205200002d53000074690000636b000056
:103dd000202b0000205200002d420000756d0000d5
:103de00070650000720a00000d000000496e0000be
:103df00076650000727400002064000069720000a3
:103e000065630000746900006f6e00003a200000d6
:103e1000522d000053740000696300006b20000005
:103e20002b2000004c2d0000427500006d7000003a
:103e3000657200000a0d000000530000656e00006e
:103e400073690000746900007669000074790000ed
:103e50003a20000054720000696100006e670000a3
:103e60006c6500002f430000726f00007373000048
:103e70000a0d00000044000065610000646200005b
:103e8000616e0000643a000020530000717500006c
:103e900061720000652f000043690000726300003a
:103ea0006c6500000a0d000000520000616e000009
:103eb00067650000206f0000662000006d6f000045
:103ec000746900006f6e00003a200000442d00006d
:103ed0005061000064200000557000002f44000075
:103ee0006f7700006e0a00000d00000054720000a1
:103ef000696d000020280000726100006e670000fc
:103f0000652000006f660000206d00006f740000e7
:103f1000696f00006e2000006c6900006d69000090
:103f200074730000206d00006f76000065200000b3
:103f30007769000074680000207400007269000056
:103f40006d2900003a200000442d0000506100005f
:103f5000642000004c650000667400002f520000d1
:103f600069670000687400000a0d0000004300004b
:103f7000656e000074650000722000006f6600002e
:103f80006673000065740000207400007269000010
:103f90006d20000028720000616e0000676500005f
:103fa000206f0000662000006d6f00007469000043
:103fb0006f6e0000206c0000696d000069740000e5
:103fc00073200000646f0000206e00006f7400001a
:103fd000206d00006f760000652900003a20000087
:103fe000522d000053740000696300006b20000034
:103ff0002b200000442d00005061000064200000d0
:104000004c650000667400002f52000069670000d4
:10401000687400000a0d0000004a00006f7900007b
:1040200073740000696300006b2000007a65000073
:10403000726f000020630000616c00006962000084
:1040400072610000746900006f6e00003a20000089
:10405000486f00006c6400002050000053200000f6
:1040600042750000747400006f6e00002031000083
:1040700020730000656300006f6e00006420000084
:104080002863000075720000726500006e74000005
:1040900020630000686100006e6e0000656c000027
:1040a000292f00003320000073650000636f0000bb
:1040b0006e64000073200000286100006c6c00003a
:1040c00020630000686100006e6e0000656c0000f7
:1040d000732900000a0d0000005300006572000003
:1040e000766f0000206800006f6c0000642f0000f5
:1040f00072650000636100006c6c000020700000bd
:104100006f73000069740000696f00006e2000008a
:104110006d6f000064650000206500006e610000a6
:10412000626c0000653a0000204c00002d53000036
:1041300074690000636b0000202b00002043000026
:1041400069720000636c0000650a00000d00000049
:10415000547200006967000067650000722000006b
:104160006c6900006e6b00003a2000004c2d0000ce
:1041700053740000696300006b2000002b200000d6
:10418000437200006f730000730a00000d0000000e
:10419000546f0000756300006870000061640000e7
:1041a000206d00006f6400006520000028610000a1
:1041b000627300006f6c00007574000065200000e1
:1041c000706f000073690000746900006f6e00007a
:1041d00020760000732000007669000072740000f1
:1041e000756100006c2000006a6f000079730000a8
:1041f00074690000636b0000293a0000205200003f
:104200002d53000074690000636b0000202b000038
:10421000204400002d500000616400002055000083
:10422000700a00000d000000546f0000756300006c
:10423000687000006164000020730000706c000072
:104240006974000020760000732000007768000089
:104250006f6c0000653a0000205200002d530000f2
:1042600074690000636b0000202b000020440000f4
:104270002d50000061640000204400006f770000b2
:104280006e0a00000d0000004a6f00007973000004
:1042900074690000636b0000206400006966000020
:1042a00066650000726500006e74000069610000c0
:1042b0006c20000064720000697600006520000038
:1042c0006d69000078650000722000003a2000004f
:1042d0004c2d000053740000696300006b20000047
:1042e0002b200000437200006f730000730a00006f
:1042f0000d0000004a6f000079730000746900002f
:10430000636b0000206d000065630000616e0000bb
:10431000756d00002077000068650000656c000086
:10432000206d000069780000657200003a200000ee
:104330004c2d000053740000696300006b200000e6
:104340002b200000537100007561000072650000b1
:104350000a0d0000000a00000d3d00003d3d000078
:1043600042750000747400006f6e00002041000070
:10437000646a000075730000746d0000656e0000d3
:10438000747300003d3d00003d0a00000d00000078
:104390005465000073740000206f00007574000005
:1043a000707500007420000077680000696c0000e0
:1043b00065200000636f00006e6600006967000002
:1043c00075720000696e0000673a0000205200001c
:1043d0002d53000074690000636b00000a0d00009b
:1043e000004900006e760000657200007420000035
:1043f0004f75000074700000757400003a200000d2
:10440000437200006f730000730a00000d0000008b
:1044100043680000616e00006765000020620000d4
:1044200075740000746f00006e2000006d6f000056
:1044300064650000202800007075000073680000ab
:1044400062750000747400006f6e00002c20000084
:10445000746f0000676700006c6500002c2000008e
:1044600065740000632e0000293a0000205400000b
:1044700072690000616e0000676c0000650a000050
:104480000d000000536900006e6700006c650000bd
:104490002d530000686f0000742f0000417500006c
:1044a000746f0000666900007265000020700000f3
:1044b000756c0000736500002077000069640000df
:1044c000746800003a200000442d00005061000094
:1044d000642000004c650000667400002f5200004c
:1044e00069670000687400000a0d000000410000c8
:1044f000646a00007573000074200000617500009c
:10450000746f000066690000726500002070000092
:1045100065720000696f0000643a000020440000ea
:104520002d5000006164000020550000702f000035
:10453000446f0000776e00000a0d00000a0d0000b5
:104540000000000072000000710000007000000018
:104550002a2a00002a5200006573000065740000da
:10456000205300007461000074650000732e000089
:104570002a2a00002a0a00000d0000005541000010
:1045800052540000204900006e6900007469000068
:10459000616c0000697a0000656400002f2e000045
:1045a0000a0d0000004300004d440000206300009d
:1045b0006f6d0000706c000065740000653a0000cb
:1045c000200000005265000073650000742e00009a
:1045d0000a0d000000520000656100006420000028
:1045e000416400006472000065730000732e0000d7
:1045f000204c00006f630000616c0000204200004e
:10460000445f000041440000445200003a20000092
:10461000002e000020530000746f0000726900003b
:104620006e67000020610000646400007265000095
:10463000737300002e0a00000d0000000a0d000038
:10464000004c00006f630000616c0000204e000011
:10465000616d0000652e00000a0d0000005700008b
:104660007269000074650000204300006c61000066
:10467000737300002e0a00000d0000005772000046
:10468000697400006520000053630000616e000043
:10469000204500006e610000626c0000652f000084
:1046a0004469000073610000626c0000652e000028
:1046b0000a0d0000004c0000696e00006b20000035
:1046c0004b6500007920000052650000706c00000e
:1046d000792e00000a0d0000004f000074680000f1
:1046e000657200002e0a00000d000000526f0000ed
:1046f0006c65000020430000686100006e670000e8
:1047000065200000537500006363000065730000be
:1047100073660000756c00002e0a00000d0000009a
:10472000526f00006c6500002043000068610000cb
:104730006e6700006520000046610000696c0000a3
:10474000656400002e200000204500007272000009
:104750006f7200003a200000004900006e710000f6
:104760007569000072790000204300006f6d000041
:10477000706c000065740000650a00000d00000008
:10478000496e000071750000697200007920000018
:1047900052650000737500006c7400002c2000004e
:1047a000726500006d6f000074650000204200001b
:1047b000445f000041440000445200003a200000e1
:1047c000004300006f6e00006e650000637400001f
:1047d000696f00006e200000416300006365000007
:1047e00070740000656400002045000076650000dc
:1047f0006e7400003a200000005300007563000052
:1048000063650000737300002e2000004861000003
:104810006e6400006c650000203d00002000000078
:1048200045720000726f0000723a00002000000024
:10483000496e0000636f00006d6900006e67000044
:10484000204300006f6e00006e650000637400007e
:10485000696f00006e3a000020520000656d000094
:104860006f740000655f0000426400005f4100005b
:1048700064640000722000003d200000004400003d
:1048800069730000636f00006e6e000065630000d6
:104890007420000045760000656e0000743a000048
:1048a0002000000053750000636300006573000082
:1048b000732e000000450000727200006f7200004d
:1048c0002e000000456e0000637200007970000049
:1048d000746900006f6e00002063000068610000d2
:1048e0006e670000653a0000004300006861000048
:1048f0006e6e0000656c0000204500006e630000d5
:104900007279000070740000696f00006e20000072
:104910004f6e00002e200000486100006e64000011
:104920006c6500003d000000436f00006d6d0000ed
:10493000616e000064200000537400006174000088
:104940007573000020450000766500006e7400005d
:104950003a20000000500000656e0000646900000d
:104960006e6700002e00000045720000726f0000ac
:104970007220000030780000303200003a20000041
:10498000556e00006b6e00006f7700006e20000017
:10499000436f00006e6e00006563000074690000e4
:1049a0006f6e000020490000442e0000004500000a
:1049b000727200006f720000204300006f640000fc
:1049c000653a0000004c0000696e00006b2000009a
:1049d0004b650000792000005265000071750000f1
:1049e00065730000742e0000202000004244000087
:1049f0005f41000044440000523a0000004d0000b6
:104a000061780000205300006c6f00007473000098
:104a100020430000686100006e670000652e000002
:104a20000a0d0000004300006f640000653d0000b7
:104a300030780000303100002e200000436f00006d
:104a40006d6d0000616e0000642000005265000082
:104a50006a65000063740000656400002e0a0000af
:104a60000d000000436f0000646500003d30000051
:104a700078300000322e0000284300006f6e0000e6
:104a80006e65000063740000696f00006e20000016
:104a900052650000712900002e00000050530000f4
:104aa0004d3d000030780000303000003031000013
:104ab0002028000053440000502900002e20000050
:104ac00053430000494400003d00000050530000e3
:104ad0004d3d0000307800003030000031310000e2
:104ae0002028000048490000445f000043540000b3
:104af000524c0000292e00002053000043490000c2
:104b0000443d000000500000534d00003d300000c7
:104b10007830000030310000332e000020530000b8
:104b200043490000443d0000002100002121000015
:104b300045720000726f0000723a000020500000c1
:104b4000534d0000206e00006f74000020730000c1
:104b500075700000706f00007274000065640000e2
:104b60002e0a00000d000000436f00006e6e000072
:104b700065630000746900006f6e00002043000050
:104b80006f6d0000706c000065740000653a0000f5
:104b9000005300007563000063650000737300003c
:104ba0002e2000000048000049440000204300007f
:104bb000545200004c20000028500000534d0000cb
:104bc0002030000078310000312900000a0d00007b
:104bd0000048000049440000204400004154000007
:104be0004120000028500000534d000020300000fc
:104bf00078310000332900000a0d00000055000044
:104c00006e6b00006e6f0000776e00000a0d0000f2
:104c100000500000656e0000646900006e670000cf
:104c20002e2e00002e0a00000d000000466100003c
:104c3000696c000075720000652e000020450000c0
:104c4000727200006f7200003a000000436f0000b3
:104c5000646500003d30000078300000342800001a
:104c6000436f00006e66000069670000205200007c
:104c700065710000293a0000004800004944000026
:104c8000204300006f6e0000747200006f6c000023
:104c900020430000686100006e6e0000656c00003b
:104ca0002e0a00000d0000004849000044200000ca
:104cb000446100007461000020430000686100004e
:104cc0006e6e0000656c00002e0a00000d000000f2
:104cd000534400005020000043680000616e000053
:104ce0006e6500006c2e00000a0d0000002100001f
:104cf0002121000045720000726f0000723a00002e
:104d0000205500006e6b00006e6f0000776e000093
:104d100020430000686100006e6e0000656c0000ba
:104d200020490000442e00000a0d0000004300004e
:104d30006f640000653d00003078000030350000f1
:104d4000284300006f6e00006669000067200000c5
:104d50005265000073700000292e00002000000042
:104d6000537500006363000065730000730a000060
:104d70000d00000046610000696c00002e0a000072
:104d80000d00000044690000736300006f6e0000b6
:104d90006e65000063740000207200006571000001
:104da00075650000737400003a00000020440000a4
:104db00041540000412e00000a0d000000200000b8
:104dc00043540000524c00002e0a00000d00000069
:104dd00020530000445000002e0a00000d00000087
:104de000205500006e6b00006e6f0000776e0000b3
:104df00020430000686100006e6e0000656c0000da
:104e00002e0a00000d0000004469000073630000da
:104e10006f6e00006e650000637400002052000099
:104e200065730000706f00006e730000653a00004b
:104e300000430000683a000053440000502e000078
:104e40000a0d000000530000445000002041000003
:104e500074740000726900006275000074650000df
:104e60002052000065710000756500007374000039
:104e70002e0a00000d000000577200006974000047
:104e800065200000436c0000617300007320000087
:104e900045720000726f0000723a000020000000ae
:104ea000202d000020410000434c00002063000042
:104eb000616e00006e6f00007420000062650000eb
:104ec000207700007269000074740000656e0000b5
:104ed0002000000042540000204f000075740000c4
:104ee00070750000743a0000200000004572000058
:104ef000726f0000723a000020430000616e0000f3
:104f00006e6f000074200000666900006e6400008f
:104f1000206300006f72000072650000637400007f
:104f20002074000079700000652e00000a0d00005a
:104f3000004900004e490000540a00000d00000026
:104f400048430000495f0000434d0000445f0000fb
:104f50005245000053450000543a00002000000074
:104f600048430000495f0000434d0000445f0000db
:104f700052450000414400005f420000445f0000d1
:104f800041440000445200003a2000000048000064
:104f9000434900005f4300004d4400005f4c0000a7
:104fa0004f430000414c00005f4e0000414d0000a7
:104fb000453a00002000000048430000495f00001f
:104fc000434d0000445f0000434c0000415300008b
:104fd000535f00004445000056490000434500006f
:104fe0003a20000000480000434900005f430000f1
:104ff0004d4400005f530000434100004e5f00003d
:10500000454e0000414200004c4500003a2000009f
:1050100000480000434900005f4300004d44000089
:105020005f4900004e5100005549000052590000f0
:105030003a20000000480000434900005f430000a0
:105040004d4400005f430000524500004154000001
:10505000455f0000434f00004e4e000045430000f6
:10506000544900004f4e00003a2000000048000064
:10507000434900005f4300004d4400005f410000d1
:105080004343000045500000545f0000494e0000bb
:10509000434f00004d4900004e4700002e20000005
:1050a000524f00004c4500002043000048410000e2
:1050b0004e470000452000005245000051550000b9
:1050c0004553000054450000443a00002000000011
:1050d00048430000495f0000434d0000445f00006a
:1050e00053430000414e00005f440000495300005c
:1050f000414200004c4500003a200000004c0000f6
:10510000494e00004b5f00004b450000595f000016
:1051100052450000504c0000593a000020000000a9
:105120005343000049440000204300005452000053
:105130004c2000003d200000004c000032430000e5
:10514000415000005f4300004f4e00004e450000fc
:10515000435400005f5200004553000050300000ef
:10516000313a0000200000004c32000043410000b2
:10517000505f0000434f00004e46000049470000ca
:105180005f52000045510000303100003a2000001d
:10519000004c000032430000415000005f4300001b
:1051a0004f4e000046490000475f00005245000096
:1051b00053500000303100003a200000004c000045
:1051c00032430000415000005f440000495300009a
:1051d000434f00004e4e000045430000545f000066
:1051e00053440000505f000052450000513a000057
:1051f000200000004c32000043410000505f0000de
:1052000044490000534300004f4e00004e4500004b
:10521000435400005f52000045530000503000002e
:10522000313a0000200000004c32000043410000f1
:10523000505f0000434f00004e4e00004543000009
:10524000545f00005245000051310000313a000027
:10525000200000004c32000043410000505f00007d
:10526000434f00004e4e000045430000545f0000d5
:105270005245000053500000313100003a20000038
:10528000004c000032430000415000005f4300002a
:105290004f4e000046490000475f000052450000a5
:1052a00051310000313a0000200000004c32000073
:1052b00043410000505f0000434f00004e46000095
:1052c000494700005f520000455300005031000084
:1052d000313a000020000000534300004944000020
:1052e0002044000041540000412000003d20000007
:1052f000004c000032430000415000005f430000ba
:105300004f4e00004e450000435400005f52000025
:105310004553000050310000333a000020000000e7
:105320004c32000043410000505f0000434f00003a
:105330004e460000494700005f5200004551000002
:10534000313300003a200000004c000032430000de
:10535000415000005f4300004f4e000046490000ee
:10536000475f0000524500005350000031330000f9
:105370003a2000000047000045540000204600008d
:105380004541000054550000524500002030000007
:105390007830000032200000285000005334000014
:1053a0005f420000545f0000494e00004954000075
:1053b000293a0000200000004c3200004341000068
:1053c000505f000044490000534300004f4e00006e
:1053d0004e450000435400005f440000415400006b
:1053e000415f000052450000535000003a20000089
:1053f000004c000032430000415000005f440000b8
:1054000049530000434f00004e4e0000454300004a
:10541000545f000043540000524c00005f520000f3
:1054200045530000503a0000200000004c320000bc
:1054300043410000505f0000444900005343000016
:105440004f4e00004e450000435400005f440000f2
:1054500041540000413a0000200000004843000091
:10546000495f000044490000534300004f4e0000d4
:105470004e450000435400003a2000000055000053
:105480006e6b00006e6f0000776e0000204400001d
:10549000656d00006f20000053740000617400000f
:1054a000652e00000a0d000000520000656100003a
:1054b0006420000042610000636b00002041000096
:1054c00044440000522e00000a0d00000057000066
:1054d00061690000746900006e67000020660000ca
:1054e0006f720000207200006561000064200000ff
:1054f000746f0000206300006f6d0000706c00008e
:1055000065740000652e00002e2e00000050000083
:105510006169000072200000436f00006e7400009b
:10552000726f00006c6c0000657200002077000054
:1055300069740000682000006c6100007374000052
:10554000204200006c750000657400006f6f000061
:1055500074680000206400006f6e0000676c00003b
:10556000652e00002e2e00000a0d000000570000de
:1055700061690000746900006e6700002066000029
:105580006f720000207700007269000074650000ef
:10559000207400006f200000636f00006d70000039
:1055a0006c650000746500002e2e00002e000000c7
:1055b000446f00006e6500002e20000000440000d3
:1055c00065760000696300006520000057720000e6
:1055d000697400006520000045720000726f0000d1
:1055e00072200000210d00000a0000005365000039
:1055f0007420000052650000706f0000727400009b
:105600002030000078310000343a000000530000e0
:105610007563000063650000737300002e0a0000cc
:105620000d000000496e000069740000696100000f
:105630006c6900007a650000204300006f6e000076
:10564000747200006f6c00006c650000722e000028
:105650000a0d0000002000002d200000446500001d
:10566000766900006365000020520000656100005b
:105670006420000045720000726f0000722000007c
:10568000210d00000a000000476500006e65000063
:105690007269000063200000646500006d6f000007
:1056a000206400006576000069630000652000004a
:1056b00061740000746100006368000065640000ac
:1056c000202d000020650000766500006e7400004b
:1056d0002c2000006465000076690000636500000e
:1056e000416400006472000065730000733d0000b7
:1056f000000d00000a000000476500006e65000014
:105700007269000063200000646500006d6f000096
:1057100020640000657600006963000065200000d9
:105720006465000074610000636800006564000047
:10573000202d000020650000766500006e740000da
:105740000d0a0000000d00000a2a00002a2a0000ad
:105750002a2a000020550000534200002045000086
:10576000727200006f720000202d0000206800009f
:105770007562000073200000617200006520000067
:105780006e6f0000742000007375000070700000e0
:105790006f72000074650000642000002a2a000077
:1057a0002a2a00002a0d00000a0000000d0a00004d
:1057b0002a2a00002a2a00002a200000555300004f
:1057c0004220000045720000726f0000722000004d
:1057d0002d2000006465000076690000636500000c
:1057e00020690000732000006e6f0000742000002c
:1057f00073750000707000006f7200007465000027
:10580000642000002a2a00002a2a00002a0d000035
:105810000a0000000d0a00002a2a00002a2a0000bf
:105820002a2000005553000042200000457200006d
:10583000726f0000722000002d20000063610000e4
:105840006e6e00006f740000206500006e75000031
:105850006d65000072610000746500002064000046
:105860006576000069630000652000002a2a0000b8
:105870002a2a00002a0d00000a0000000d0a00007c
:105880002a2a00002a2a00002a200000555300007e
:105890004220000045720000726f0000722000007c
:1058a0002d200000636c0000696500006e7400002c
:1058b000206400007269000076650000722000001c
:1058c000696e000069740000696100006c69000085
:1058d0007a610000746900006f6e000020650000ae
:1058e000727200006f720000202a00002a2a000055
:1058f0002a2a00000d0a0000000d00000a2a0000fc
:105900002a2a00002a2a00002055000053420000e5
:1059100020450000727200006f720000202d000010
:10592000206f000075740000206f000066200000ea
:105930006865000061700000206d0000656d00006a
:105940006f720000792000002a2a00002a2a000035
:105950002a0d00000a0000000d0a00002a2a00009b
:105960002a2a00002a20000055530000422000008f
:1059700045720000726f0000722000002d200000b0
:10598000756e0000737000006563000069660000ba
:1059900069650000642000002a2a00002a2a00000d
:1059a0002a0d00000a000000322e00003000000026
:1059b0003a200000436f0000756c00006420000076
:1059c0006e6f000074200000696e000069740000b2
:1059d000696100006c6900007a65000020730000b6
:1059e00079730000746500006d2e00002020000017
:1059f000486100006c740000696e0000672e0000b2
:105a0000000d00000a0d00000a2a000020530000cb
:105a100065720000766f0000536800006f6300003d
:105a20006b2000003220000046690000726d00000b
:105a3000776100007265000020520000657600006a
:105a400020000000202a00000d0a0000003d000098
:105a500050720000657300007320000027450000ad
:105a60007363000027200000696e000020630000bf
:105a70006f6e0000736f00006c6500002074000002
:105a80006f20000064690000737000006c6100000a
:105a90007920000071750000696300006b20000030
:105aa0007265000066650000726500006e630000ac
:105ab000652000006775000069640000653d000016
:105ac0000a0d00000a0d000000200000436f0000d6
:105ad000756c0000642000006e6f000074200000f0
:105ae000696e000069740000696100006c69000063
:105af0007a65000020550000534200002e2000006f
:105b000020480000616c0000746900006e670000ae
:105b10002e000000436900007263000075690000f8
:105b2000742000005465000073740000204d0000d4
:105b30006f640000652e00000a0d000000460000a2
:105b4000697200006d77000061720000652000003e
:105b5000436f0000646500003a200000004400002c
:105b600065660000617500006c7400007320000021
:105b70004c6f000061640000656400002e0a0000a4
:105b80000d00000045450000505200004f4d000040
:105b90002057000072690000746500002045000075
:105ba000727200006f7200003a200000000a0000cc
:105bb0000d45000072610000736900006e6700000f
:105bc0002070000061670000652e00000a0d0000d3
:105bd000004c00006f610000646900006e67000007
:105be000205300006176000065640000205300002f
:105bf00065740000746900006e670000732e000079
:105c0000200a00000d0000004469000073630000da
:105c10006f6e00006e65000063740000696e000026
:105c2000672e00002e2e00000a0d00000049000023
:105c3000646c000065200000546900006d65000080
:105c40006f750000742e00000a0d00000053000064
:105c500074610000636b000045720000726f000009
:105c6000720000004d6100007468000020450000d3
:105c7000727200006f7200000000000053500000bc
:105c80004920000042750000732000004d6f0000a5
:105c900064650000203000000a0d00000053000081
:105ca000504900002042000075730000204d0000a4
:105cb0006f64000065200000310a00000d00000044
:105cc000535000004920000042750000732000007e
:105cd0004d6f000064650000203200000a0d0000d6
:105ce000005300005049000020420000757300007e
:105cf000204d00006f64000065200000330a0000a2
:105d00000d00000045520000524f000052200000dc
:105d1000535000004920000042550000532000006d
:105d20004d4f0000444500000a0d00000000000037
:105d3000496e000069740000203300004420000018
:105d40004d6f000075730000650a00000d00000033
:105d5000496e000069740000205400006872000061
:105d600075730000746d00006173000074650000bd
:105d7000720a00000d0000005465000073740000fa
:105d80002043000061730000653a0000200000001d
:105d90000a0d0000005500006e6b00006e6f0000e1
:105da000776e00002043000061730000650a000068
:105db0000d000000303100003233000034350000a7
:105dc00036370000383900004142000043440000eb
:045dd0004546000044
:020000040000fa
:105dd400881f78000000eb008008880011a1a9004a
:105de40010c1a9000111200091407800f2ccb30049
:105df40082c060000144a0008000fd0010e1b700f3
:105e04008000fd001061a9001021a900300888005d
:105e1400800078000743290066002000854129009e
:105e2400140020000340290082bb200061807b0015
:105e34000608780061807a0004087800618079009f
:105e4400020878008180e800f88f5000f7ff3a00dc
:105e5400a0002000400d8800f0032000900c880072
:105e6400e00c8800300d8800800d8800d00d88007b
:105e7400200e8800700e8800c00e8800100f880065
:105e840011e1a80000a026008101200039ee0700de
:105e940008c42900a80c880000d0270001002000b5
:105ea40034ee0700f80c880000d027000100200021
:105eb40030ee0700480d880000d0270001002000c4
:105ec4002cee0700980d880000d027000100200068
:105ed40028ee0700e80d880000d02700010020000c
:105ee40024ee0700380e880000d0270001002000af
:105ef40020ee0700880e880000d027000100200053
:105f04001cee0700d80e880000d0270001002000f6
:105f140018ee0700280f8800d5c6bf0008ccb300d0
:105f2400084060002041b300d5e6b70092a1a90063
:105f340000a02600810120000eee0700dac6bf0093
:105f4400084060003041b300dae6b7009ca1a90024
:105f540000a026008101200006ee0700d3c6bf0082
:105f6400084060004041b300d3e6b700a6a1a900f1
:105f740000a0260081012000feed0700dbc6bf0063
:105f8400084060005041b300dbe6b700b0a1a900af
:105f940000a0260081012000f6ed0700d2c6bf0054
:105fa400084060006041b300d2e6b700baa1a9007e
:105fb40000a0260081012000eeed0700dcc6bf0032
:105fc400084060007041b300dce6b700c4a1a9003a
:105fd40000a0260081012000e6ed0700cdc6bf0029
:105fe400084060008041b300cde6b700cea1a9000f
:105ff40000a0260081012000deed0700c1c6bf001d
:10600400084060009041b300c1e6b700d8a1a900e0
:1060140000a0260081012000d6ed0700c0c6bf0005
:10602400084060003042b300c0e6b700e2a1a90016
:106034000001eb009208880013a1a90012c1a90075
:1060440012c1bf00f1ccb300014060000044a000c5
:1060540012e1b7001221a9005208880013e1a80038
:106064009500a80070c0b300a860b7004f04780082
:1060740000000600889fbe008a9fbe008c9fbe0061
:10608400800578000006eb000d0120007a60b9005d
:10609400a2972000000441008d0478000005eb0065
:1060a4000b00e0000400320089007800180078003a
:1060b40086ec07000300370009007800d2ea0700e5
:1060c400000c78008904e8000a05e8000884e80068
:1060d400ed0f5500f2ff3a000c06e800ed8646008d
:1060e400ec0f5600e9ff3a008006eb00c368dd00c0
:1060f400a08e200000844000090578004c00200098
:106104000b00e000040032008a00780018007800d8
:106114006eec0700030037000a007800baea0700b3
:10612400000c78008a00e8000c06e9000884e80006
:106134000c00e0000200320001057800f0ff370097
:106144008d06e800e4844400f28f5600e7ff3a002d
:106154000b00e00003003200404780005bec0700c6
:106164000300370001007800a7ea070040478800d1
:106174008a80e8000b00e000030032001046800033
:1061840052ec070003003700010078009eea070084
:1061940010468800e30045000b00e00003003200d5
:1061a4000046800049ec0700030037000100780036
:1061b40095ea070000468800e40045000b00e00073
:1061c40003003200f045800040ec07000300370074
:1061d400010078008cea0700f0458800e5004500de
:1061e4000b00e00003003200e045800037ec0700bc
:1061f400030037000100780083ea0700e0458800c7
:10620400e60045000b00e00003003200d0458000aa
:106214002eec070003003700010078007aea07003b
:10622400d0458800e70045000b00e0000300320081
:106234001040800025ec07000300370001007800bf
:1062440071ea070010408800e80045000b00e000f8
:1062540003003200c04580001cec07000300370037
:106264000100780068ea0700c0458800e90045009d
:106274000b00e00003003200b045800013ec07007f
:1062840003003700010078005fea0700b04588008a
:10629400ea0045000b00e0000300320000408000eb
:1062a4000aec0700030037000100780056ea0700f3
:1062b400004088006b004500852f070080442900ba
:1062c400782f07004f06be004f05be004f04be00e6
:1062d40000000600e0452900722f07000000eb00d3
:1062e40064ff0700804729006e2f3700f04729001c
:1062f4006c2f0700100020005eff070020492900d2
:10630400682f3700a097200000000600a08e200010
:1063140000000600f045800000000600889fbe00d3
:106324008a9fbe008c1f78008005780001067800e3
:106334000005eb00e18f550004003a000c047800de
:106344002a012000290020000a003700e28f5500ae
:1063540006003a000a004500418c2000010040007c
:106364000048eb008040eb00114098000a047800dc
:106374008a0478004340dd000080e800a18e2000fc
:1063840060807800e20f50003800320005003e00c3
:106394000000e00008003200e10f5000bc003a00a9
:1063a40010003700e30f500063003200e40f500088
:1063b400b7003a006a003700052b070008014400c3
:1063c400c184200001014100898044008080400094
:1063d4009181fb00114090004800dd000300700033
:1063e4001e003700fe2a0700898044008080400098
:1063f4001181fb00114090004800dd000200700094
:106404000d00320088004400408c200000814000d0
:106414008001eb009280fb00124090004800dd00f8
:106424000100700001003a001300200003497800c5
:106434004818de001041980008004400c28420007f
:1064440002014000418c2000010040009080fb00cc
:10645400104090004800dd00010070000049780001
:106464004800de001041980089003700dc2a07004c
:1064740089804400808040001181fb00114090001d
:106484004800dd00020070000b00320008014400e7
:1064940081822000810041000040eb00e14870004f
:1064a4008041780090409800c084200000014100a1
:1064b40011497800134198000802440080822000aa
:1064c400800142009380fb00134090004800dd00ef
:1064d40001017000100032004340dd006400400000
:1064e400a18e200060807800800f51000a003e00d9
:1064f400c0842000000042008040eb0061c87000ae
:10650400114098000200e800804978004800de004d
:10651400904198005e00370008014400808220000a
:10652400000041000048eb008040eb00114098005f
:10653400c084200053003700a52a07008980440046
:10654400808040001181fb00114090004800dd0074
:106554000200700044003200880244001d0037002d
:106564009f2a070089804400808040001181fb003d
:10657400114090004800dd00020070000d00320060
:1065840088004400408c2000008140008001eb0022
:106594009280fb00124090004800dd000100700072
:1065a40001003a0013002000034978004818de0077
:1065b4001041980088024400408c20000080420072
:1065c4009080fb00104090004800dd000100700046
:1065d4002500320080822000008042009080fb0071
:1065e400104090004800dd00010270004340dd00cf
:1065f400e6004000a38e200061817900801f7800ae
:10660400110009000282d8004f00780064004000a5
:1066140060807900808f500005003100c084200024
:10662400008042008040eb0061c870000500370024
:1066340008004400c1842000010040000048eb0031
:106644008040eb00114098008800440080822000c4
:10665400808040000400e800804878004800de00a4
:10666400904098000a00370008014400c0842000cc
:10667400000041000048eb008040eb00114098000e
:1066840080822000000141000149780011419800f6
:10669400c340dd00a08e200061027800e10f5200ab
:1066a4000d003a0088004400c084200000814000ae
:1066b4008001eb009280fb00124090004800dd0056
:1066c4000100700001003a00840178000349780059
:1066d4004818de00104198000a05e800f10f550043
:1066e40014ff36008001eb0044802000c5842000a4
:1066f400f80f200003804100040140000500400021
:106704009080fb00104090004800dd000100700004
:10671400084960004800de00104198008301e80049
:10672400f28f5100f3ff3a00040078002c2d07008b
:10673400302e0700104890000048a30006003200e5
:106744002c2e07004060900061006000080060008b
:106754000ce8b7000d68ef00262e070010489000e3
:106764000058a30006003200222e0700406090006b
:106774000000d100610060000ee8b7000f68ef0070
:106784001c2e0700104890000068a3000600320089
:10679400182e0700406090004200de006100600097
:1067a40010e8b7001168ef00122e0700104890009f
:1067b4000004e00006003d000e2e0700406090003b
:1067c4004300de006100600012e8b7001368ef00c8
:1067d400082e0700204890000008a300060032009d
:1067e400042e0700406090004400de006100600059
:1067f4001ce8b7001d68ef00fe2d0700204890003c
:106804000018a30006003200fa2d07004060900033
:106814004500de00610060001ee8b7001f68ef005d
:10682400f42d0700204890000028a3000600320041
:10683400f02d0700406090004600de00610060001b
:1068440020e8b7002168ef00ea2d070020489000f7
:106854000038a30006003200e62d070040609000d7
:106864000080fb004700de0022e8b7002368ef0049
:10687400e02d0700204890000048a30005003200e6
:10688400dc2d0700506090006100600018e8b7003c
:106894001968ef00d72d0700204890000058a30086
:1068a40006003200d32d0700506090000000d10094
:1068b400610060001ae8b7001b68ef00cd2d0700e7
:1068c400204890000068a30006003200c92d07008c
:1068d400506090004200de006100600014e8b700e0
:1068e4001568ef00c32d0700204890000004e00065
:1068f40006003d00bf2d0700506090004300de00fd
:106904006100600016e8b7001768ef00b92d0700b2
:10691400304890000008a30006003200b52d07009f
:10692400506090004400de006100600006e8b7009b
:106934000768ef00af2d0700304890000018a3004f
:1069440006003200ab2d0700506090004500de00c9
:106954006100600008e8b7000968ef00a52d070092
:10696400304890000028a30006003200a12d070043
:10697400506090004600de006100600004e8b7004b
:106984000568ef009b2d0700304890000038a300f5
:1069940006003200972d0700506090000080fb0035
:1069a4004700de000ae8b7000b68ef00912d0700ee
:1069b400304890000048a300050032008d2d0700e8
:1069c400606090006100600026e8b7002768ef006f
:1069d400882d0700304890000058a30006003200bc
:1069e400842d0700606090000000d1006100600009
:1069f40024e8b7002568ef00c180200091407800aa
:106a04008180fb000dc8bf004800dd00010070005c
:106a140002003200dc42a80001003700dc42a90079
:106a2400e1802000914078008180fb000fc8bf0006
:106a34004800dd000100700002003200dc62a800a2
:106a440001003700dc62a900018120009140780038
:106a54008180fb0011c8bf004800dd000100700008
:106a640002003200dc82a80001003700dc82a900a9
:106a740021812000914078008180fb0013c8bf0071
:106a84004800dd000100700002003200dca2a80012
:106a940001003700dca2a900c181200091407800e8
:106aa4008180fb001dc8bf004800dd0001007000ac
:106ab40002003200e402a80001003700e402a90049
:106ac400e1812000914078008180fb001fc8bf0055
:106ad4004800dd000100700002003200e422a8003a
:106ae40001003700e422a9000182200091407800cf
:106af4008180fb0021c8bf004800dd000100700058
:106b040002003200e442a80001003700e442a90078
:106b140021822000914078008180fb0023c8bf00bf
:106b24004800dd000100700002003200e462a800a9
:106b340001003700e462a9008181200091407800bf
:106b44008180fb0019c8bf004800dd00010070000f
:106b540002003200ec02a80001003700ec02a90098
:106b6400a1812000914078008180fb001bc8bf00f8
:106b74004800dd000100700002003200ec22a80091
:106b840001003700ec22a9004181200091407800e7
:106b94008180fb0015c8bf004800dd0001007000c3
:106ba40002003200dcc2a80001003700dcc2a900e8
:106bb40061812000914078008180fb0017c8bf00ec
:106bc4004800dd000100700002003200dce2a80091
:106bd40001003700dce2a9006180200091407800c8
:106be4008180fb0007c8bf004800dd000100700081
:106bf40002003200d5a2a80001003700d5a2a900e6
:106c040081802000914078008180fb0009c8bf008a
:106c14004800dd000100700002003200d5c2a80067
:106c240001003700d5c2a9004180200091407800be
:106c34008180fb0005c8bf004800dd000100700032
:106c440002003200ec62a80001003700ec62a900e7
:106c5400a1802000914078008180fb000bc8bf0018
:106c64004800dd000100700002003200dc22a800b0
:106c740001003700dc22a9006182200091407800e5
:106c84008180fb0027c8bf004800dd0001007000c0
:106c940002003200cc62a80001003700cc62a900d7
:106ca40041822000914078008180fb0025c8bf000c
:106cb4004800dd000100700002003200e482a800f8
:106cc40001003700e482a9004f0678004f05be009a
:106cd4004f04be00000006008f0ab000889fbe006b
:106ce4008a9fbe008c9fbe008e1f78008004eb003c
:106cf4000b8720004a982000bb28070089804400a5
:106d0400808040001181fb00114090004800dd00ac
:106d14000b047800820d700066805400e30f50006d
:106d2400cc003e002a0090000000e00040003a0041
:106d3400e68f540002003200e88f54001a003a0033
:106d44001a0090000000e0000e003a001a007800db
:106d54000000e00004003a00a52807009080fb0032
:106d6400104090000d003700e10f5000b9003a00c8
:106d74009f280700504990000281fb006048900062
:106d84001e003700e10f5000b2003a0098280700b7
:106d9400c04090008180fb00504090004800dd001e
:106da400010c7000ab003700e78f54000200320082
:106db400e98f5400a7003a001a0090000000e00098
:106dc40014003a001a0078000000e00005003a00c0
:106dd40087280700a04090008180fb00304090008d
:106de400eeff3700e10f50009a003a0080280700b8
:106df400704990000281fb00005090004800dd00c3
:106e040002007000620420000280b900000c7800c7
:106e140090003700e10f50008e003a0074280700fc
:106e2400e04090008180fb0070409000dbff370061
:106e3400e10f500087003a00e68f540020003a002a
:106e4400105180000000e00014003a00005180005e
:106e54000000e00005003a0065280700b0509000eb
:106e64008180fb004050900012003700e10f500079
:106e740078003a005e280700006190000281fb0060
:106e8400106090004800dd000200700062042000e1
:106e94000280b900e04388006e003700e10f500023
:106ea4006c003a0052280700f05090008180fb00eb
:106eb400005890004800dd0001007000f5ff370025
:106ec400e78f540020003a00e05180000000e00009
:106ed40014003a00d05180000000e00005003a00a0
:106ee40043280700d05090008180fb006050900040
:106ef40012003700e10f500056003a003c2807000a
:106f0400206190000281fb00306090004800dd00a9
:106f140002007000620420000280b900f04388007f
:106f24004c003700e10f50004a003a0030280700b7
:106f3400905890008180fb00205890004800dd00ac
:106f440001007000f5ff3700e88f540020003a007c
:106f5400b05280000000e00013003a00a05280000c
:106f64000000e00005003a0021280700e0609000de
:106f74008180fb007060900011003700e10f500029
:106f840034003a001a280700307190000281fb0097
:106f9400407090004800dd00020070006204200090
:106fa4000280b90008003700e10f500029003a00c0
:106fb4000f280700a06890008180fb0030689000d3
:106fc4004800dd0001007000004488002100370003
:106fd400e98f54001f003a00805380000000e00055
:106fe40013003a00705380000000e00005003a00ee
:106ff400ff270700806890008180fb0010689000e4
:1070040011003700e10f500012003a00f827070082
:10701400507190000281fb00607090004800dd0018
:1070240002007000620420000280b90008003700ea
:10703400e10f500007003a00ed270700c0689000f8
:107044008180fb00506890004800dd000100700062
:10705400104488008904e8008b85e8007a0545001f
:10706400ec8f540024ff3a00dd270700a040900075
:107074008180fb00304090004800dd00010070007a
:10708400e10f500005003a008000eb00a208e20086
:1070940001003a008000780011458800d0270700dd
:1070a400c04090008180fb00504090004800dd000b
:1070b40001007000e10f500005003a008000eb0071
:1070c400a008e20001003a00800078000145880031
:1070d40010408000e10f5000050036000000400021
:1070e4006400400001872000b243800002b07800b1
:1070f40003992000e3a79f000007eb000c87200002
:10710400eb982000c4e42000d4a79f004d00200089
:1071140085882000c5a79f004a982000baa79f0031
:1071240064845600efa4970011002000998f10008a
:107134000e003a00a6270700806090008180fb00c3
:10714400106090004800dd0001007000070032006c
:10715400a3270700a04090008180fb0030409000ee
:107164004800dd000100700011003a0022002000f8
:10717400990f110019003a009527070080609000cc
:107184008180fb00106090004800dd000100700069
:107194001200320092270700c04090008180fb005b
:1071a400504090004800dd00010070000b003200e8
:1071b400dfa197001300be00420620000300200058
:1071c400e2e407000001be00a00598008d007800ed
:1071d400020078003de80700340037003fa597001f
:1071e400150020009a8f12001f003a00998f120098
:1071f40007003a007a270700a04090008180fb0036
:10720400304090004800dd00010070000d003a009d
:10721400100020009a0f100013003a0021002000f3
:10722400998f100010003a006d270700c0409000ad
:107234008180fb00504090004800dd000100700098
:10724400090032000d0078006fe607008000780026
:10725400a0059800400620000008b8005fa1970030
:107264000089be00110037001a00e0000d003a004a
:1072740019007800e20f500002003a000045800037
:1072840003003700e10f500006003a00104580006b
:10729400e10f500003003a00cfa19700130e7800cd
:1072a400020037004fa297001c0a7800f02907005b
:1072b400e30f500003003200e40f5000ca003a000c
:1072c40032003700e70f54006a00320005003e0028
:1072d400e40f54002a003900e50f54000900360079
:1072e40054003700e90f5400840032007100390063
:1072f400ea0f54000b003200eb0f540020003a0058
:10730400150037009c0278009b805200440037002f
:107314005051800080805000cf0037002052800000
:10732400fcff3700ecc2bf000008a30003003200da
:10733400ecc2bf000018a30088003200ecc2bf00fa
:107344000008a30090003a00ecc2bf000018a3009c
:107354008a003a008c003700d5c2bf000058a30051
:1073640003003200d5c2bf000068a3008e003200c3
:10737400d5c2bf000058a30096003a008f00370022
:107384001c0578009b005500b3003700e70f54003c
:107394003800320006003e00e50f540011003200b0
:1073a40024003e00e40f54008c003a00080037002b
:1073b400e90f5400510032003e003900ea0f540036
:1073c40060003200eb0f540084003a007000370074
:1073d400b04f80007808b50001f82f00810040000c
:1073e4009d003700dcc2bf000068a3000500320026
:1073f400dc42e20003003500f107200080508000e9
:10740400c4ff3700dcc2bf000068a30007003a00d5
:10741400dc42e20005003d00100aee008000780026
:1074240000f82f00808040008b00370081508000de
:1074340089003700dcc2bf000058a30004003200fa
:10744400dcc2bf00f10720000038a300b0ff320007
:10745400dcc2bf000058a30004003a00dcc2bf0035
:1074640001f82f000038a300a9ff3a005151800011
:1074740079003700dcc2bf000028a30004003200fa
:10748400dcc2bf00f10720000048a300a3ff3200c4
:10749400dcc2bf000028a30004003a00dcc2bf0025
:1074a40001f82f000048a3009cff3a0021528000fd
:1074b40069003700e4c2bf000038a30004003200b2
:1074c400e4c2bf00f10720000018a3000700320047
:1074d400e4c2bf000038a30006003a00e4c2bf00c3
:1074e4000018a3000300320001f82f00f0528000be
:1074f40088ff3700f152800057003700e4c2bf0014
:107504000008a30004003200e4c2bf00f107200019
:107514000028a30007003200e4c2bf000008a30053
:1075240006003a00e4c2bf000028a30003003200b2
:1075340001f82f00c053800076ff3700c15380004c
:1075440045003700ecc2bf000008a300050032006c
:10755400d5c2bf000058a30002003a00f107200082
:1075640007003700ecc2bf000008a30006003a0081
:10757400d5c2bf000058a3000300320001f82f0059
:107584009054800063ff370091548000320037002c
:10759400ecc2bf000018a30005003200d5c2bf0032
:1075a4000068a30002003a00f1072000070037003a
:1075b400ecc2bf000018a30006003a00d5c2bf0009
:1075c4000068a3000300320001f82f00605580001a
:1075d40050ff3700615580001f0037001c01780000
:1075e4009b0051001c003700e40f540018003900c0
:1075f400e50f540003003600e90f540014003e0068
:107604000d00370040478000e10f500007003a00aa
:10761400c04380007a08b500220020001100090050
:107624000200d8008000fd000b0037009c017800a8
:107634009b8051007aff37001c0078002200200054
:10764400110009000200d8009b005000020037001e
:107654001c0278009b00520015408000a5a79f00e3
:10766400e18f5200050036000580e800800f5400c9
:1076740002003a00e04e80009c0010000b027800eb
:107684000bb99700828f50000200340082815000b1
:10769400050037000200ea008001eb00808f5000f3
:1076a40001003d008281400014b997000299b9009d
:1076b40074b897006a00b900cf80de000201400070
:1076c4008381480048f92f00088447000e004400d5
:1076d4000288be004af62f000a8247000e004200cc
:1076e4000288be006fa097007a004000e0a79f00c8
:1076f400640747000c86e800fa854500dfa0970080
:10770400e4804000d1a79f008d06e8004fa19700b8
:107714000281e800c2a79f00bfa19700fa8141003f
:10772400b3a79f0000032000800f57007cfe3a009f
:10773400e545800085b79f00da458000baaf9f0019
:107744000f3897009f3897006f339700ff339700e7
:107754000001430081814b00f2a79f0083af9f008b
:10776400060050008780580090af9f00a1af9f0093
:107774004f309700df3097001401be000002410033
:1077840081824900c4af9f00d5af9f00020550001d
:1077940083855800eaaf9f00fbaf9f0000024300bf
:1077a40081824b000205520083855a009ab79f00dc
:1077b400abb79f000402410085824900b4b79f0023
:1077c400c5b79f00060050008780580000024100a2
:1077d40081824900d4b79f00e5b79f0002005000a2
:1077e40083805800f0b79f0081bf9f008005eb00a5
:1077f400cee4200088067800ac972000afa2970062
:107804000500e0001c003200e18f55000b0032003f
:1078140005003900e28f55000d003200e38f55005a
:1078240037003a000f0037007fb097008fb89700f9
:10783400a08f9f00b18f9f00310037005fb1970088
:10784400efb19700c28f9f00d38f9f002c003700a9
:107854003fb29700cfb29700e48f9f00f58f9f004f
:10786400270037001fb09700afb0970080979f00a4
:1078740091979f00220037008fb09700e18f50004e
:107884000e003a000b00e00003003200e18f5500c7
:107894000a003a00050037006fa99700ffa9970076
:1078a400a28f9f00b38f9f00040037004faa970058
:1078b400dfaa9700c48f9f00d58f9f00bfaa9700af
:1078c400e18f52000e003a00e28f550003003200af
