:020000040000fa
:080000000002040000000000f2
:020000040000fa
:100400000f7223000e7f24000e0188000000000000
:100410000c00070000a820000100200011000700c8
:10042000000020000000e000020032000000020096
:1004300000000000147c0200000000000040da0010
:100440000000fe004440a90000c421000000e000bc
:100450000300320000002000a00188004440a800f2
:100460000000060091018800800078000000eb0089
:1004700015003700e280400032a0b4009101ba00bc
:10048000e280400032a0b4009102ba00e280400055
:1004900032a0b4000002eb00472bde00f507b200eb
:1004a000602ce10004003a000059eb008301e900f0
:1004b000fdff3e00040037006128e100010032002a
:1004c0000082eb00040007001101ba000200e00006
:1004d000e8ff3a00000006003159ba008301e90044
:1004e0000c0032002159ba008301e90008003200f3
:1004f0000400e00003003a00e280400032a0b400b3
:10050000f5ff370011d9ba008301e900faff3a007c
:100510008100e800e180400032a0b4000000060045
:1005200000000000000000000000000000000000cb
:1005300000000000000000000000000000000000bb
:1005400000000000000000000040da000000fe0093
:10055000839f68000100e00002003d006000100081
:10056000e08018000300e00002003d00600111007f
:10057000e0811900050007004f00e00002003b0089
:1005800060001000e0801800000006006022b80043
:10059000060220000000d0008180d2000482d20038
:1005a0008582d2000000a0000202520083825a001d
:1005b000030031000202420083824a000000a100d1
:1005c0000603e900f3ff3a0000000600020ab90042
:1005d000001bb9000200b800810042008100430006
:1005e00000000600800178000001780031407800aa
:1005f000005978000004e000fcff3a000300780096
:1006000000000600889fbe008a9fbe008c9fbe002f
:100610000001780061ef20001100e0000b003a00bb
:10062000a0ef2000b077880090778800d17788000d
:10063000a1778800214090000004a000a04098000d
:10064000614090000004a000e0409800e7004100f5
:10065000c208de00c20cdd00a47780000d0121007d
:10066000007223000d05500022002000811f780039
:10067000110009000205d80000067800cf007800bc
:10068000c308dd00e48540008001eb000601210085
:1006900065ef20000100370001027800244090003f
:1006a0000008a300020032000a003700110a780097
:1006b00094007800214090000008a300fbff320066
:1006c00009014200828f500002003900840f51005e
:1006d0004600310094007800848f5000eeff3e0009
:1006e000868f500002003900858f5000eaff3900e4
:1006f00090778000800f52004f003a00858f5000a5
:100700004d003a008301e800e18f5100e2ff36001e
:100710008c8f5400040036008a8f54000200310090
:100720000b04780012003700614ab8006151b9002b
:10073000b0ff2f000100200002005000838058000d
:10074000800f5200818f5a000200350009047800a2
:10075000070037000d805400327223000200400071
:10076000110009000a80d8000a80b900000478004e
:10077000080078006f00070080017800e10f40005a
:100780002d00320090778000030878009277800077
:1007900064004100a2409000808f510002003200ae
:1007a0000104a000010037000104a10021419800cc
:1007b000088041006400500080097800907788002c
:1007c00062ef2000020878009177800021409000bd
:1007d0000004a000a0409800234090000004a10065
:1007e000a041980002027800a7ff3700a277880096
:1007f000828f5000090036009200780000ef200040
:10080000a2419000034878007177880014097800ad
:100810008040eb00a077800021409800a077800006
:10082000000a7800244090000004a00020429800b4
:1008300064004200010037000000eb004f06be00dc
:100840004f05be004f04be000000060064005000cb
:10085000a0778800a04090000104a10021409800ea
:1008600000000600889fbe008a9fbe000005780039
:10087000e401500013001000c285de002340900008
:100880000008a30004003200a377880023409000f2
:100890000004a100a04198000100780059ff070062
:1008a000000478000000e000170032008a0f5000ba
:1008b0001500320060b8970008005000c284de00c6
:1008c000898f550001003600890578004259dd0006
:1008d0008a007800080078000f0007008a0f540093
:1008e000090031004248dd00000044008a0f50003a
:1008f000050036000a0050000000440072778000b6
:10090000837780000288be00080078004f05be0093
:100910004f04be00000006008001eb00020037001b
:1009200061f079008301e800828f5100fcff3a00fa
:1009300000000600889fbe0080047800f0778000e9
:100940000000e00003003a00100007000000e00093
:100950000a003500f07780000900e00002003a004c
:100960000004780006003700000478000900400009
:10097000060007000000e00001003d000084eb00dd
:10098000080078004f04be000000060080007800d8
:100990000000e00004003a0000012100f077880028
:1009a00001017800060037000081eb00007223008f
:1009b000808f500002003e00f17788000001eb00bc
:0809c0000200780000000600af
:020000040000fa
:020000040001f9
:0457f800fe4300006c
:020000040000fa
:020000040001f9
:0457fc007f3e0000ec
:020000040000fa
:10000800a4020000a4020000567f00007a7f0000ce
:100018009e7f0000a4020000a4020000a4020000c9
:10002800a4020000a4020000a4020000a402000030
:10003800a4020000a4020000a4020000a402000020
:1000480010410000a4020000b87e0000a4020000d5
:10005800a4020000a4020000a4020000a402000000
:10006800a4020000a4020000a4020000a4020000f0
:100078001e7f0000a4020000a4020000a4020000e9
:10008800a4020000a4020000a40200004e7e0000aa
:10009800a4020000a4020000a4020000a4020000c0
:1000a800a4020000a4020000a4020000a4020000b0
:1000b800a4020000a4020000a4020000a4020000a0
:1000c800a4020000a4020000a4020000a402000090
:1000d800a4020000a4020000a4020000a402000080
:1000e800a4020000a4020000a4020000a402000070
:1000f800a4020000a4020000a4020000a402000060
:10010800a4020000a4020000a4020000a40200004f
:10011800a4020000a4020000a4020000a40200003f
:10012800a4020000a4020000a4020000a40200002f
:10013800a4020000a4020000a4020000a40200001f
:10014800a4020000a4020000a4020000a40200000f
:10015800a4020000a4020000a4020000a4020000ff
:10016800a4020000a4020000a4020000a4020000ef
:10017800a4020000a4020000ca650000a402000056
:10018800a4020000a4020000a4020000a4020000cf
:10019800a4020000a4020000a4020000a4020000bf
:1001a800a4020000a4020000a4020000a4020000af
:1001b800a4020000a4020000a4020000a40200009f
:1001c800a4020000a4020000a4020000a40200008f
:1001d800a4020000a4020000a4020000a40200007f
:1001e800a4020000a4020000a4020000a40200006f
:0801f800a4020000a4020000b3
:020000040000fa
:10020800a4020000a4020000567f00007a7f0000cc
:100218009e7f0000a4020000a4020000a4020000c7
:10022800a4020000a4020000a4020000a40200002e
:10023800a4020000a4020000a4020000a40200001e
:1002480010410000a4020000b87e0000a4020000d3
:10025800a4020000a4020000a4020000a4020000fe
:10026800a4020000a4020000a4020000a4020000ee
:100278001e7f0000a4020000a4020000a4020000e7
:10028800a4020000a4020000a40200004e7e0000a8
:10029800a4020000a4020000a4020000a4020000be
:1002a800a4020000a4020000a4020000a4020000ae
:1002b800a4020000a4020000a4020000a40200009e
:1002c800a4020000a4020000a4020000a40200008e
:1002d800a4020000a4020000a4020000a40200007e
:1002e800a4020000a4020000a4020000a40200006e
:1002f800a4020000a4020000a4020000a40200005e
:10030800a4020000a4020000a4020000a40200004d
:10031800a4020000a4020000a4020000a40200003d
:10032800a4020000a4020000a4020000a40200002d
:10033800a4020000a4020000a4020000a40200001d
:10034800a4020000a4020000a4020000a40200000d
:10035800a4020000a4020000a4020000a4020000fd
:10036800a4020000a4020000a4020000a4020000ed
:10037800a4020000a4020000ca650000a402000054
:10038800a4020000a4020000a4020000a4020000cd
:10039800a4020000a4020000a4020000a4020000bd
:1003a800a4020000a4020000a4020000a4020000ad
:1003b800a4020000a4020000a4020000a40200009d
:1003c800a4020000a4020000a4020000a40200008d
:1003d800a4020000a4020000a4020000a40200007d
:1003e800a4020000a4020000a4020000a40200006d
:0803f800a4020000a4020000b1
:020000040000fa
:1028000096010000a0010000aa010000b401000030
:10281000be010000c8010000d2010000dc01000080
:10282000e6010000aa0a0000a40a00009e0a0000b7
:10283000940100009e010000a8010000b201000008
:10284000bc010000c6010000d0010000da01000058
:10285000e4010000a80a0000a20a00009c0a00008f
:10286000900100009a010000a4010000ae010000e8
:10287000b8010000c2010000cc010000d601000038
:10288000e0010000a60a0000a00a00009a0a000069
:102890002045000045500000524f00004d20000030
:1028a000776f0000726400007320000075730000f1
:1028b000656400002e0a00000d0000004c6f00004f
:1028c00061640000696e0000672000007361000011
:1028d00076650000642000007365000074740000d9
:1028e000696e0000677300002e2e00002e0a0000a3
:1028f0000d000000446f00006e6500000a0d00002e
:102900000053000061760000696e0000672000003f
:102910005365000074740000696e00006773000066
:102920002e2e00002e000000446f00006e65000097
:102930002e0a00000d0000002a2a00002a52000082
:102940006573000065740000204f0000757400007e
:1029500070750000747300002e2a00002a2a0000ff
:102960000a0d0000004c00002d53000074690000a7
:10297000636b0000205800002d61000078690000a2
:10298000730000004c2d00005374000069630000c8
:102990006b200000592d0000617800006973000071
:1029a000005200002d53000074690000636b0000aa
:1029b000205800002d6100007869000073000000bd
:1029c000522d000053740000696300006b2000006a
:1029d000592d00006178000069730000004c000070
:1029e0002d5400007269000067200000616e000035
:1029f000616c00006f670000005200002d54000061
:102a00007269000067200000616e0000616c0000c8
:102a10006f670000005400006f75000063680000dd
:102a200070610000642000004c65000066740000c6
:102a300020200000582d000061780000697300001c
:102a4000005400006f7500006368000070610000b2
:102a5000642000004c650000667400002020000027
:102a6000592d0000617800006973000000540000d7
:102a70006f75000063680000706100006420000052
:102a8000526900006768000074200000582d0000a3
:102a90006178000069730000005400006f75000049
:102aa000636800007061000064200000526900004b
:102ab0006768000074200000592d00006178000054
:102ac00069730000005800002d540000696c00007c
:102ad00074000000592d0000546900006c7400005f
:102ae0000053000068610000726500002062000071
:102af00075740000746f00006e0000004c2d000023
:102b000053740000696300006b20000062750000d0
:102b1000747400006f6e0000005200002d5300001e
:102b200074690000636b000020620000757400008f
:102b3000746f00006e0000004f70000074690000a8
:102b40006f6e000073200000627500007474000056
:102b50006f6e0000004400002d5000006164000012
:102b60002055000070000000442d0000506100005e
:102b700064200000526900006768000074000000d3
:102b8000442d00005061000064200000446f0000ec
:102b9000776e0000004400002d50000061640000ca
:102ba000204c000065660000740000004c2d000001
:102bb0005472000069670000206200007574000014
:102bc000746f00006e000000522d0000547200006f
:102bd000696700002062000075740000746f0000d7
:102be0006e0000004c2d0000427500006d7000006a
:102bf00065720000005200002d420000756d00005b
:102c000070650000720000005472000069610000ed
:102c10006e6700006c6500002062000075740000a3
:102c2000746f00006e0000004369000072630000d2
:102c30006c6500002062000075740000746f000075
:102c40006e000000437200006f73000073200000ec
:102c500062750000747400006f6e00000053000085
:102c6000717500006172000065200000627500004f
:102c7000747400006f6e00000050000053200000cc
:102c800062750000747400006f6e00000054000054
:102c90006f75000063680000706100006420000030
:102ca00062750000747400006f6e00000000000088
:102cb000b3940000c2940000d1940000e09400009e
:102cc000ef940000fd9400000b950000219500009a
:102cd000379500004d950000639500006a9500004f
:102ce000719500007e9500008d9500009c95000078
:102cf000ab950000b4950000c0950000cb95000096
:102d0000d6950000e4950000f2950000fb950000c8
:102d10000496000014960000229600002f960000f2
:102d20003d9600004796000045720000726f00005b
:102d3000723a0000204900006e64000065780000cf
:102d4000206f000075740000206f000066200000f6
:102d5000726100006e670000652e0000200a00000e
:102d60000d00000043680000616e00006e65000009
:102d70006c200000000a00000d0000004c6f0000f5
:102d800061640000696e0000672000006465000057
:102d900066610000756c000074200000736500001f
:102da00074740000696e0000677300002066000004
:102db0006f720000200000004c6f00006164000092
:102dc000696e000067200000616c00006c2000004c
:102dd0006465000066610000756c000074200000ee
:102de0007365000074740000696e00006773000072
:102df0002e2e00002e00000045450000505200001d
:102e00004f4d0000207700007269000074650000db
:102e100020650000727200006f7200003a2000000e
:102e2000003d00003d3d0000456e0000746500005f
:102e3000726900006e670000204300006f6e0000a2
:102e400066690000672000004d6f000064650000a7
:102e50003a0a00000d0a00000d2a0000507200001e
:102e600065730000732000002745000073630000b5
:102e700027200000746f00002064000069730000c8
:102e8000706c000061790000206300006f6e00002c
:102e90006669000067200000677500006964000033
:102ea000653d00003d3d00000a0d00000a0d0000d8
:102eb0000045000078690000746900006e6700003a
:102ec000204300006f6e000066690000672000006c
:102ed0004d6f0000646500002e0a00000d00000028
:102ee000535000004920000042750000732000008c
:102ef0004d6f000064650000203000000a0d0000e6
:102f0000005300005049000020420000757300008b
:102f1000204d00006f64000065200000310a0000b1
:102f20000d000000535000004920000042750000d1
:102f3000732000004d6f0000646500002032000027
:102f40000a0d00000053000050490000204200001c
:102f500075730000204d00006f64000065200000c4
:102f6000330a00000d00000045520000524f0000df
:102f7000522000005350000049200000425500003c
:102f8000532000004d4f0000444500000a0d000092
:102f900000490000646c00006520000061750000bd
:102fa000746f00002d6f0000666600002073000043
:102fb00065740000207400006f20000031300000b4
:102fc000206d0000696e00002e0a00000d00000058
:102fd000496400006c650000206100007574000009
:102fe0006f2d00006f66000066200000646900001d
:102ff00073610000626c0000656400002e0a00002e
:103000000d000000546f0000676700006c65000051
:10301000642000006f75000074700000757400007b
:1030200073200000726500007365000074200000ca
:103030006f6e00002064000069730000636f000081
:103040006e6e000065630000742e00000a0d000023
:10305000005400006f670000676c000065640000aa
:10306000206f00007574000070750000747300001c
:103070002070000072650000736500007276000029
:1030800065640000206f00006e200000646900008d
:10309000736300006f6e00006e65000063740000d3
:1030a0002e0a00000d0000004c45000044200000e6
:1030b0004272000069670000687400006e650000dd
:1030c000737300003a200000004c000045440000eb
:1030d000204300006f6c00006f720000205300005e
:1030e00065740000746900006e6700003a200000fb
:1030f000004200006c750000650000005265000091
:10310000640000004f720000616e000067650000ff
:1031100000590000656c00006c6f00007700000033
:103120004c6900006d6500000047000072650000fa
:10313000656e00000054000075720000717500009b
:103140006f69000073650000005000007572000098
:10315000706c000065000000506900006e6b00009c
:10316000005700006869000074650000004100001d
:1031700044430000004200006174000074650000d8
:103180007279000000450000727200006f7200004a
:1031900000500000504d0000204f000075740000ea
:1031a00070750000742000004d6f00006465000021
:1031b000203d00002000000054720000696d0000f6
:1031c000203d000020000000546f000075630000e7
:1031d0006870000061640000204d00006f64000012
:1031e000652000003d200000566900007274000058
:1031f000756100006c2000004a6f000079730000c8
:1032000074690000636b00000a0d000000540000a8
:103210006f750000636800007061000064200000aa
:103220004d6f000064650000203d00002054000048
:103230006f7500006368000070610000640a0000a0
:103240000d000000546f00007563000068700000fe
:103250006164000020530000706c0000697400007d
:10326000203d0000204f00006e0a00000d0000000d
:10327000546f000075630000687000006164000016
:1032800020530000706c000069740000203d0000b5
:10329000204f0000666600000a0d00000053000089
:1032a00065720000766f00002f4d00006f74000003
:1032b0006f720000204600006f720000776100000e
:1032c000726400002e0a00000d000000536500002b
:1032d000727600006f2f00004d6f0000746f0000c9
:1032e00072200000526500007665000072730000d5
:1032f000652e00000a0d0000005000006f730000f2
:1033000069740000696f00006e200000696e0000a3
:1033100070750000742000006d6f0000646500008f
:103320002e0a00000d000000496e000063720000cc
:10333000656d0000656e0000746100006c20000087
:10334000696e000070750000742000006d6f000051
:10335000646500002e0a00000d00000053650000a7
:10336000727600006f2000006e6f00007420000075
:10337000726500006d6100007070000065640000ff
:103380002e0a00000d000000536500007276000058
:103390006f200000726500006d6100007070000019
:1033a00065640000207400006f200000442d0000c0
:1033b00070610000642000006c650000667400000d
:1033c0002f72000069670000687400002e0a000078
:1033d0000d00000053650000727600006f200000b1
:1033e000726500006d61000070700000656400008f
:1033f000207400006f200000442d00007061000068
:1034000064200000757000002f6400006f770000da
:103410006e2e00000a0d00000053000065720000cf
:10342000766f000020720000656d00006170000082
:103430007065000064200000746f000020730000bd
:103440007175000061720000652f00006369000063
:10345000726300006c6500002e0a00000d00000081
:1034600053650000727600006f2000007265000056
:103470006d61000070700000656400002074000041
:103480006f200000442d00007061000064200000e7
:1034900074720000696100006e6700006c650000d6
:1034a0002f630000726f0000737300002e0a00008b
:1034b0000d00000053650000727600006f200000d0
:1034c000726500006d6100007070000065640000ae
:1034d000207400006f200000442d00007061000087
:1034e000642000006c650000667400002f7200000c
:1034f000696700006874000020620000756d0000bc
:1035000070650000727300002e0a00000d000000bc
:1035100053650000727600006f20000072650000a5
:103520006d61000070700000656400002074000090
:103530006f2000006c650000667400002f720000b0
:103540006967000068740000206a00006f7900005d
:1035500073740000696300006b2000007075000048
:103560007368000062750000747400006f6e0000e4
:10357000732e00000a0d0000005300006572000069
:10358000766f000020720000656d00006170000021
:103590007065000064200000746f0000207300005c
:1035a00068610000726500002f6f000070740000f9
:1035b000696f00006e7300002e0a00000d0000000d
:1035c00045720000726f0000722e00000a0d0000ac
:1035d0000054000072690000676700006572000017
:1035e000204c0000696e00006b2000004f6e000050
:1035f0002e0a00000d0000005472000069670000f0
:1036000067650000722000004c6900006e6b0000ce
:10361000204f0000666600002e0a00000d0000002a
:103620004c650000667400002053000074690000bf
:10363000636b0000204400006966000066650000be
:10364000726500006e740000696100006c2000006b
:103650004d690000782000004f6e00002e0a000027
:103660000d0000004c65000066740000205300004f
:1036700074690000636b000020440000696600006c
:1036800066650000726500006e74000069610000ec
:103690006c2000004d690000782000004f6600009b
:1036a000662e00000a0d000000520000696700004d
:1036b000687400002053000074690000636b000010
:1036c0002044000069660000666500007265000025
:1036d0006e740000696100006c2000004d690000fc
:1036e000782000004f6e00002e0a00000d00000040
:1036f00052690000676800007420000053740000e5
:10370000696300006b2000004469000066660000e9
:1037100065720000656e000074690000616c000055
:10372000204d000069780000204f00006666000010
:103730002e0a00000d0000004d65000063610000ce
:103740006e7500006d200000537400006565000078
:10375000726900006e670000204d0000697800006b
:10376000204f0000666600002e0a00000d000000d9
:103770004d650000636100006e7500006d20000063
:103780005374000065650000726900006e670000f8
:10379000204d000069780000204f00006e2e0000d0
:1037a0000a0d0000004d000065630000616e00001e
:1037b000756d000020530000746500006572000004
:1037c000696e0000672000004d690000782000004d
:1037d0004f6e00002c200000726500006d6100003b
:1037e000702000007269000067680000742000000b
:1037f00073740000696300006b200000792d0000e5
:103800006178000069730000207400006f200000e0
:103810000053000074690000636b00002048000042
:103820006f6c0000642f00005265000063610000af
:103830006c6c00002064000069730000616200008d
:103840006c650000642e00000a0d000000530000ab
:1038500074690000636b0000204800006f6c00007a
:10386000642f000052650000636100006c6c000072
:10387000207400006965000064200000746f00007f
:10388000204c00002d53000074690000636b0000a1
:103890002042000075740000746f00006e2e00005e
:1038a0000a0d00000053000074690000636b000003
:1038b000204800006f6c0000642f0000526500007b
:1038c000636100006c6c00002074000069650000fa
:1038d00064200000746f0000205200002d5300008f
:1038e00074690000636b00002042000075740000e2
:1038f000746f00006e2e00000a0d000000520000e0
:10390000616e000067650000204f000066660000e1
:1039100073650000742000003d200000005200008c
:10392000616e000067650000203d0000200000007f
:103930004465000061640000626100006e64000084
:10394000203d000020000000536500006e73000061
:103950006974000069760000697400007920000035
:103960003d200000004800006f6d00006520000051
:10397000506f000073690000746900006f6e0000f2
:10398000203d000020000000436100006c69000041
:103990006272000061740000696e00006720000020
:1039a000416c00006c200000486f00006d65000055
:1039b000205000006f73000069740000696f000000
:1039c0006e7300002e2e00002e0000004f750000c8
:1039d0007470000075740000204900006e760000cd
:1039e0006572000074650000642e00000a0d00007e
:1039f000004f000075740000707500007420000016
:103a00004e6f0000726d0000616c00002e0a000015
:103a10000d0000004f750000747000007574000008
:103a2000205400006f670000676c0000652e0000e6
:103a30000a0d0000004f0000757400007075000052
:103a400074200000536900006e6700006c65000080
:103a500020530000686f0000742e00000a0d000063
:103a6000004f0000757400007075000074200000a5
:103a700041750000746f0000666900007265000007
:103a80002e0a00000d0000004f7500007470000049
:103a900075740000205400006f670000676c000020
:103aa0006520000041750000746f00006669000029
:103ab000726500002e0a00000d0000004f75000026
:103ac00074700000757400002050000075730000d1
:103ad0006862000075740000746f00006e2e0000b4
:103ae0000a0d000000450000525200004f52000035
:103af000204f000055540000505500005420000095
:103b00004d4f0000444500002e0a00000d0000004b
:103b1000507500006c730000655700006964000078
:103b200074680000203d00002000000030200000ec
:103b30006d7300000a0d0000004100007574000064
:103b40006f6600006972000065200000506500008b
:103b5000726900006f640000203d0000200000003a
:103b60000a0d00003d3d00003d470000656e00006d
:103b700065720000616c0000205300006574000055
:103b8000746900006e670000733d00003d3d000059
:103b90000a0d0000004500006e7400006572000010
:103ba000206300006f6e000066690000672000005f
:103bb0006d6f0000646500003a200000486f00004f
:103bc0006c6400002050000053200000427500008b
:103bd000747400006f6e0000202b00002053000062
:103be000686100007265000020330000207300004f
:103bf000656300006f6e0000647300000a0d000032
:103c0000005300006176000065200000616e000036
:103c10006420000065780000697400003a2000000c
:103c2000486f00006c640000204f000070740000ba
:103c3000696f00006e7300000a0d0000004c000068
:103c40006f61000064200000646500006661000090
:103c5000756c0000747300003a200000486f00008b
:103c60006c64000020530000686100007265000071
:103c70002031000020730000656300006f6e0000bb
:103c80006420000028630000757200007265000067
:103c90006e74000020630000686100006e6e00001a
:103ca000656c0000292f00003320000073650000c0
:103cb000636f00006e640000732000002861000044
:103cc0006c6c000020630000686100006e6e0000f4
:103cd000656c0000732900000a0d0000004300001d
:103ce000796300006c650000207400006f20000004
:103cf0006e650000787400002f700000726500008f
:103d0000766900006f750000732000006368000092
:103d1000616e00006e6500006c2000003a2000001b
:103d2000522f00004c200000427500006d70000012
:103d3000657200000a0d0000004300007963000076
:103d40006c65000020530000504900002062000014
:103d500075730000206d00006f6400006573000043
:103d60003a200000522d00005374000069630000e7
:103d70006b2000002b2000005472000069610000dd
:103d80006e6700006c6500000a0d00000045000031
:103d90006e610000626c0000652f00004469000045
:103da00073610000626c000065200000696400001f
:103db0006c65000020610000757400006f2d00002c
:103dc00064690000736300006f6e00006e650000a0
:103dd000637400003a200000522d0000537400006c
:103de000696300006b2000002b200000437200007c
:103df0006f730000730d00000a0000005072000095
:103e00006573000065720000766500002f520000a7
:103e10006573000065740000206f00007574000079
:103e20007075000074730000206f00006e200000a9
:103e3000636f00006e740000726f00006c6c000015
:103e4000657200002064000069730000636f000069
:103e50006e6e000065630000743a0000205200009e
:103e60002d53000074690000636b0000202b0000dc
:103e700020500000532000004275000074740000c0
:103e80006f6e00000a0d0000004300006861000032
:103e90006e670000652000006c6900006768000024
:103ea000746200006172000020620000726900000c
:103eb00067680000746e000065730000733a0000cc
:103ec000204c00002d53000074690000636b00005b
:103ed000202b0000204400002d50000061640000f1
:103ee000204c000065660000742f0000526900003d
:103ef00067680000740a00000d00000043680000bd
:103f0000616e000067650000206c000069670000ba
:103f1000687400006261000072200000636f00009e
:103f20006c6f0000723a0000204c00002d5300001e
:103f300074690000636b0000202b00002053000018
:103f400068610000726500000a0d00000054000066
:103f50006f670000676c000065200000524300009e
:103f600020500000504d0000204d00006f64000004
:103f7000652000006f6e00002063000068310000c3
:103f8000313a0000204c00002d53000074690000fd
:103f9000636b0000202b0000204f000070740000b5
:103fa000696f00006e7300000a0d0000000a000037
:103fb0000d3d00003d3d000053650000727600009d
:103fc0006f200000416400006a75000073740000f7
:103fd0006d6500006e740000733d00003d3d000003
:103fe0000a0d0000005400006f670000676c0000bd
:103ff0006520000061620000736f00006c750000b6
:1040000074650000207000006f7300006974000088
:10401000696f00006e2f0000696e0000637200007f
:10402000656d0000656e0000746100006c2000008a
:104030006d6f0000646500003a200000522d000002
:1040400053740000696300006b2000002b20000007
:10405000522d0000427500006d7000006572000076
:104060000a0d0000004900006e7600006572000035
:104070007420000064690000726500006374000031
:10408000696f00006e3a0000205200002d530000be
:1040900074690000636b0000202b0000204c0000be
:1040a0002d420000756d000070650000720a00006e
:1040b0000d000000536500006e730000697400007d
:1040c0006976000069740000793a0000205400000d
:1040d00072690000616e0000676c0000652f0000cf
:1040e000437200006f730000730a00000d000000af
:1040f0004465000061640000626100006e640000bd
:104100003a200000537100007561000072650000e4
:104110002f43000069720000636c0000650a000014
:104120000d000000526100006e6700006520000075
:104130006f660000206d00006f740000696f000062
:104140006e3a0000204400002d5000006164000021
:1041500020550000702f0000446f0000776e0000b3
:104160000a0d000000540000726900006d2000007c
:1041700028720000616e000067650000206f00007b
:10418000662000006d6f0000746900006f6e000013
:10419000206c0000696d000069740000732000004d
:1041a0006d6f0000766500002077000069740000e4
:1041b0006820000074720000696d0000293a000058
:1041c000204400002d50000061640000204c0000dd
:1041d00065660000742f00005269000067680000e7
:1041e000740a00000d000000436500006e740000ba
:1041f00065720000206f00006666000073650000b5
:104200007420000074720000696d00002028000016
:10421000726100006e670000652000006f6600009c
:10422000206d00006f740000696f00006e200000b8
:104230006c6900006d690000747300002064000068
:104240006f2000006e6f0000742000006d6f000092
:1042500076650000293a0000205200002d5300002e
:1042600074690000636b0000202b000020440000f4
:104270002d50000061640000204c000065660000c5
:10428000742f00005269000067680000740a000083
:104290000d0000004a6f000079730000746900008f
:1042a000636b0000207a0000657200006f20000040
:1042b000636100006c6900006272000061740000bc
:1042c000696f00006e3a0000204800006f6c00002b
:1042d000642000005053000020420000757400006c
:1042e000746f00006e200000312000007365000034
:1042f000636f00006e6400002028000063750000fa
:1043000072720000656e0000742000006368000097
:10431000616e00006e6500006c2900002f33000004
:1043200020730000656300006f6e0000647300007e
:1043300020280000616c00006c2000006368000011
:10434000616e00006e6500006c730000290a0000b9
:104350000d00000053650000727600006f20000021
:10436000686f00006c6400002f720000656300003d
:10437000616c00006c200000706f00007369000029
:10438000746900006f6e0000206d00006f64000013
:1043900065200000656e0000616200006c65000031
:1043a0003a2000004c2d00005374000069630000a7
:1043b0006b2000002b2000004369000072630000a6
:1043c0006c6500000a0d00000054000072690000d6
:1043d0006767000065720000206c0000696e0000d5
:1043e0006b3a0000204c00002d530000746900005f
:1043f000636b0000202b000020430000726f000060
:10440000737300000a0d0000005400006f75000077
:104410006368000070610000642000006d6f0000a0
:10442000646500002028000061620000736f0000d6
:104430006c75000074650000207000006f73000050
:1044400069740000696f00006e2000007673000040
:10445000207600006972000074750000616c000035
:10446000206a00006f790000737400006963000027
:104470006b2900003a200000522d00005374000008
:10448000696300006b2000002b200000442d000019
:104490005061000064200000557000000a0d00000b
:1044a000005400006f750000636800007061000038
:1044b00064200000737000006c690000742000002c
:1044c0007673000020770000686f00006c650000c4
:1044d0003a200000522d0000537400006963000070
:1044e0006b2000002b200000442d000050610000d4
:1044f00064200000446f0000776e00000a0d000089
:10450000004a00006f7900007374000069630000c6
:104510006b200000646900006666000065720000a0
:10452000656e000074690000616c0000206400008a
:104530007269000076650000206d00006978000057
:1045400065720000203a0000204c00002d5300004e
:1045500074690000636b0000202b00002043000002
:10456000726f0000737300000a0d0000004a000023
:104570006f79000073740000696300006b20000015
:104580006d650000636100006e7500006d20000025
:1045900077680000656500006c2000006d69000010
:1045a00078650000723a0000204c00002d53000096
:1045b00074690000636b0000202b00002053000092
:1045c0007175000061720000650a00000d000000b6
:1045d000526500006d6100007020000063680000fb
:1045e000616e00006e6500006c200000746f0000ba
:1045f0002062000075740000746f00006e200000df
:1046000070610000697200003a200000522d000025
:1046100053740000696300006b2000002b20000031
:104620005371000075610000726500000a0d000002
:10463000000a00000d3d00003d3d000042750000f5
:10464000747400006f6e000020410000646a000076
:1046500075730000746d0000656e000074730000d7
:104660003d3d00003d0a00000d00000054650000c3
:1046700073740000206f00007574000070750000f6
:104680007420000077680000696c0000652000005d
:10469000636f00006e6600006967000075720000bd
:1046a000696e0000673a0000205200002d530000a0
:1046b00074690000636b00000a0d000000490000ef
:1046c0006e76000065720000742000004f750000d7
:1046d00074700000757400003a20000043720000fe
:1046e0006f730000730a00000d00000043680000b3
:1046f000616e0000676500002062000075740000b4
:10470000746f00006e2000006d6f00006465000093
:1047100020280000707500007368000062750000ba
:10472000747400006f6e00002c200000746f000095
:10473000676700006c6500002c20000065740000b5
:10474000632e0000293a0000205400007269000026
:10475000616e0000676c0000650a00000d0000003b
:10476000536900006e6700006c6500002d53000067
:10477000686f0000742f000041750000746f000026
:10478000666900007265000020700000756c000012
:104790007365000020770000696400007468000001
:1047a0003a200000442d0000506100006420000009
:1047b0004c650000667400002f520000696700001d
:1047c000687400000a0d000000410000646a0000e7
:1047d000757300007420000061750000746f0000a4
:1047e00066690000726500002070000065720000bc
:1047f000696f0000643a0000204400002d50000062
:104800006164000020550000702f0000446f00001c
:10481000776e00000a0d00000a0d00000000000085
:104820007200000071000000700000002a2a0000e1
:104830002a520000657300006574000020530000d8
:104840007461000074650000732e00002a2a0000c5
:104850002a0a00000d0000005541000052540000db
:10486000204900006e69000074690000616c00005e
:10487000697a0000656400002f2e00000a0d000018
:10488000004300004d440000206300006f6d0000f5
:10489000706c000065740000653a000020000000a4
:1048a0005265000073650000742e00000a0d0000c0
:1048b00000520000656100006420000041640000b7
:1048c0006472000065730000732e0000204c00002d
:1048d0006f630000616c000020420000445f000034
:1048e00041440000445200003a200000002e000025
:1048f00020530000746f0000726900006e670000b2
:1049000020610000646400007265000073730000a1
:104910002e0a00000d0000000a0d0000004c0000ef
:104920006f630000616c0000204e0000616d0000ac
:10493000652e00000a0d000000570000726900009b
:1049400074650000204300006c6100007373000078
:104950002e0a00000d00000057720000697400006c
:104960006520000053630000616e000020450000d8
:104970006e610000626c0000652f00004469000059
:1049800073610000626c0000652e00000a0d0000db
:10499000004c0000696e00006b2000004b650000b9
:1049a0007920000052650000706c0000792e000034
:1049b0000a0d0000004f00007468000065720000de
:1049c0002e0a00000d000000526f00006c65000010
:1049d00020430000686100006e6700006520000051
:1049e0005375000063630000657300007366000088
:1049f000756c00002e0a00000d000000526f0000d0
:104a00006c65000020430000686100006e670000d4
:104a10006520000046610000696c000065640000cc
:104a20002e20000020450000727200006f7200000e
:104a30003a200000004900006e7100007569000016
:104a400072790000204300006f6d0000706c000060
:104a500065740000650a00000d000000496e00004a
:104a60007175000069720000792000005265000035
:104a7000737500006c7400002c200000726500004b
:104a80006d6f00007465000020420000445f00006c
:104a900041440000445200003a200000004300005e
:104aa0006f6e00006e65000063740000696f0000a7
:104ab0006e20000041630000636500007074000018
:104ac0006564000020450000766500006e740000fb
:104ad0003a20000000530000756300006365000089
:104ae000737300002e200000486100006e64000017
:104af0006c650000203d00002000000045720000b1
:104b0000726f0000723a000020000000496e000041
:104b1000636f00006d6900006e67000020430000b5
:104b20006f6e00006e65000063740000696f000026
:104b30006e3a000020520000656d00006f740000a6
:104b4000655f0000426400005f4100006464000093
:104b5000722000003d200000004400006973000046
:104b6000636f00006e6e000065630000742000003b
:104b700045760000656e0000743a000020000000d9
:104b8000537500006363000065730000732e00001e
:104b900000450000727200006f7200002e000000dd
:104ba000456e0000637200007970000074690000b7
:104bb0006f6e000020630000686100006e670000f7
:104bc000653a000000430000686100006e6e00005e
:104bd000656c0000204500006e63000072790000e3
:104be00070740000696f00006e2000004f6e0000be
:104bf0002e200000486100006e6400006c6500001b
:104c00003d000000436f00006d6d0000616e00000c
:104c1000642000005374000061740000757300008c
:104c200020450000766500006e7400003a20000008
:104c300000500000656e0000646900006e670000af
:104c40002e00000045720000726f0000722000000c
:104c500030780000303200003a200000556e00002d
:104c60006b6e00006f7700006e200000436f000045
:104c70006e6e000065630000746900006f6e0000d6
:104c800020490000442e0000004500007272000020
:104c90006f720000204300006f640000653a00005e
:104ca000004c0000696e00006b2000004b650000a6
:104cb00079200000526500007175000065730000e6
:104cc000742e000020200000424400005f410000dc
:104cd00044440000523a0000004d0000617800009a
:104ce000205300006c6f000074730000204300002c
:104cf000686100006e670000652e00000a0d00006c
:104d0000004300006f640000653d00003078000043
:104d1000303100002e200000436f00006d6d000058
:104d2000616e000064200000526500006a650000aa
:104d300063740000656400002e0a00000d0000008e
:104d4000436f0000646500003d30000078300000d3
:104d5000322e0000284300006f6e00006e650000d8
:104d600063740000696f00006e200000526500004f
:104d7000712900002e000000505300004d3d00003e
:104d80003078000030300000303100002028000072
:104d900053440000502900002e200000534300001f
:104da000494400003d000000505300004d3d00000c
:104db0003078000030300000313100002028000041
:104dc00048490000445f000043540000524c00007a
:104dd000292e00002053000043490000443d0000fc
:104de00000500000534d00003d30000078300000be
:104df00030310000332e00002053000043490000f2
:104e0000443d000000210000212100004572000007
:104e1000726f0000723a000020500000534d0000f5
:104e2000206e00006f740000207300007570000099
:104e3000706f000072740000656400002e0a0000ac
:104e40000d000000436f00006e6e000065630000ff
:104e5000746900006f6e0000204300006f6d000059
:104e6000706c000065740000653a0000005300009b
:104e70007563000063650000737300002e2000005e
:104e80000048000049440000204300005452000044
:104e90004c20000028500000534d0000203000003e
:104ea00078310000312900000a0d000000480000a0
:104eb000494400002044000041540000412000000b
:104ec00028500000534d00002030000078310000d1
:104ed000332900000a0d0000005500006e6b000031
:104ee0006e6f0000776e00000a0d00000050000099
:104ef000656e0000646900006e6700002e2e0000e1
:104f00002e0a00000d00000046610000696c0000e0
:104f100075720000652e00002045000072720000ce
:104f20006f7200003a000000436f000064650000eb
:104f30003d3000007830000034280000436f00004e
:104f40006e66000069670000205200006571000075
:104f5000293a0000004800004944000020430000b6
:104f60006f6e0000747200006f6c00002043000040
:104f7000686100006e6e0000656c00002e0a000083
:104f80000d0000004849000044200000446100007a
:104f90007461000020430000686100006e6e000034
:104fa000656c00002e0a00000d0000005344000054
:104fb0005020000043680000616e00006e65000034
:104fc0006c2e00000a0d00000021000021210000cd
:104fd00045720000726f0000723a00002055000018
:104fe0006e6b00006e6f0000776e000020430000c3
:104ff000686100006e6e0000656c000020490000d2
:10500000442e00000a0d0000004300006f64000001
:10501000653d000030780000303500002843000076
:105020006f6e000066690000672000005265000096
:1050300073700000292e000020000000537500004e
:105040006363000065730000730a00000d00000038
:1050500046610000696c00002e0a00000d0000008f
:1050600044690000736300006f6e00006e6500000d
:105070006374000020720000657100007565000017
:10508000737400003a000000204400004154000006
:10509000412e00000a0d00000020000043540000d3
:1050a000524c00002e0a00000d00000020530000aa
:1050b000445000002e0a00000d00000020550000a2
:1050c0006e6b00006e6f0000776e000020430000e2
:1050d000686100006e6e0000656c00002e0a000022
:1050e0000d00000044690000736300006f6e000053
:1050f0006e650000637400002052000065730000bc
:10510000706f00006e730000653a000000430000fd
:10511000683a000053440000502e00000a0d0000c1
:10512000005300004450000020410000747400004f
:105130007269000062750000746500002052000072
:105140006571000075650000737400002e0a000090
:105150000d00000057720000697400006520000017
:10516000436c000061730000732000004572000072
:10517000726f0000723a000020000000202d000035
:1051800020410000434c000020630000616e0000dd
:105190006e6f000074200000626500002077000040
:1051a0007269000074740000656e00002000000049
:1051b00042540000204f000075740000707500001c
:1051c000743a00002000000045720000726f000079
:1051d000723a000020430000616e00006e6f000014
:1051e00074200000666900006e6400002063000007
:1051f0006f7200007265000063740000207400008c
:1052000079700000652e00000a0d000000490000c2
:105210004e490000540a00000d0000004843000001
:10522000495f0000434d0000445f0000524500000c
:1052300053450000543a000020000000484300009d
:10524000495f0000434d0000445f000052450000ec
:10525000414400005f420000445f00004144000000
:10526000445200003a20000000480000434900007a
:105270005f4300004d4400005f4c00004f430000be
:10528000414c00005f4e0000414d0000453a0000d7
:105290002000000048430000495f0000434d00002b
:1052a000445f0000434c000041530000535f000086
:1052b0004445000056490000434500003a200000e4
:1052c00000480000434900005f4300004d440000d7
:1052d0005f530000434100004e5f0000454e000058
:1052e000414200004c4500003a2000000048000008
:1052f000434900005f4300004d4400005f49000047
:105300004e51000055490000525900003a2000005b
:1053100000480000434900005f4300004d44000086
:105320005f4300005245000041540000455f00000b
:10533000434f00004e4e000045430000544900001a
:105340004f4e00003a200000004800004349000092
:105350005f4300004d4400005f41000043430000f4
:1053600045500000545f0000494e0000434f0000cc
:105370004d4900004e4700002e200000524f000013
:105380004c45000020430000484100004e4700000b
:1053900045200000524500005155000045530000d3
:1053a00054450000443a000020000000484300003b
:1053b000495f0000434d0000445f0000534300007c
:1053c000414e00005f44000049530000414200008c
:1053d0004c4500003a200000004c0000494e0000ff
:1053e0004b5f00004b450000595f00005245000034
:1053f000504c0000593a00002000000053430000c8
:105400004944000020430000545200004c2000009a
:105410003d200000004c00003243000041500000dd
:105420005f4300004f4e00004e4500004354000013
:105430005f5200004553000050300000313a000038
:10544000200000004c32000043410000505f00008b
:10545000434f00004e460000494700005f520000e5
:1054600045510000303100003a200000004c00009f
:1054700032430000415000005f4300004f4e0000e7
:1054800046490000475f00005245000053500000ad
:10549000303100003a200000004c00003243000090
:1054a000415000005f44000049530000434f00009a
:1054b0004e4e000045430000545f0000534400007e
:1054c000505f000052450000513a000020000000eb
:1054d0004c32000043410000505f0000444900008e
:1054e000534300004f4e00004e450000435400005f
:1054f0005f5200004553000050300000313a000078
:10550000200000004c32000043410000505f0000ca
:10551000434f00004e4e000045430000545f000022
:105520005245000051310000313a000020000000d7
:105530004c32000043410000505f0000434f000028
:105540004e4e000045430000545f000052450000ed
:1055500053500000313100003a200000004c0000a0
:1055600032430000415000005f4300004f4e0000f6
:1055700046490000475f00005245000051310000dd
:10558000313a0000200000004c320000434100008e
:10559000505f0000434f00004e46000049470000a6
:1055a0005f5200004553000050310000313a0000c6
:1055b0002000000053430000494400002044000044
:1055c00041540000412000003d200000004c00003c
:1055d00032430000415000005f4300004f4e000086
:1055e0004e450000435400005f5200004553000048
:1055f00050310000333a0000200000004c3200001f
:1056000043410000505f0000434f00004e46000041
:10561000494700005f52000045510000313300004f
:105620003a200000004c00003243000041500000ce
:105630005f4300004f4e000046490000475f0000f6
:105640005245000053500000313300003a20000062
:10565000004700004554000020460000454100007e
:105660005455000052450000203000007830000002
:105670003220000028500000533400005f42000038
:10568000545f0000494e000049540000293a0000d0
:10569000200000004c32000043410000505f000039
:1056a00044490000534300004f4e00004e450000a7
:1056b000435400005f44000041540000415f00007b
:1056c00052450000535000003a200000004c0000fa
:1056d00032430000415000005f4400004953000085
:1056e000434f00004e4e000045430000545f000051
:1056f00043540000524c00005f520000455300002c
:10570000503a0000200000004c32000043410000ed
:10571000505f000044490000534300004f4e00001a
:105720004e450000435400005f4400004154000017
:10573000413a00002000000048430000495f00009b
:1057400044490000534300004f4e00004e45000006
:10575000435400003a200000005500006e6b00002a
:105760006e6f0000776e000020440000656d000041
:105770006f2000005374000061740000652e00006b
:105780000a0d000000520000656100006420000066
:1057900042610000636b00002041000044440000af
:1057a000522e00000a0d0000005700006169000041
:1057b000746900006e670000206600006f720000d0
:1057c000207200006561000064200000746f00001a
:1057d000206300006f6d0000706c000065740000b5
:1057e000652e00002e2e00000050000061690000b0
:1057f00072200000436f00006e740000726f0000a2
:105800006c6c000065720000207700006974000075
:10581000682000006c6100007374000020420000ea
:105820006c750000657400006f6f00007468000004
:10583000206400006f6e0000676c0000652e0000a1
:105840002e2e00000a0d00000057000061690000c4
:10585000746900006e670000206600006f7200002f
:105860002077000072690000746500002074000059
:105870006f200000636f00006d7000006c65000019
:10588000746500002e2e00002e000000446f000002
:105890006e6500002e2000000044000065760000c8
:1058a0006963000065200000577200006974000001
:1058b0006520000045720000726f00007220000039
:1058c000210d00000a000000536500007420000054
:1058d00052650000706f00007274000020300000fc
:1058e00078310000343a0000005300007563000076
:1058f00063650000737300002e0a00000d000000b5
:10590000496e000069740000696100006c69000064
:105910007a650000204300006f6e00007472000082
:105920006f6c00006c650000722e00000a0d000014
:10593000002000002d200000446500007669000072
:1059400063650000205200006561000064200000d3
:1059500045720000726f000072200000210d0000ef
:105960000a000000476500006e65000072690000d3
:1059700063200000646500006d6f0000206400007b
:105980006576000069630000652000006174000016
:10599000746100006368000065640000202d000051
:1059a00020650000766500006e7400002c20000069
:1059b00064650000766900006365000041640000d2
:1059c0006472000065730000733d0000000d00006c
:1059d0000a000000476500006e6500007269000063
:1059e00063200000646500006d6f0000206400000b
:1059f00065760000696300006520000064650000b2
:105a0000746100006368000065640000202d0000e0
:105a100020650000766500006e7400000d0a00002d
:105a2000000d00000a2a00002a2a00002a2a00008d
:105a30002055000053420000204500007272000013
:105a40006f720000202d00002068000075620000c9
:105a50007320000061720000652000006e6f00007e
:105a60007420000073750000707000006f720000f9
:105a700074650000642000002a2a00002a2a000021
:105a80002a0d00000a0000000d0a00002a2a00006a
:105a90002a2a00002a20000055530000422000005e
:105aa00045720000726f0000722000002d2000007f
:105ab00064650000766900006365000020690000ed
:105ac000732000006e6f00007420000073750000ea
:105ad000707000006f7200007465000064200000a8
:105ae0002a2a00002a2a00002a0d00000a000000cd
:105af0000d0a00002a2a00002a2a00002a2000009d
:105b0000555300004220000045720000726f0000f3
:105b1000722000002d200000636100006e6e000006
:105b20006f740000206500006e7500006d65000058
:105b3000726100007465000020640000657600005a
:105b400069630000652000002a2a00002a2a00005c
:105b50002a0d00000a0000000d0a00002a2a000099
:105b60002a2a00002a20000055530000422000008d
:105b700045720000726f0000722000002d200000ae
:105b8000636c0000696500006e7400002064000012
:105b9000726900007665000072200000696e0000e6
:105ba00069740000696100006c6900007a6100009e
:105bb000746900006f6e00002065000072720000c2
:105bc0006f720000202a00002a2a00002a2a000002
:105bd0000d0a0000000d00000a2a00002a2a000019
:105be0002a2a0000205500005342000020450000f2
:105bf000727200006f720000202d0000206f000004
:105c000075740000206f00006620000068650000c9
:105c100061700000206d0000656d00006f72000073
:105c2000792000002a2a00002a2a00002a0d0000fc
:105c30000a0000000d0a00002a2a00002a2a00009b
:105c40002a20000055530000422000004572000049
:105c5000726f0000722000002d200000756e0000a1
:105c600073700000656300006966000069650000ec
:105c7000642000002a2a00002a2a00002a0d0000c1
:105c80000a000000332e0000300000003a2000001f
:105c9000436f0000756c0000642000006e6f000010
:105ca00074200000696e00006974000069610000e2
:105cb0006c6900007a6500002073000079730000b1
:105cc000746500006d2e0000202000004861000077
:105cd0006c740000696e0000672e0000000d00006b
:105ce0000a0d00000a2a000020530000657200001f
:105cf000766f0000536800006f6300006b200000a7
:105d00003220000046690000726d000077610000db
:105d1000726500002052000065760000200000003f
:105d2000202a00000d0a0000003d00005072000013
:105d300065730000732000002745000073630000b6
:105d400027200000696e0000206300006f6e0000d5
:105d5000736f00006c650000207400006f2000006d
:105d600064690000737000006c610000792000001d
:105d700071750000696300006b200000726500000f
:105d800066650000726500006e630000652000001b
:105d90006775000069640000653d00000a0d0000a1
:105da0000a0d000000200000436f0000756c000029
:105db000642000006e6f000074200000696e000017
:105dc00069740000696100006c6900007a65000078
:105dd00020550000534200002e2000002048000003
:105de000616c0000746900006e6700002e00000006
:105df00043690000726300007569000074200000b0
:105e00005465000073740000204d00006f640000b2
:105e1000652e00000a0d00000046000069720000b7
:105e20006d7700006172000065200000436f000084
:105e3000646500003a200000004e00006577000015
:105e400020460000572000004465000074650000f3
:105e500063740000656400002e0a00000d0000005d
:105e60004c6f000061640000656400002053000076
:105e70006176000065640000205300006574000036
:105e8000746900006e670000732e0000200a000095
:105e90000d00000044690000736300006f6e000095
:105ea0006e65000063740000696e0000672e0000dc
:105eb0002e2e00000a0d000000490000646c000056
:105ec00065200000546900006d6500006f750000da
:105ed000742e00000a0d00000053000074610000e1
:105ee000636b000045720000726f000072000000da
:105ef0004d610000746800002045000072720000cf
:105f00006f720000000000005350000049200000a4
:105f100042750000732000004d6f000064650000b2
:105f2000203000000a0d000000530000504900001e
:105f30002042000075730000204d00006f640000d7
:105f400065200000310a00000d00000053500000e1
:105f50004920000042750000732000004d6f0000d2
:105f600064650000203200000a0d000000530000ac
:105f7000504900002042000075730000204d0000d1
:105f80006f64000065200000330a00000d0000006f
:105f900045520000524f00005220000053500000b4
:105fa0004920000042550000532000004d4f0000e2
:105fb000444500000a0d000000000000496e00008a
:105fc0006974000020330000442000004d6f000081
:105fd00075730000650a00000d000000496e0000a6
:105fe000697400002054000068720000757300009e
:105ff000746d00006173000074650000720a000097
:106000000d00000054650000737400002043000080
:1060100061730000653a0000200000000a0d0000d6
:10602000005500006e6b00006e6f0000776e000080
:106030002043000061730000650a00000d000000ad
:1060400030310000323300003435000036370000b4
:10605000383900004142000043440000454600003a
:106060004144000044520000204e00006f740000c4
:10607000206600006f7500006e6400002e000000b6
:020000040000fa
:10608000881f78000000eb008008880011a1a9009b
:1060900010c1a9000111200091407800f2ccb3009a
:1060a00082c060000144a0008000fd0010e1b70044
:1060b0008000fd001061a9001021a90030088800af
:1060c00080007800074329006600200085412900f0
:1060d000140020000340290082bb200061807b0067
:1060e0000608780061807a000408780061807900f1
:1060f000020878008180e800f88f5000f7ff3a002e
:10610000a0002000400d8800f0032000900c8800c3
:10611000e00c8800300d8800800d8800d00d8800cc
:10612000200e8800700e8800c00e8800100f8800b6
:1061300011e1a80000a026008101200090ed0700d9
:1061400008c42900a80c880000d027000100200006
:106150008bed0700f80c880000d02700010020001c
:1061600087ed0700480d880000d0270001002000bf
:1061700083ed0700980d880000d027000100200063
:106180007fed0700e80d880000d027000100200007
:106190007bed0700380e880000d0270001002000aa
:1061a00077ed0700880e880000d02700010020004e
:1061b00073ed0700d80e880000d0270001002000f2
:1061c0006fed0700280f8800d5c6bf0008ccb300cc
:1061d000084060002041b300d5e6b70092a1a900b5
:1061e00000a026008101200065ed0700dac6bf008f
:1061f000084060003041b300dae6b7009ca1a90076
:1062000000a02600810120005ded0700d3c6bf007d
:10621000084060004041b300d3e6b700a6a1a90042
:1062200000a026008101200055ed0700dbc6bf005d
:10623000084060005041b300dbe6b700b0a1a90000
:1062400000a02600810120004ded0700d2c6bf004e
:10625000084060006041b300d2e6b700baa1a900cf
:1062600000a026008101200045ed0700dcc6bf002c
:10627000084060007041b300dce6b700c4a1a9008b
:1062800000a02600810120003ded0700cdc6bf0023
:10629000084060008041b300cde6b700cea1a90060
:1062a00000a026008101200035ed0700c1c6bf0017
:1062b000084060009041b300c1e6b700d8a1a90032
:1062c00000a02600810120002ded0700c0c6bf0000
:1062d000084060003042b300c0e6b700e2a1a90068
:1062e0000001eb009208880013a1a90012c1a900c7
:1062f00012c1bf00f1ccb300014060000044a00017
:1063000012e1b7001221a9005208880013e1a80089
:106310009500a80070c0b300a860b7004f047800d3
:1063200000000600889fbe008a9fbe008c9fbe00b2
:10633000800578000006eb000d0120007860b900b0
:10634000a2972000000441000d0578008004eb00b6
:106350000b00e000090032008a0078001800780085
:10636000ddeb07008080fb000004e0000600320047
:1063700001007800c9300700030037000a007800e8
:1063800022ea0700000c78000a05e8008904e8000a
:106390000884e800ec8f5400edff3a000c06e8009a
:1063a000ec864600ec0f5600e4ff3a008006eb0056
:1063b000c368dd00a08e2000808440000a047800bd
:1063c0004c00200008007800b43007000b00e0000b
:1063d000040032008800780019007800beeb070046
:1063e000030037000800780008ea0700800c7800f6
:1063f0008800e8000c06e9008984e8000c00e00051
:106400000200320001047800eeff37008d06e8003c
:1064100064054500f28f5600e5ff3a000b00e000ee
:106420000300320040478000abeb07000300370059
:1064300001007800f5e90700404788008880e800ff
:106440000b00e0000300320010468000a2eb0700c2
:106450000300370001007800ece9070010468800cf
:10646000e30044000b00e00003003200004680001f
:1064700099eb07000300370001007800e3e907000b
:1064800000468800e40044000b00e00003003200f6
:10649000f045800090eb0700030037000100780012
:1064a000dae90700f0458800e50044000b00e00051
:1064b00003003200e045800087eb0700030037004f
:1064c00001007800d1e90700e0458800e6004400bb
:1064d0000b00e00003003200d04580007eeb070097
:1064e0000300370001007800c8e90700d0458800a4
:1064f000e70044000b00e000030032001040800081
:1065000075eb07000300370001007800bfe90700c2
:1065100010408800e80044000b00e0000300320057
:10652000c04580006ceb07000300370001007800d5
:10653000b6e90700c0458800e90044000b00e00010
:1065400003003200b045800063eb07000300370012
:1065500001007800ade90700b0458800ea0044007a
:106560000b00e00003003200004080005aeb0700ff
:106570000300370001007800a4e90700004088000c
:106580006b004400453007008044290006300700b6
:106590004f06be004f05be004f04be0000000600bf
:1065a000e0452900003007000000eb005dff070018
:1065b000a0472900fc2f370010482900fa2f0700b8
:1065c0001000200057ff070040492900f62f370030
:1065d000a097200000000600a08e2000000006000a
:1065e000f045800000000600889fbe008a9fbe0024
:1065f0008c1f780080057800010678000005eb000c
:10660000e18f550004003a000c0478002a012000b4
:10661000290020000a003700e28f550006003a00ea
:106620000a004500418c2000010040000048eb00ba
:106630008040eb00114098000a0478008a0478003a
:106640004340dd000080e800a18e200060807800db
:10665000e20f50003800320005003e000000e0006c
:1066600008003200e10f5000bc003a001000370073
:10667000e30f500063003200e40f5000b7003a000f
:106680006a003700932b070008014400c1842000f2
:106690000101410089804400808040009181fb001d
:1066a000114090004800dd00030070001e0037001c
:1066b0008c2b070089804400808040001181fb0002
:1066c000114090004800dd00020070000d00320013
:1066d00088004400408c2000008140008001eb00d5
:1066e0009280fb00124090004800dd000100700025
:1066f00001003a0013002000034978004818de002a
:106700001041980008004400c284200002014000ab
:10671000418c2000010040009080fb001040900060
:106720004800dd0001007000004978004800de00ec
:1067300010419800890037006a2b070089804400c7
:10674000808040001181fb00114090004800dd0076
:10675000020070000b00320008014400818220001a
:10676000810041000040eb00e1487000804178006a
:1067700090409800c0842000000141001149780039
:1067800013419800080244008082200080014200ea
:106790009380fb00134090004800dd000101700071
:1067a000100032004340dd0064004000a18e200054
:1067b00060807800800f51000a003e00c0842000f5
:1067c000000042008040eb0061c87000114098005a
:1067d0000200e800804978004800de0090419800ff
:1067e0005e00370008014400808220000000410064
:1067f0000048eb008040eb0011409800c08420006e
:1068000053003700332b070089804400808040000c
:106810001181fb00114090004800dd000200700073
:1068200044003200880244001d0037002d2b070071
:1068300089804400808040001181fb00114090005d
:106840004800dd00020070000d00320088004400a6
:10685000408c2000008140008001eb009280fb0012
:10686000124090004800dd000100700001003a0075
:1068700013002000034978004818de0010419800fa
:1068800088024400408c2000008042009080fb0081
:10689000104090004800dd0001007000250032002b
:1068a00080822000008042009080fb001040900019
:1068b0004800dd00010270004340dd00e6004000ba
:1068c000a38e200061817900801f780011000900eb
:1068d0000282d8004f007800640040006080790098
:1068e000808f500005003100c084200000804200ed
:1068f0008040eb0061c870000500370008004400cc
:10690000c1842000010040000048eb008040eb0003
:106910001140980088004400808220008080400060
:106920000400e800804878004800de0090409800ad
:106930000a00370008014400c08420000000410024
:106940000048eb008040eb0011409800808220005e
:10695000000141000149780011419800c340dd0069
:10696000a08e200061027800e10f52000d003a0075
:1069700088004400c0842000008140008001eb00ba
:106980009280fb00124090004800dd000100700082
:1069900001003a0084017800034978004818de00bd
:1069a000104198000a05e800f10f550014ff360069
:1069b0008001eb0044802000c5842000f80f2000f7
:1069c0000380410004014000050040009080fb006e
:1069d000104090004800dd00010070000849600090
:1069e0004800de00104198008301e800f28f51005a
:1069f000f3ff3a0004007800ba2d0700be2e07000e
:106a0000104890000048a30006003200ba2e07008c
:106a10004060900061006000080060000ce8b70072
:106a20000d68ef00b42e0700104890000058a30036
:106a300006003200b02e0700406090000000d10038
:106a4000610060000ee8b7000f68ef00aa2e070093
:106a5000104890000068a30006003200a62e070030
:106a6000406090004200de006100600010e8b70066
:106a70001168ef00a02e0700104890000004e0000d
:106a800006003d009c2e0700406090004300de00a1
:106a90006100600012e8b7001368ef00962e07004f
:106aa000204890000008a30006003200922e070044
:106ab000406090004400de00610060001ce8b70008
:106ac0001d68ef008c2e0700204890000018a300de
:106ad00006003200882e0700406090004500de006e
:106ae000610060001ee8b7001f68ef00822e0700fb
:106af000204890000028a300060032007e2e0700e8
:106b0000406090004600de006100600020e8b700b1
:106b10002168ef00782e0700204890000038a3007d
:106b200006003200742e0700406090000080fb00d9
:106b30004700de0022e8b7002368ef006e2e070052
:106b4000204890000048a300050032006a2e07008c
:106b5000506090006100600018e8b7001968ef000d
:106b6000652e0700204890000058a3000600320060
:106b7000612e0700506090000000d10061006000ad
:106b80001ae8b7001b68ef005b2e07002048900052
:106b90000068a30006003200572e070050609000e6
:106ba0004200de006100600014e8b7001568ef00e5
:106bb000512e0700204890000004e00006003d0030
:106bc0004d2e0700506090004300de006100600021
:106bd00016e8b7001768ef00472e0700304890000e
:106be0000008a30006003200432e0700506090000a
:106bf0004400de006100600006e8b7000768ef00af
:106c00003d2e0700304890000018a3000600320017
:106c1000392e0700506090004500de0061006000e2
:106c200008e8b7000968ef00332e070030489000ed
:106c30000028a300060032002f2e070050609000ad
:106c40004600de006100600004e8b7000568ef0060
:106c5000292e0700304890000038a30006003200bb
:106c6000252e0700506090000080fb004700de00ea
:106c70000ae8b7000b68ef001f2e070030489000ad
:106c80000048a300050032001b2e07006060900042
:106c90006100600026e8b7002768ef00162e0700a5
:106ca000304890000058a30006003200122e070062
:106cb000606090000000d1006100600024e8b7002f
:106cc0002568ef00c1802000914078008180fb00a2
:106cd0000dc8bf004800dd00010070000200320056
:106ce000dc42a80001003700dc42a900e18020005e
:106cf000914078008180fb000fc8bf004800dd0094
:106d00000100700002003200dc62a80001003700c0
:106d1000dc62a90001812000914078008180fb00a5
:106d200011c8bf004800dd00010070000200320001
:106d3000dc82a80001003700dc82a900218120004c
:106d4000914078008180fb0013c8bf004800dd003f
:106d50000100700002003200dca2a8000100370030
:106d6000dca2a900c1812000914078008180fb0055
:106d70001dc8bf004800dd000100700002003200a5
:106d8000e402a80001003700e402a900e18120002c
:106d9000914078008180fb001fc8bf004800dd00e3
:106da0000100700002003200e422a8000100370058
:106db000e422a90001822000914078008180fb003c
:106dc00021c8bf004800dd00010070000200320051
:106dd000e442a80001003700e442a900218220001b
:106de000914078008180fb0023c8bf004800dd008f
:106df0000100700002003200e462a80001003700c8
:106e0000e462a90081812000914078008180fb002c
:106e100019c8bf004800dd00010070000200320008
:106e2000ec02a80001003700ec02a900a1812000bb
:106e3000914078008180fb001bc8bf004800dd0046
:106e40000100700002003200ec22a80001003700af
:106e5000ec22a90041812000914078008180fb0054
:106e600015c8bf004800dd000100700002003200bc
:106e7000dcc2a80001003700dcc2a900618120004b
:106e8000914078008180fb0017c8bf004800dd00fa
:106e90000100700002003200dce2a80001003700af
:106ea000dce2a90061802000914078008180fb0035
:106eb00007c8bf004800dd0001007000020032007a
:106ec000d5a2a80001003700d5a2a900818020002a
:106ed000914078008180fb0009c8bf004800dd00b8
:106ee0000100700002003200d5c2a8000100370086
:106ef000d5c2a90041802000914078008180fb002c
:106f000005c8bf004800dd0001007000020032002b
:106f1000ec62a80001003700ec62a900a18020000b
:106f2000914078008180fb000bc8bf004800dd0065
:106f30000100700002003200dc22a80001003700ce
:106f4000dc22a90061822000914078008180fb0052
:106f500027c8bf004800dd000100700002003200b9
:106f6000cc62a80001003700cc62a9004182200059
:106f7000914078008180fb0025c8bf004800dd00fb
:106f80000100700002003200e482a8000100370016
:106f9000e482a9004f0678004f05be004f04be00f2
:106fa000000006008f0ab000889fbe008a9fbe00c6
:106fb0008c9fbe008e1f78008004eb000b872000a2
:106fc0002a982000492907008980440080804000d9
:106fd0001181fb00114090004800dd000b04780097
:106fe000820d700066805400e30f5000cc003e001c
:106ff0002a0090000000e00040003a00e68f5400b4
:1070000002003200e88f54001a003a001a00900083
:107010000000e0000e003a001a0078000000e000d6
:1070200004003a00332907009080fb0010409000d4
:107030000d003700e10f5000b9003a002d2907007c
:10704000504990000281fb00604890001e0037000c
:10705000e10f5000b2003a0026290700c04090001e
:107060008180fb00504090004800dd00010c700062
:10707000ab003700e78f540002003200e98f540064
:10708000a7003a001a0090000000e00014003a0047
:107090001a0078000000e00005003a0015290700fa
:1070a000a04090008180fb0030409000eeff370050
:1070b000e10f50009a003a000e2907007049900035
:1070c0000281fb00005090004800dd0002007000cb
:1070d000620420000280b900000c780090003700a4
:1070e000e10f50008e003a0002290700e0409000b6
:1070f0008180fb0070409000dbff3700e10f500003
:1071000087003a00e68f540020003a00a05080002b
:107110000000e00014003a00905080000000e00001
:1071200005003a00f3280700b05090008180fb0072
:107130004050900012003700e10f500078003a00f4
:10714000ec280700006190000281fb0010609000b5
:107150004800dd0002007000620420000280b900d7
:10716000e04388006e003700e10f50006c003a00e9
:10717000e0280700f05090008180fb00005890004c
:107180004800dd0001007000f5ff3700e78f540074
:1071900020003a00605180000000e00014003a0036
:1071a000505180000000e00005003a00d12807009f
:1071b000d05090008180fb0060509000120037009a
:1071c000e10f500056003a00ca28070020619000e5
:1071d0000281fb00306090004800dd00020070007a
:1071e000620420000280b900f04388004c003700a0
:1071f000e10f50004a003a00be2807009058900066
:107200008180fb00205890004800dd0001007000e4
:10721000f5ff3700e88f540020003a00205280002c
:107220000000e00013003a00105280000000e0006f
:1072300005003a00af280700e06090008180fb0065
:107240007060900011003700e10f500034003a00e8
:10725000a8280700307190000281fb004070900068
:107260004800dd0002007000620420000280b900c6
:1072700008003700e10f500029003a009d28070060
:10728000a06890008180fb00306890004800dd001d
:10729000010070000044880021003700e98f54008d
:1072a0001f003a00e05280000000e00013003a00a6
:1072b000d05280000000e00005003a008d28070051
:1072c000806890008180fb001068900011003700fa
:1072d000e10f500012003a0086280700507190001c
:1072e0000281fb00607090004800dd000200700029
:1072f000620420000280b90008003700e10f50004e
:1073000007003a007b280700c06890008180fb00de
:10731000506890004800dd000100700010448800b3
:107320008904e8008b85e80078054500ec8f54005f
:1073300024ff3a006b280700a04090008180fb00ea
:10734000304090004800dd0001007000e10f500067
:1073500005003a008000eb00a208e20001003a00bc
:1073600080007800114588005e280700c04090002a
:107370008180fb00504090004800dd00010070005b
:10738000e10f500005003a008000eb00a008e20089
:1073900001003a008000780001458800104080001c
:1073a000e10f50000500360000004000640040007e
:1073b00001872000b243800002b07800c39820000b
:1073c000e3a79f000007eb000c872000aa9820008d
:1073d00044e32000d4a79f004d00200085882000b2
:1073e000c5a79f002b982000bba79f00e4845600f0
:1073f0006fa4970011002000988f10000e003a0033
:1074000034280700806090008180fb0010609000ad
:107410004800dd000100700007003200312807003d
:10742000a04090008180fb00304090004800dd00cb
:107430000100700011003a0022002000980f110096
:1074400019003a0023280700806090008180fb002b
:10745000106090004800dd00010070001200320052
:1074600020280700c04090008180fb005040900021
:107470004800dd00010070000b003200dfa1970022
:107480001300be00420620000300200030e4070085
:107490000001be00200598008d00780002007800f1
:1074a0008de7070034003700bfa5970015002000c6
:1074b0009b8f12001f003a00988f120007003a00bd
:1074c00008280700a04090008180fb003040900019
:1074d0004800dd00010070000d003a00100020009f
:1074e0009b0f100013003a0021002000988f10001d
:1074f00010003a00fb270700c04090008180fb008d
:10750000504090004800dd0001007000090032008a
:107510000d007800bde50700800078002005980088
:10752000400620000008b8005fa197000089be0057
:10753000110037001b00e0000d003a001800780031
:10754000e20f500002003a000045800003003700bf
:10755000e10f500006003a0010458000e10f500096
:1075600003003a00cfa19700130e78000200370005
:107570004fa297001c0a78007e2a0700e30f5000f4
:1075800003003200e40f5000ca003a003200370016
:10759000e78f54006a00320005003e00e48f54007b
:1075a0002a003900e58f54000900360054003700e6
:1075b000e98f54008400320071003900ea8f5400d2
:1075c0000b003200eb8f540020003a00150037000a
:1075d0009c0278009a80520044003700d05080000e
:1075e000808050003d01370090518000fcff370043
:1075f000ecc2bf000008a30003003200ecc2bf00d1
:107600000018a30088003200ecc2bf000008a300ed
:1076100090003a00ecc2bf000018a3008a003a00b4
:107620008c003700d5c2bf000058a3000300320011
:10763000d5c2bf000068a3008e003200d5c2bf00d3
:107640000058a30096003a008f0037009c05780090
:107650009a80550021013700e78f5400380032002e
:1076600006003e00e58f54001100320024003e0069
:10767000e48f54008c003a0008003700e98f540072
:10768000510032003e003900ea8f540060003200a1
:10769000eb8f540084003a0070003700504f800098
:1076a0007808b50001f82f00810040000b01370079
:1076b000dcc2bf000068a30005003200dc42e2002b
:1076c00003003500f107200010508000c4ff370090
:1076d000dcc2bf000068a30007003a00dc42e20001
:1076e00005003d00020aee008000780000f82f003f
:1076f00080804000f900370011508000f70037000b
:10770000dcc2bf000058a30004003200dcc2bf008e
:10771000f10720000038a300b0ff3200dcc2bf0038
:107720000058a30004003a00dcc2bf0001f82f009b
:107730000038a300a9ff3a00d1508000e7003700cd
:10774000dcc2bf000028a30004003200dcc2bf007e
:10775000f10720000048a300a3ff3200dcc2bf00f5
:107760000028a30004003a00dcc2bf0001f82f008b
:107770000048a3009cff3a0091518000d7003700d9
:10778000e4c2bf000038a30004003200e4c2bf001e
:10779000f10720000018a30007003200e4c2bf0078
:1077a0000038a30006003a00e4c2bf000018a3009e
:1077b0000300320001f82f005052800088ff37008c
:1077c00051528000c5003700e4c2bf000008a3008a
:1077d00004003200e4c2bf00f10720000028a3002b
:1077e00007003200e4c2bf000008a30006003a0010
:1077f000e4c2bf000028a3000300320001f82f00fc
:107800001053800076ff370011538000b30037001b
:10781000ecc2bf000008a30005003200d5c2bf00c3
:107820000058a30002003a00f107200007003700cb
:10783000ecc2bf000008a30006003a00d5c2bf009a
:107840000058a3000300320001f82f00d05380003d
:1078500063ff3700d1538000a0003700ecc2bf00a7
:107860000018a30005003200d5c2bf000068a300c5
:1078700002003a00f107200007003700ecc2bf0009
:107880000018a30006003a00d5c2bf000068a3009c
:107890000300320001f82f009054800050ff3700a1
:1078a000915480008d0037001c0178009a0051002f
:1078b0008a003700e48f54001a003900e58f540025
:1078c00003003600e98f540016003e000f00370019
