:020000040000fa
:080000000002040000000000f2
:020000040000fa
:100400000f7223000e7f24000e0188000000000000
:100410000c00070000a820000100200011000700c8
:10042000000020000000e000020032000000020096
:1004300000000000887c0200000000000040da009c
:100440000000fe004440a90020c521000000e0009b
:100450000300320000002000a00188004440a800f2
:100460000000060091018800800078000000eb0089
:1004700015003700e280400032a0b4009101ba00bc
:10048000e280400032a0b4009102ba00e280400055
:1004900032a0b4000002eb00472bde00f507b200eb
:1004a000602ce10004003a000059eb008301e900f0
:1004b000fdff3e00040037006128e100010032002a
:1004c0000082eb00040007001101ba000200e00006
:1004d000e8ff3a00000006003159ba008301e90044
:1004e0000c0032002159ba008301e90008003200f3
:1004f0000400e00003003a00e280400032a0b400b3
:10050000f5ff370011d9ba008301e900faff3a007c
:100510008100e800e180400032a0b4000000060045
:1005200000000000000000000000000000000000cb
:1005300000000000000000000000000000000000bb
:1005400000000000000000000040da000000fe0093
:10055000839f68000100e00002003d006000100081
:10056000e08018000300e00002003d00600111007f
:10057000e0811900050007004f00e00002003b0089
:1005800060001000e0801800000006006022b80043
:10059000060220000000d0008180d2000482d20038
:1005a0008582d2000000a0000202520083825a001d
:1005b000030031000202420083824a000000a100d1
:1005c0000603e900f3ff3a0000000600020ab90042
:1005d000001bb9000200b800810042008100430006
:1005e00000000600800178000001780031407800aa
:1005f000005978000004e000fcff3a000300780096
:1006000000000600889fbe008a9fbe008c9fbe002f
:100610000001780061ef20001100e0000b003a00bb
:10062000a0ef2000b077880090778800d17788000d
:10063000a1778800214090000004a000a04098000d
:10064000614090000004a000e0409800e7004100f5
:10065000c208de00c20cdd00a47780000d0121007d
:10066000007223000d05500022002000811f780039
:10067000110009000205d80000067800cf007800bc
:10068000c308dd00e48540008001eb000601210085
:1006900065ef20000100370001027800244090003f
:1006a0000008a300020032000a003700110a780097
:1006b00094007800214090000008a300fbff320066
:1006c00009014200828f500002003900840f51005e
:1006d0004600310094007800848f5000eeff3e0009
:1006e000868f500002003900858f5000eaff3900e4
:1006f00090778000800f52004f003a00858f5000a5
:100700004d003a008301e800e18f5100e2ff36001e
:100710008c8f5400040036008a8f54000200310090
:100720000b04780012003700614ab8006151b9002b
:10073000b0ff2f000100200002005000838058000d
:10074000800f5200818f5a000200350009047800a2
:10075000070037000d805400327223000200400071
:10076000110009000a80d8000a80b900000478004e
:10077000080078006f00070080017800e10f40005a
:100780002d00320090778000030878009277800077
:1007900064004100a2409000808f510002003200ae
:1007a0000104a000010037000104a10021419800cc
:1007b000088041006400500080097800907788002c
:1007c00062ef2000020878009177800021409000bd
:1007d0000004a000a0409800234090000004a10065
:1007e000a041980002027800a7ff3700a277880096
:1007f000828f5000090036009200780000ef200040
:10080000a2419000034878007177880014097800ad
:100810008040eb00a077800021409800a077800006
:10082000000a7800244090000004a00020429800b4
:1008300064004200010037000000eb004f06be00dc
:100840004f05be004f04be000000060064005000cb
:10085000a0778800a04090000104a10021409800ea
:1008600000000600889fbe008a9fbe000005780039
:10087000e401500013001000c285de002340900008
:100880000008a30004003200a377880023409000f2
:100890000004a100a04198000100780059ff070062
:1008a000000478000000e000170032008a0f5000ba
:1008b0001500320060b8970008005000c284de00c6
:1008c000898f550001003600890578004259dd0006
:1008d0008a007800080078000f0007008a0f540093
:1008e000090031004248dd00000044008a0f50003a
:1008f000050036000a0050000000440072778000b6
:10090000837780000288be00080078004f05be0093
:100910004f04be00000006008001eb00020037001b
:1009200061f079008301e800828f5100fcff3a00fa
:1009300000000600889fbe0080047800f0778000e9
:100940000000e00003003a00100007000000e00093
:100950000a003500f07780000900e00002003a004c
:100960000004780006003700000478000900400009
:10097000060007000000e00001003d000084eb00dd
:10098000080078004f04be000000060080007800d8
:100990000000e00004003a0000012100f077880028
:1009a00001017800060037000081eb00007223008f
:1009b000808f500002003e00f17788000001eb00bc
:0809c0000200780000000600af
:020000040000fa
:020000040001f9
:0457f800fe4300006c
:020000040000fa
:020000040001f9
:0457fc007f3e0000ec
:020000040000fa
:10000800a4020000a4020000c67f0000ea7f0000ee
:100018000e800000a4020000a4020000a402000058
:10002800a4020000a4020000a4020000a402000030
:10003800a4020000a4020000a4020000a402000020
:1000480084410000a4020000287f0000a4020000f0
:10005800a4020000a4020000a4020000a402000000
:10006800a4020000a4020000a4020000a4020000f0
:100078008e7f0000a4020000a4020000a402000079
:10008800a4020000a4020000a4020000be7e00003a
:10009800a4020000a4020000a4020000a4020000c0
:1000a800a4020000a4020000a4020000a4020000b0
:1000b800a4020000a4020000a4020000a4020000a0
:1000c800a4020000a4020000a4020000a402000090
:1000d800a4020000a4020000a4020000a402000080
:1000e800a4020000a4020000a4020000a402000070
:1000f800a4020000a4020000a4020000a402000060
:10010800a4020000a4020000a4020000a40200004f
:10011800a4020000a4020000a4020000a40200003f
:10012800a4020000a4020000a4020000a40200002f
:10013800a4020000a4020000a4020000a40200001f
:10014800a4020000a4020000a4020000a40200000f
:10015800a4020000a4020000a4020000a4020000ff
:10016800a4020000a4020000a4020000a4020000ef
:10017800a4020000a40200003e660000a4020000e1
:10018800a4020000a4020000a4020000a4020000cf
:10019800a4020000a4020000a4020000a4020000bf
:1001a800a4020000a4020000a4020000a4020000af
:1001b800a4020000a4020000a4020000a40200009f
:1001c800a4020000a4020000a4020000a40200008f
:1001d800a4020000a4020000a4020000a40200007f
:1001e800a4020000a4020000a4020000a40200006f
:0801f800a4020000a4020000b3
:020000040000fa
:10020800a4020000a4020000c67f0000ea7f0000ec
:100218000e800000a4020000a4020000a402000056
:10022800a4020000a4020000a4020000a40200002e
:10023800a4020000a4020000a4020000a40200001e
:1002480084410000a4020000287f0000a4020000ee
:10025800a4020000a4020000a4020000a4020000fe
:10026800a4020000a4020000a4020000a4020000ee
:100278008e7f0000a4020000a4020000a402000077
:10028800a4020000a4020000a4020000be7e000038
:10029800a4020000a4020000a4020000a4020000be
:1002a800a4020000a4020000a4020000a4020000ae
:1002b800a4020000a4020000a4020000a40200009e
:1002c800a4020000a4020000a4020000a40200008e
:1002d800a4020000a4020000a4020000a40200007e
:1002e800a4020000a4020000a4020000a40200006e
:1002f800a4020000a4020000a4020000a40200005e
:10030800a4020000a4020000a4020000a40200004d
:10031800a4020000a4020000a4020000a40200003d
:10032800a4020000a4020000a4020000a40200002d
:10033800a4020000a4020000a4020000a40200001d
:10034800a4020000a4020000a4020000a40200000d
:10035800a4020000a4020000a4020000a4020000fd
:10036800a4020000a4020000a4020000a4020000ed
:10037800a4020000a40200003e660000a4020000df
:10038800a4020000a4020000a4020000a4020000cd
:10039800a4020000a4020000a4020000a4020000bd
:1003a800a4020000a4020000a4020000a4020000ad
:1003b800a4020000a4020000a4020000a40200009d
:1003c800a4020000a4020000a4020000a40200008d
:1003d800a4020000a4020000a4020000a40200007d
:1003e800a4020000a4020000a4020000a40200006d
:0803f800a4020000a4020000b1
:020000040000fa
:1028000096010000a0010000aa010000b401000030
:10281000be010000c8010000d2010000dc01000080
:10282000e6010000aa0a0000a40a00009e0a0000b7
:10283000940100009e010000a8010000b201000008
:10284000bc010000c6010000d0010000da01000058
:10285000e4010000a80a0000a20a00009c0a00008f
:10286000900100009a010000a4010000ae010000e8
:10287000b8010000c2010000cc010000d601000038
:10288000e0010000a60a0000a00a00009a0a000069
:1028900045520000523a0000200000002d000000c8
:1028a000530000003a200000000a00000d00000064
:1028b00042000000505000004d3a0000002000008f
:1028c00045450000505200004f4d000020770000a9
:1028d0006f720000647300002075000073650000d3
:1028e000642e00000a0d0000004c00006f61000023
:1028f000646900006e6700002073000061760000cc
:1029000065640000207300006574000074690000b5
:102910006e670000732e00002e2e00000a0d0000ce
:10292000004400006f6e0000650a00000d0000000a
:1029300053610000766900006e67000020530000bc
:1029400065740000746900006e670000732e00005b
:102950002e2e0000004400006f6e0000652e000067
:102960000a0d0000002a00002a2a0000526500001b
:1029700073650000742000004f7500007470000043
:1029800075740000732e00002a2a00002a0a000035
:102990000d0000004c2d000053740000696300001e
:1029a0006b200000582d0000617800006973000062
:1029b000004c00002d53000074690000636b0000a0
:1029c000205900002d6100007869000073000000ac
:1029d000522d000053740000696300006b2000005a
:1029e000582d00006178000069730000005200005b
:1029f0002d53000074690000636b00002059000033
:102a00002d61000078690000730000004c2d00006b
:102a10005472000069670000206100006e610000d0
:102a20006c6f000067000000522d0000547200001f
:102a300069670000206100006e6100006c6f00009b
:102a400067000000546f00007563000068700000ac
:102a500061640000204c00006566000074200000e6
:102a6000205800002d61000078690000730000000c
:102a7000546f00007563000068700000616400001e
:102a8000204c000065660000742000002059000002
:102a90002d6100007869000073000000546f000091
:102aa000756300006870000061640000205200003f
:102ab0006967000068740000205800002d61000064
:102ac0007869000073000000546f00007563000017
:102ad0006870000061640000205200006967000017
:102ae00068740000205900002d6100007869000022
:102af00073000000582d0000546900006c74000041
:102b0000005900002d540000696c000074000000a2
:102b100053680000617200006520000062750000cb
:102b2000747400006f6e0000004c00002d53000014
:102b300074690000636b000020620000757400007f
:102b4000746f00006e000000522d000053740000ee
:102b5000696300006b20000062750000747400005f
:102b60006f6e0000004f000070740000696f00007d
:102b70006e7300002062000075740000746f000026
:102b80006e000000442d0000506100006420000031
:102b900055700000004400002d50000061640000ea
:102ba00020520000696700006874000000440000c3
:102bb0002d50000061640000204400006f77000089
:102bc0006e000000442d00005061000064200000f1
:102bd0004c65000066740000004c00002d5400009d
:102be00072690000672000006275000074740000c4
:102bf0006f6e0000005200002d540000726900004a
:102c00006720000062750000747400006f6e0000a1
:102c1000004c00002d420000756d00007065000042
:102c200072000000522d0000427500006d7000001f
:102c3000657200000054000072690000616e0000bf
:102c4000676c00006520000062750000747400006d
:102c50006f6e00000043000069720000636c0000aa
:102c60006520000062750000747400006f6e000043
:102c700000430000726f00007373000020620000c8
:102c800075740000746f00006e0000005371000046
:102c9000756100007265000020620000757400001c
:102ca000746f00006e0000005053000020620000ae
:102cb00075740000746f00006e000000546f000017
:102cc000756300006870000061640000206200000d
:102cd00075740000746f00006e000000ca9400005c
:102ce000d9940000e8940000f794000006950000d5
:102cf0001495000022950000389500004e950000c4
:102d0000649500007a950000819500008895000088
:102d100095950000a4950000b3950000c2950000b1
:102d2000cb950000d7950000e2950000ed950000de
:102d3000fb95000009960000129600001b9600000b
:102d40002b9600003996000046960000549600002d
:102d50005e96000045720000726f0000723a00003b
:102d6000204900006e64000065780000206f0000bc
:102d700075740000206f0000662000007261000082
:102d80006e670000652e0000200a00000d000000a4
:102d900043680000616e00006e6500006c2000005a
:102da000004c00006f610000646900006e67000065
:102db0002064000065660000617500006c7400000e
:102dc0002073000065740000746900006e670000e5
:102dd00073200000666f000072200000004c0000ad
:102de0006f610000646900006e67000020610000f0
:102df0006c6c0000206400006566000061750000d6
:102e00006c74000020730000657400007469000099
:102e10006e670000732e00002e2e0000004500009b
:102e200045500000524f00004d2000007772000016
:102e3000697400006520000065720000726f000078
:102e4000723a0000200000003d3d00003d450000ba
:102e50006e74000065720000696e0000672000005b
:102e6000436f00006e66000069670000204d00009f
:102e70006f640000653a00000a0d00000a0d0000b2
:102e80002a500000726500007373000020270000c4
:102e90004573000063270000207400006f200000cd
:102ea00064690000737000006c610000792000000c
:102eb000636f00006e660000696700002067000015
:102ec00075690000646500003d3d00003d0a00009a
:102ed0000d0a00000d000000457800006974000034
:102ee000696e000067200000436f00006e660000fe
:102ef00069670000204d00006f640000652e00002f
:102f00000a0d00000053000050490000204200005c
:102f100075730000204d00006f6400006520000004
:102f2000300a00000d00000053500000492000004e
:102f300042750000732000004d6f000064650000c2
:102f4000203100000a0d000000530000504900002d
:102f50002042000075730000204d00006f640000e7
:102f600065200000320a00000d00000053500000f0
:102f70004920000042750000732000004d6f0000e2
:102f800064650000203300000a0d000000450000c9
:102f9000525200004f5200002053000050490000e0
:102fa0002042000055530000204d00004f44000017
:102fb000450a00000d000000496400006c65000037
:102fc00020610000757400006f2d00006f66000026
:102fd000662000007365000074200000746f00001c
:102fe00020310000302000006d6900006e2e0000ce
:102ff0000a0d000000490000646c0000652000001c
:1030000061750000746f00002d6f0000666600009f
:103010002064000069730000616200006c650000bc
:10302000642e00000a0d0000005400006f670000cd
:10303000676c000065640000206f0000757400007c
:10304000707500007473000020720000657300004a
:1030500065740000206f00006e20000064690000ad
:10306000736300006f6e00006e6500006374000003
:103070002e0a00000d000000546f0000676700007a
:103080006c650000642000006f7500007470000023
:1030900075740000732000007072000065730000fa
:1030a0006572000076650000642000006f6e00000d
:1030b0002064000069730000636f00006e6e000002
:1030c00065630000742e00000a0d0000004c000033
:1030d000454400002042000072690000676800005b
:1030e000746e000065730000733a00002000000059
:1030f0004c45000044200000436f00006c6f00004e
:10310000722000005365000074740000696e0000b6
:10311000673a000020000000426c00007565000066
:103120000052000065640000004f00007261000062
:103130006e67000065000000596500006c6c0000bf
:103140006f770000004c0000696d00006500000012
:1031500047720000656500006e00000054750000b5
:1031600072710000756f0000697300006500000057
:1031700050750000727000006c6500000050000087
:10318000696e00006b000000576800006974000061
:10319000650000004144000043000000426100005f
:1031a0007474000065720000790000004572000030
:1031b000726f000072000000505000004d200000af
:1031c0004f7500007470000075740000204d000001
:1031d0006f640000652000003d20000000540000e6
:1031e000726900006d2000003d20000000540000c6
:1031f0006f750000636800007061000064200000cb
:103200004d6f000064650000203d00002056000066
:103210006972000074750000616c0000204a0000b3
:103220006f79000073740000696300006b0a00008e
:103230000d000000546f000075630000687000000e
:1032400061640000204d00006f64000065200000f4
:103250003d200000546f000075630000687000009e
:10326000616400000a0d0000005400006f7500004a
:10327000636800007061000064200000537000006b
:103280006c690000742000003d2000004f6e0000bb
:103290000a0d0000005400006f7500006368000014
:1032a0007061000064200000537000006c69000031
:1032b000742000003d2000004f660000660a0000f8
:1032c0000d00000053650000727600006f2f0000b3
:1032d0004d6f0000746f000072200000466f000008
:1032e0007277000061720000642e00000a0d000079
:1032f0000053000065720000766f00002f4d000043
:103300006f7400006f7200002052000065760000ac
:1033100065720000736500002e0a00000d000000b9
:10332000506f000073690000746900006f6e000048
:10333000206900006e70000075740000206d0000b0
:103340006f640000652e00000a0d000000490000b7
:103350006e630000726500006d6500006e74000011
:10336000616c0000206900006e7000007574000040
:10337000206d00006f640000652e00000a0d000043
:103380000053000065720000766f0000206e0000a0
:103390006f74000020720000656d00006170000015
:1033a00070650000642e00000a0d0000005300004c
:1033b00065720000766f000020720000656d0000ed
:1033c000617000007065000064200000746f0000f0
:1033d000204400002d70000061640000206c00009b
:1033e00065660000742f00007269000067680000c5
:1033f000742e00000a0d00000053000065720000ea
:10340000766f000020720000656d000061700000a2
:103410007065000064200000746f0000204400000c
:103420002d7000006164000020750000702f000006
:10343000646f0000776e00002e0a00000d0000008f
:1034400053650000727600006f2000007265000076
:103450006d61000070700000656400002074000061
:103460006f2000007371000075610000726500003c
:103470002f63000069720000636c0000652e00007d
:103480000a0d00000053000065720000766f000016
:1034900020720000656d0000617000007065000022
:1034a00064200000746f0000204400002d700000b4
:1034b000616400002074000072690000616e000009
:1034c000676c0000652f0000637200006f730000de
:1034d000732e00000a0d000000530000657200000a
:1034e000766f000020720000656d000061700000c2
:1034f0007065000064200000746f0000204400002c
:103500002d70000061640000206c00006566000002
:10351000742f0000726900006768000074200000ca
:10352000627500006d70000065720000732e00006f
:103530000a0d00000053000065720000766f000065
:1035400020720000656d0000617000007065000071
:1035500064200000746f0000206c000065660000ad
:10356000742f00007269000067680000742000007a
:103570006a6f00007973000074690000636b0000db
:103580002070000075730000686200007574000010
:10359000746f00006e7300002e0a00000d00000022
:1035a00053650000727600006f2000007265000015
:1035b0006d61000070700000656400002074000000
:1035c0006f2000007368000061720000652f00002a
:1035d0006f700000746900006f6e0000732e0000b1
:1035e0000a0d000000450000727200006f720000ba
:1035f0002e0a00000d0000005472000069670000f0
:1036000067650000722000004c6900006e6b0000ce
:10361000204f00006e2e00000a0d00000054000034
:10362000726900006767000065720000204c0000ae
:10363000696e00006b2000004f660000662e0000df
:103640000a0d0000004c00006566000074200000b8
:1036500053740000696300006b200000446900009f
:103660006666000065720000656e00007469000007
:10367000616c0000204d000069780000204f0000c0
:103680006e2e00000a0d0000004c00006566000070
:103690007420000053740000696300006b20000078
:1036a000446900006666000065720000656e0000f7
:1036b00074690000616c0000204d00006978000012
:1036c000204f0000666600002e0a00000d0000007a
:1036d0005269000067680000742000005374000005
:1036e000696300006b20000044690000666600000a
:1036f00065720000656e000074690000616c000076
:10370000204d000069780000204f00006e2e000060
:103710000a0d000000520000696700006874000094
:103720002053000074690000636b00002044000017
:103730006966000066650000726500006e74000036
:10374000696100006c2000004d69000078200000d5
:103750004f660000662e00000a0d0000004d0000bc
:1037600065630000616e0000756d0000205300006d
:103770007465000065720000696e0000672000003b
:103780004d690000782000004f660000662e0000a2
:103790000a0d0000004d000065630000616e00002e
:1037a000756d000020530000746500006572000014
:1037b000696e0000672000004d690000782000005d
:1037c0004f6e00002e0a00000d0000004d65000045
:1037d000636100006e7500006d20000053740000ee
:1037e00065650000726900006e670000204d0000f2
:1037f00069780000204f00006e2c0000207200004d
:10380000656d0000617000002072000069670000b3
:10381000687400002073000074690000636b00008e
:10382000207900002d6100007869000073200000fd
:10383000746f0000200000005374000069630000f2
:103840006b200000486f00006c6400002f520000e5
:1038500065630000616c00006c200000646900007a
:1038600073610000626c0000656400002e0a0000b5
:103870000d00000053740000696300006b2000001d
:10388000486f00006c6400002f5200006563000068
:10389000616c00006c200000746900006564000029
:1038a000207400006f2000004c2d000053740000b5
:1038b000696300006b200000427500007474000012
:1038c0006f6e00002e0a00000d000000537400000f
:1038d000696300006b200000486f00006c6400000a
:1038e0002f52000065630000616c00006c20000036
:1038f0007469000065640000207400006f200000ff
:10390000522d000053740000696300006b2000001a
:1039100042750000747400006f6e00002e0a0000f3
:103920000d000000526100006e670000652000007d
:103930004f6600006673000065740000203d0000c3
:1039400020000000526100006e670000652000004a
:103950003d2000000044000065610000646200003a
:10396000616e0000642000003d2000000053000054
:10397000656e0000736900007469000076690000dc
:1039800074790000203d000020000000486f000016
:103990006d650000205000006f7300006974000026
:1039a000696f00006e2000003d2000000043000011
:1039b000616c0000696200007261000074690000bf
:1039c0006e670000204100006c6c00002048000081
:1039d0006f6d000065200000506f000073690000eb
:1039e000746900006f6e0000732e00002e2e000020
:1039f000004f000075740000707500007420000016
:103a0000496e000076650000727400006564000075
:103a10002e0a00000d0000004f75000074700000b9
:103a200075740000204e00006f7200006d61000090
:103a30006c2e00000a0d0000004f0000757400009d
:103a40007075000074200000546f0000676700006c
:103a50006c6500002e0a00000d0000004f7500008c
:103a6000747000007574000020530000696e00003f
:103a7000676c000065200000536800006f74000050
:103a80002e0a00000d0000004f7500007470000049
:103a90007574000020410000757400006f6600001e
:103aa00069720000652e00000a0d0000004f000042
:103ab000757400007075000074200000546f0000e1
:103ac000676700006c65000020410000757400000d
:103ad0006f66000069720000652e00000a0d00008c
:103ae000004f000075740000707500007420000025
:103af0005075000073680000627500007474000067
:103b00006f6e00002e0a00000d00000045520000fc
:103b1000524f0000522000004f550000545000004a
:103b200055540000204d00004f440000452e000079
:103b30000a0d000000500000756c00007365000065
:103b40005769000064740000682000003d200000f8
:103b500000300000206d0000730a00000d0000001e
:103b600041750000746f0000666900007265000016
:103b70002050000065720000696f000064200000a2
:103b80003d200000000a00000d3d00003d3d00000a
:103b9000476500006e650000726100006c20000047
:103ba0005365000074740000696e000067730000c4
:103bb0003d3d00003d0a00000d000000456e000084
:103bc0007465000072200000636f00006e660000e4
:103bd00069670000206d00006f640000653a000016
:103be000204800006f6c000064200000505300006b
:103bf0002042000075740000746f00006e20000009
:103c00002b20000053680000617200006520000056
:103c10003320000073650000636f00006e640000d5
:103c2000730a00000d00000053610000766500007b
:103c3000206100006e6400002065000078690000cb
:103c4000743a0000204800006f6c000064200000ff
:103c50004f700000746900006f6e0000730a00006e
:103c60000d0000004c6f0000616400002064000043
:103c700065660000617500006c740000733a000016
:103c8000204800006f6c00006420000053680000b2
:103c900061720000652000003120000073650000a3
:103ca000636f00006e640000202800006375000050
:103cb00072720000656e00007420000063680000ee
:103cc000616e00006e6500006c2900002f3300005b
:103cd00020730000656300006f6e000064730000d5
:103ce00020280000616c00006c2000006368000068
:103cf000616e00006e6500006c730000290a000010
:103d00000d00000043790000636c00006520000096
:103d1000746f0000206e000065780000742f0000b2
:103d20007072000065760000696f00007573000016
:103d300020630000686100006e6e0000656c00008a
:103d4000203a0000205200002f4c000020420000ca
:103d5000756d000070650000720a00000d00000023
:103d600043790000636c00006520000053500000a0
:103d70004920000062750000732000006d6f000094
:103d800064650000733a0000205200002d530000cb
:103d900074690000636b0000202b000020540000b9
:103da00072690000616e0000676c0000650a000027
:103db0000d000000456e0000616200006c650000af
:103dc0002f44000069730000616200006c65000010
:103dd00020690000646c000065200000617500002f
:103de000746f00002d64000069730000636f0000b1
:103df0006e6e000065630000743a000020520000ff
:103e00002d53000074690000636b0000202b00003c
:103e100020430000726f0000737300000d0a000061
:103e200000500000726500007365000072760000ab
:103e3000652f0000526500007365000074200000cb
:103e40006f7500007470000075740000732000002e
:103e50006f6e0000206300006f6e0000747200003f
:103e60006f6c00006c650000722000006469000047
:103e7000736300006f6e00006e65000063740000e5
:103e80003a200000522d00005374000069630000c6
:103e90006b2000002b200000505300002042000047
:103ea00075740000746f00006e0a00000d000000c1
:103eb00043680000616e000067650000206c000030
:103ec00069670000687400006261000072200000f1
:103ed0006272000069670000687400006e6500008f
:103ee000737300003a2000004c2d00005374000052
:103ef000696300006b2000002b200000442d0000af
:103f000050610000642000004c65000066740000f1
:103f10002f52000069670000687400000a0d00005d
:103f200000430000686100006e670000652000002b
:103f30006c69000067680000746200006172000034
:103f4000206300006f6c00006f7200003a200000d8
:103f50004c2d000053740000696300006b200000ca
:103f60002b2000005368000061720000650a000009
:103f70000d000000546f0000676700006c650000d2
:103f80002052000043200000505000004d2000004f
:103f90004d6f000064650000206f00006e2000007f
:103fa00063680000313100003a2000004c2d000011
:103fb00053740000696300006b2000002b20000098
:103fc0004f700000746900006f6e0000730a0000fb
:103fd0000d0000000a0d00003d3d00003d530000b3
:103fe00065720000766f000020410000646a0000e6
:103ff00075730000746d0000656e0000747300003e
:104000003d3d00003d0a00000d000000546f00001f
:10401000676700006c6500002061000062730000ab
:104020006f6c00007574000065200000706f000068
:1040300073690000746900006f6e00002f69000052
:104040006e630000726500006d6500006e74000014
:10405000616c0000206d00006f640000653a000094
:10406000205200002d53000074690000636b0000b3
:10407000202b0000205200002d420000756d000032
:1040800070650000720a00000d000000496e00001b
:104090007665000072740000206400006972000000
:1040a00065630000746900006f6e00003a20000034
:1040b000522d000053740000696300006b20000063
:1040c0002b2000004c2d0000427500006d70000098
:1040d000657200000a0d000000530000656e0000cc
:1040e000736900007469000076690000747900004b
:1040f0003a20000054720000696100006e67000001
:104100006c6500002f430000726f000073730000a5
:104110000a0d0000004400006561000064620000b8
:10412000616e0000643a00002053000071750000c9
:1041300061720000652f0000436900007263000097
:104140006c6500000a0d000000520000616e000066
:1041500067650000206f0000662000006d6f0000a2
:10416000746900006f6e00003a200000442d0000ca
:104170005061000064200000557000002f440000d2
:104180006f7700006e0a00000d00000054720000fe
:10419000696d000020280000726100006e67000059
:1041a000652000006f660000206d00006f74000045
:1041b000696f00006e2000006c6900006d690000ee
:1041c00074730000206d00006f7600006520000011
:1041d00077690000746800002074000072690000b4
:1041e0006d2900003a200000442d000050610000bd
:1041f000642000004c650000667400002f5200002f
:1042000069670000687400000a0d000000430000a8
:10421000656e000074650000722000006f6600008b
:10422000667300006574000020740000726900006d
:104230006d20000028720000616e000067650000bc
:10424000206f0000662000006d6f000074690000a0
:104250006f6e0000206c0000696d00006974000042
:1042600073200000646f0000206e00006f74000077
:10427000206d00006f760000652900003a200000e4
:10428000522d000053740000696300006b20000091
:104290002b200000442d000050610000642000002d
:1042a0004c650000667400002f5200006967000032
:1042b000687400000a0d0000004a00006f790000d9
:1042c00073740000696300006b2000007a650000d1
:1042d000726f000020630000616c000069620000e2
:1042e00072610000746900006f6e00003a200000e7
:1042f000486f00006c640000205000005320000054
:1043000042750000747400006f6e000020310000e0
:1043100020730000656300006f6e000064200000e1
:104320002863000075720000726500006e74000062
:1043300020630000686100006e6e0000656c000084
:10434000292f00003320000073650000636f000018
:104350006e64000073200000286100006c6c000097
:1043600020630000686100006e6e0000656c000054
:10437000732900000a0d0000005300006572000060
:10438000766f0000206800006f6c0000642f000052
:1043900072650000636100006c6c0000207000001a
:1043a0006f73000069740000696f00006e200000e8
:1043b0006d6f000064650000206500006e61000004
:1043c000626c0000653a0000204c00002d53000094
:1043d00074690000636b0000202b00002043000084
:1043e00069720000636c0000650a00000d000000a7
:1043f00054720000696700006765000072200000c9
:104400006c6900006e6b00003a2000004c2d00002b
:1044100053740000696300006b2000002b20000033
:10442000437200006f730000730a00000d0000006b
:10443000546f000075630000687000006164000044
:10444000206d00006f6400006520000028610000fe
:10445000627300006f6c000075740000652000003e
:10446000706f000073690000746900006f6e0000d7
:10447000207600007320000076690000727400004e
:10448000756100006c2000006a6f00007973000005
:1044900074690000636b0000293a0000205200009c
:1044a0002d53000074690000636b0000202b000096
:1044b000204400002d5000006164000020550000e1
:1044c000700a00000d000000546f000075630000ca
:1044d000687000006164000020730000706c0000d0
:1044e00069740000207600007320000077680000e7
:1044f0006f6c0000653a0000205200002d53000050
:1045000074690000636b0000202b00002044000051
:104510002d50000061640000204400006f7700000f
:104520006e0a00000d0000004a6f00007973000061
:1045300074690000636b000020640000696600007d
:1045400066650000726500006e740000696100001d
:104550006c20000064720000697600006520000095
:104560006d69000078650000722000003a200000ac
:104570004c2d000053740000696300006b200000a4
:104580002b200000437200006f730000730a0000cc
:104590000d0000004a6f000079730000746900008c
:1045a000636b0000206d000065630000616e000019
:1045b000756d00002077000068650000656c0000e4
:1045c000206d000069780000657200003a2000004c
:1045d0004c2d000053740000696300006b20000044
:1045e0002b2000005371000075610000726500000f
:1045f0000a0d000000520000656d000061700000af
:1046000020630000686100006e6e0000656c0000b1
:10461000207400006f2000006275000074740000b8
:104620006f6e00002070000061690000723a0000a7
:10463000205200002d53000074690000636b0000dd
:10464000202b0000205300007175000061720000f3
:10465000650a00000d0000000a0d00003d3d00004d
:104660003d42000075740000746f00006e20000071
:10467000416400006a750000737400006d650000fd
:104680006e740000733d00003d3d00000a0d000007
:104690000054000065730000742000006f75000076
:1046a00074700000757400002077000068690000d5
:1046b0006c650000206300006f6e000066690000fa
:1046c00067750000726900006e6700003a20000004
:1046d000522d000053740000696300006b0a000053
:1046e0000d000000496e0000766500007274000045
:1046f000204f00007574000070750000743a0000cf
:1047000020430000726f0000737300000a0d000068
:1047100000430000686100006e6700006520000033
:1047200062750000747400006f6e0000206d000060
:104730006f640000652000002870000075730000a1
:104740006862000075740000746f00006e2c000039
:10475000207400006f670000676c0000652c00008b
:1047600020650000746300002e2900003a2000003c
:1047700054720000696100006e6700006c65000003
:104780000a0d000000530000696e0000676c000015
:10479000652d0000536800006f7400002f41000079
:1047a000757400006f6600006972000065200000eb
:1047b000707500006c7300006520000077690000d0
:1047c00064740000683a0000204400002d5000008e
:1047d00061640000204c000065660000742f00003a
:1047e0005269000067680000740a00000d000000b4
:1047f000416400006a7500007374000020610000cd
:10480000757400006f66000069720000652000008a
:1048100070650000726900006f6400003a200000bb
:10482000442d00005061000064200000557000001d
:104830002f4400006f7700006e0a00000d0a000090
:104840000d00000072000000710000007000000008
:104850002a2a00002a5200006573000065740000d7
:10486000205300007461000074650000732e000086
:104870002a2a00002a0a00000d000000554100000d
:1048800052540000204900006e6900007469000065
:10489000616c0000697a0000656400002f2e000042
:1048a0000a0d0000004300004d440000206300009a
:1048b0006f6d0000706c000065740000653a0000c8
:1048c000200000005265000073650000742e000097
:1048d0000a0d000000520000656100006420000025
:1048e000416400006472000065730000732e0000d4
:1048f000204c00006f630000616c0000204200004b
:10490000445f000041440000445200003a2000008f
:10491000002e000020530000746f00007269000038
:104920006e67000020610000646400007265000092
:10493000737300002e0a00000d0000000a0d000035
:10494000004c00006f630000616c0000204e00000e
:10495000616d0000652e00000a0d00000057000088
:104960007269000074650000204300006c61000063
:10497000737300002e0a00000d0000005772000043
:10498000697400006520000053630000616e000040
:10499000204500006e610000626c0000652f000081
:1049a0004469000073610000626c0000652e000025
:1049b0000a0d0000004c0000696e00006b20000032
:1049c0004b6500007920000052650000706c00000b
:1049d000792e00000a0d0000004f000074680000ee
:1049e000657200002e0a00000d000000526f0000ea
:1049f0006c65000020430000686100006e670000e5
:104a000065200000537500006363000065730000bb
:104a100073660000756c00002e0a00000d00000097
:104a2000526f00006c6500002043000068610000c8
:104a30006e6700006520000046610000696c0000a0
:104a4000656400002e200000204500007272000006
:104a50006f7200003a200000004900006e710000f3
:104a60007569000072790000204300006f6d00003e
:104a7000706c000065740000650a00000d00000005
:104a8000496e000071750000697200007920000015
:104a900052650000737500006c7400002c2000004b
:104aa000726500006d6f0000746500002042000018
:104ab000445f000041440000445200003a200000de
:104ac000004300006f6e00006e650000637400001c
:104ad000696f00006e200000416300006365000004
:104ae00070740000656400002045000076650000d9
:104af0006e7400003a20000000530000756300004f
:104b000063650000737300002e2000004861000000
:104b10006e6400006c650000203d00002000000075
:104b200045720000726f0000723a00002000000021
:104b3000496e0000636f00006d6900006e67000041
:104b4000204300006f6e00006e650000637400007b
:104b5000696f00006e3a000020520000656d000091
:104b60006f740000655f0000426400005f41000058
:104b700064640000722000003d200000004400003a
:104b800069730000636f00006e6e000065630000d3
:104b90007420000045760000656e0000743a000045
:104ba000200000005375000063630000657300007f
:104bb000732e000000450000727200006f7200004a
:104bc0002e000000456e0000637200007970000046
:104bd000746900006f6e00002063000068610000cf
:104be0006e670000653a0000004300006861000045
:104bf0006e6e0000656c0000204500006e630000d2
:104c00007279000070740000696f00006e2000006f
:104c10004f6e00002e200000486100006e6400000e
:104c20006c6500003d000000436f00006d6d0000ea
:104c3000616e000064200000537400006174000085
:104c40007573000020450000766500006e7400005a
:104c50003a20000000500000656e0000646900000a
:104c60006e6700002e00000045720000726f0000a9
:104c70007220000030780000303200003a2000003e
:104c8000556e00006b6e00006f7700006e20000014
:104c9000436f00006e6e00006563000074690000e1
:104ca0006f6e000020490000442e00000045000007
:104cb000727200006f720000204300006f640000f9
:104cc000653a0000004c0000696e00006b20000097
:104cd0004b650000792000005265000071750000ee
:104ce00065730000742e0000202000004244000084
:104cf0005f41000044440000523a0000004d0000b3
:104d000061780000205300006c6f00007473000095
:104d100020430000686100006e670000652e0000ff
:104d20000a0d0000004300006f640000653d0000b4
:104d300030780000303100002e200000436f00006a
:104d40006d6d0000616e000064200000526500007f
:104d50006a65000063740000656400002e0a0000ac
:104d60000d000000436f0000646500003d3000004e
:104d700078300000322e0000284300006f6e0000e3
:104d80006e65000063740000696f00006e20000013
:104d900052650000712900002e00000050530000f1
:104da0004d3d000030780000303000003031000010
:104db0002028000053440000502900002e2000004d
:104dc00053430000494400003d00000050530000e0
:104dd0004d3d0000307800003030000031310000df
:104de0002028000048490000445f000043540000b0
:104df000524c0000292e00002053000043490000bf
:104e0000443d000000500000534d00003d300000c4
:104e10007830000030310000332e000020530000b5
:104e200043490000443d0000002100002121000012
:104e300045720000726f0000723a000020500000be
:104e4000534d0000206e00006f74000020730000be
:104e500075700000706f00007274000065640000df
:104e60002e0a00000d000000436f00006e6e00006f
:104e700065630000746900006f6e0000204300004d
:104e80006f6d0000706c000065740000653a0000f2
:104e90000053000075630000636500007373000039
:104ea0002e2000000048000049440000204300007c
:104eb000545200004c20000028500000534d0000c8
:104ec0002030000078310000312900000a0d000078
:104ed0000048000049440000204400004154000004
:104ee0004120000028500000534d000020300000f9
:104ef00078310000332900000a0d00000055000041
:104f00006e6b00006e6f0000776e00000a0d0000ef
:104f100000500000656e0000646900006e670000cc
:104f20002e2e00002e0a00000d0000004661000039
:104f3000696c000075720000652e000020450000bd
:104f4000727200006f7200003a000000436f0000b0
:104f5000646500003d300000783000003428000017
:104f6000436f00006e660000696700002052000079
:104f700065710000293a0000004800004944000023
:104f8000204300006f6e0000747200006f6c000020
:104f900020430000686100006e6e0000656c000038
:104fa0002e0a00000d0000004849000044200000c7
:104fb000446100007461000020430000686100004b
:104fc0006e6e0000656c00002e0a00000d000000ef
:104fd000534400005020000043680000616e000050
:104fe0006e6500006c2e00000a0d0000002100001c
:104ff0002121000045720000726f0000723a00002b
:10500000205500006e6b00006e6f0000776e000090
:1050100020430000686100006e6e0000656c0000b7
:1050200020490000442e00000a0d0000004300004b
:105030006f640000653d00003078000030350000ee
:10504000284300006f6e00006669000067200000c2
:105050005265000073700000292e0000200000003f
:10506000537500006363000065730000730a00005d
:105070000d00000046610000696c00002e0a00006f
:105080000d00000044690000736300006f6e0000b3
:105090006e650000637400002072000065710000fe
:1050a00075650000737400003a00000020440000a1
:1050b00041540000412e00000a0d000000200000b5
:1050c00043540000524c00002e0a00000d00000066
:1050d00020530000445000002e0a00000d00000084
:1050e000205500006e6b00006e6f0000776e0000b0
:1050f00020430000686100006e6e0000656c0000d7
:105100002e0a00000d0000004469000073630000d7
:105110006f6e00006e650000637400002052000096
:1051200065730000706f00006e730000653a000048
:1051300000430000683a000053440000502e000075
:105140000a0d000000530000445000002041000000
:1051500074740000726900006275000074650000dc
:105160002052000065710000756500007374000036
:105170002e0a00000d000000577200006974000044
:1051800065200000436c0000617300007320000084
:1051900045720000726f0000723a000020000000ab
:1051a000202d000020410000434c0000206300003f
:1051b000616e00006e6f00007420000062650000e8
:1051c000207700007269000074740000656e0000b2
:1051d0002000000042540000204f000075740000c1
:1051e00070750000743a0000200000004572000055
:1051f000726f0000723a000020430000616e0000f0
:105200006e6f000074200000666900006e6400008c
:10521000206300006f72000072650000637400007c
:105220002074000079700000652e00000a0d000057
:10523000004900004e490000540a00000d00000023
:1052400048430000495f0000434d0000445f0000f8
:105250005245000053450000543a00002000000071
:1052600048430000495f0000434d0000445f0000d8
:1052700052450000414400005f420000445f0000ce
:1052800041440000445200003a2000000048000061
:10529000434900005f4300004d4400005f4c0000a4
:1052a0004f430000414c00005f4e0000414d0000a4
:1052b000453a00002000000048430000495f00001c
:1052c000434d0000445f0000434c00004153000088
:1052d000535f00004445000056490000434500006c
:1052e0003a20000000480000434900005f430000ee
:1052f0004d4400005f530000434100004e5f00003a
:10530000454e0000414200004c4500003a2000009c
:1053100000480000434900005f4300004d44000086
:105320005f4900004e5100005549000052590000ed
:105330003a20000000480000434900005f4300009d
:105340004d4400005f4300005245000041540000fe
:10535000455f0000434f00004e4e000045430000f3
:10536000544900004f4e00003a2000000048000061
:10537000434900005f4300004d4400005f410000ce
:105380004343000045500000545f0000494e0000b8
:10539000434f00004d4900004e4700002e20000002
:1053a000524f00004c4500002043000048410000df
:1053b0004e470000452000005245000051550000b6
:1053c0004553000054450000443a0000200000000e
:1053d00048430000495f0000434d0000445f000067
:1053e00053430000414e00005f4400004953000059
:1053f000414200004c4500003a200000004c0000f3
:10540000494e00004b5f00004b450000595f000013
:1054100052450000504c0000593a000020000000a6
:105420005343000049440000204300005452000050
:105430004c2000003d200000004c000032430000e2
:10544000415000005f4300004f4e00004e450000f9
:10545000435400005f5200004553000050300000ec
:10546000313a0000200000004c32000043410000af
:10547000505f0000434f00004e46000049470000c7
:105480005f52000045510000303100003a2000001a
:10549000004c000032430000415000005f43000018
:1054a0004f4e000046490000475f00005245000093
:1054b00053500000303100003a200000004c000042
:1054c00032430000415000005f4400004953000097
:1054d000434f00004e4e000045430000545f000063
:1054e00053440000505f000052450000513a000054
:1054f000200000004c32000043410000505f0000db
:1055000044490000534300004f4e00004e45000048
:10551000435400005f52000045530000503000002b
:10552000313a0000200000004c32000043410000ee
:10553000505f0000434f00004e4e00004543000006
:10554000545f00005245000051310000313a000024
:10555000200000004c32000043410000505f00007a
:10556000434f00004e4e000045430000545f0000d2
:105570005245000053500000313100003a20000035
:10558000004c000032430000415000005f43000027
:105590004f4e000046490000475f000052450000a2
:1055a00051310000313a0000200000004c32000070
:1055b00043410000505f0000434f00004e46000092
:1055c000494700005f520000455300005031000081
:1055d000313a00002000000053430000494400001d
:1055e0002044000041540000412000003d20000004
:1055f000004c000032430000415000005f430000b7
:105600004f4e00004e450000435400005f52000022
:105610004553000050310000333a000020000000e4
:105620004c32000043410000505f0000434f000037
:105630004e460000494700005f52000045510000ff
:10564000313300003a200000004c000032430000db
:10565000415000005f4300004f4e000046490000eb
:10566000475f0000524500005350000031330000f6
:105670003a2000000047000045540000204600008a
:105680004541000054550000524500002030000004
:105690007830000032200000285000005334000011
:1056a0005f420000545f0000494e00004954000072
:1056b000293a0000200000004c3200004341000065
:1056c000505f000044490000534300004f4e00006b
:1056d0004e450000435400005f4400004154000068
:1056e000415f000052450000535000003a20000086
:1056f000004c000032430000415000005f440000b5
:1057000049530000434f00004e4e00004543000047
:10571000545f000043540000524c00005f520000f0
:1057200045530000503a0000200000004c320000b9
:1057300043410000505f0000444900005343000013
:105740004f4e00004e450000435400005f440000ef
:1057500041540000413a000020000000484300008e
:10576000495f000044490000534300004f4e0000d1
:105770004e450000435400003a2000000055000050
:105780006e6b00006e6f0000776e0000204400001a
:10579000656d00006f20000053740000617400000c
:1057a000652e00000a0d0000005200006561000037
:1057b0006420000042610000636b00002041000093
:1057c00044440000522e00000a0d00000057000063
:1057d00061690000746900006e67000020660000c7
:1057e0006f720000207200006561000064200000fc
:1057f000746f0000206300006f6d0000706c00008b
:1058000065740000652e00002e2e00000050000080
:105810006169000072200000436f00006e74000098
:10582000726f00006c6c0000657200002077000051
:1058300069740000682000006c610000737400004f
:10584000204200006c750000657400006f6f00005e
:1058500074680000206400006f6e0000676c000038
:10586000652e00002e2e00000a0d000000570000db
:1058700061690000746900006e6700002066000026
:105880006f720000207700007269000074650000ec
:10589000207400006f200000636f00006d70000036
:1058a0006c650000746500002e2e00002e000000c4
:1058b000446f00006e6500002e20000000440000d0
:1058c00065760000696300006520000057720000e3
:1058d000697400006520000045720000726f0000ce
:1058e00072200000210d00000a0000005365000036
:1058f0007420000052650000706f00007274000098
:105900002030000078310000343a000000530000dd
:105910007563000063650000737300002e0a0000c9
:105920000d000000496e000069740000696100000c
:105930006c6900007a650000204300006f6e000073
:10594000747200006f6c00006c650000722e000025
:105950000a0d0000002000002d200000446500001a
:105960007669000063650000205200006561000058
:105970006420000045720000726f00007220000079
:10598000210d00000a000000476500006e65000060
:105990007269000063200000646500006d6f000004
:1059a0002064000065760000696300006520000047
:1059b00061740000746100006368000065640000a9
:1059c000202d000020650000766500006e74000048
:1059d0002c2000006465000076690000636500000b
:1059e000416400006472000065730000733d0000b4
:1059f000000d00000a000000476500006e65000011
:105a00007269000063200000646500006d6f000093
:105a100020640000657600006963000065200000d6
:105a20006465000074610000636800006564000044
:105a3000202d000020650000766500006e740000d7
:105a40000d0a0000000d00000a2a00002a2a0000aa
:105a50002a2a000020550000534200002045000083
:105a6000727200006f720000202d0000206800009c
:105a70007562000073200000617200006520000064
:105a80006e6f0000742000007375000070700000dd
:105a90006f72000074650000642000002a2a000074
:105aa0002a2a00002a0d00000a0000000d0a00004a
:105ab0002a2a00002a2a00002a200000555300004c
:105ac0004220000045720000726f0000722000004a
:105ad0002d20000064650000766900006365000009
:105ae00020690000732000006e6f00007420000029
:105af00073750000707000006f7200007465000024
:105b0000642000002a2a00002a2a00002a0d000032
:105b10000a0000000d0a00002a2a00002a2a0000bc
:105b20002a2000005553000042200000457200006a
:105b3000726f0000722000002d20000063610000e1
:105b40006e6e00006f740000206500006e7500002e
:105b50006d65000072610000746500002064000043
:105b60006576000069630000652000002a2a0000b5
:105b70002a2a00002a0d00000a0000000d0a000079
:105b80002a2a00002a2a00002a200000555300007b
:105b90004220000045720000726f00007220000079
:105ba0002d200000636c0000696500006e74000029
:105bb0002064000072690000766500007220000019
:105bc000696e000069740000696100006c69000082
:105bd0007a610000746900006f6e000020650000ab
:105be000727200006f720000202a00002a2a000052
:105bf0002a2a00000d0a0000000d00000a2a0000f9
:105c00002a2a00002a2a00002055000053420000e2
:105c100020450000727200006f720000202d00000d
:105c2000206f000075740000206f000066200000e7
:105c30006865000061700000206d0000656d000067
:105c40006f720000792000002a2a00002a2a000032
:105c50002a0d00000a0000000d0a00002a2a000098
:105c60002a2a00002a20000055530000422000008c
:105c700045720000726f0000722000002d200000ad
:105c8000756e0000737000006563000069660000b7
:105c900069650000642000002a2a00002a2a00000a
:105ca0002a0d00000a000000332e000031300000f1
:105cb000003a0000204300006f7500006c64000093
:105cc000206e00006f740000206900006e69000003
:105cd00074690000616c0000697a000065200000b2
:105ce0007379000073740000656d00002e200000c1
:105cf00020480000616c0000746900006e670000bd
:105d00002e0000000d0a00000d0a00002a200000ed
:105d100053650000727600006f530000686f00004a
:105d2000636b000020320000204600006972000012
:105d30006d77000061720000652000005265000070
:105d400076200000002000002a0d00000a0000005c
:105d50003d500000726500007373000020270000b2
:105d60004573000063270000206900006e200000da
:105d7000636f00006e7300006f6c00006520000010
:105d8000746f00002064000069730000706c0000f4
:105d9000617900002071000075690000636b0000ec
:105da000207200006566000065720000656e0000ec
:105db00063650000206700007569000064650000ed
:105dc0003d0a00000d0a00000d0000002043000005
:105dd0006f7500006c640000206e00006f7400009e
:105de000206900006e69000074690000616c0000a9
:105df000697a00006520000055530000422e000023
:105e000020200000486100006c740000696e0000f2
:105e1000672e0000004300006972000063750000f7
:105e200069740000205400006573000074200000b5
:105e30004d6f0000646500002e0a00000d00000098
:105e400046690000726d0000776100007265000015
:105e5000204300006f640000653a0000200000004d
:105e60004e650000772000004657000020440000e7
:105e7000657400006563000074650000642e000016
:105e80000a0d0000004c00006f6100006465000016
:105e9000642000005361000076650000642000006b
:105ea0005365000074740000696e000067730000a1
:105eb0002e2000000a0d000000440000697300005d
:105ec000636f00006e6e000065630000746900007f
:105ed0006e6700002e2e00002e0a00000d0000004c
:105ee000496400006c65000020540000696d0000ea
:105ef000656f0000757400002e0a00000d000000a0
:105f000053740000616300006b4500007272000072
:105f10006f720000004d00006174000068200000f6
:105f200045720000726f00007200000053500000c4
:105f30004920000042750000732000004d6f0000f2
:105f400064650000203000000a0d000000530000ce
:105f5000504900002042000075730000204d0000f1
:105f60006f64000065200000310a00000d00000091
:105f700053500000492000004275000073200000cb
:105f80004d6f000064650000203200000a0d000023
:105f900000530000504900002042000075730000cb
:105fa000204d00006f64000065200000330a0000ef
:105fb0000d00000045520000524f0000522000002a
:105fc00053500000492000004255000053200000bb
:105fd0004d4f0000444500000a0d00000000000085
:105fe000496e000069740000203300004420000066
:105ff0004d6f000075730000650a00000d00000081
:10600000496e0000697400002054000068720000ae
:1060100075730000746d000061730000746500000a
:10602000720a00000d000000546500007374000047
:106030002043000061730000653a0000200000006a
:106040000a0d0000005500006e6b00006e6f00002e
:10605000776e00002043000061730000650a0000b5
:106060000d000000303100003233000034350000f4
:106070003637000038390000414200004344000038
:10608000454600004144000044520000204e0000fc
:106090006f740000206600006f7500006e640000e1
:0460a0002e000000ce
:020000040000fa
:1060a400881f78000000eb008008880011a1a90077
:1060b40010c1a9000111200091407800f2ccb30076
:1060c40082c060000144a0008000fd0010e1b70020
:1060d4008000fd001061a9001021a900300888008b
:1060e40080007800074329006600200085412900cc
:1060f400140020000340290082bb200061807b0043
:106104000608780061807a000408780061807900cc
:10611400020878008180e800f88f5000f7ff3a0009
:10612400a0002000400d8800f0032000900c88009f
:10613400e00c8800300d8800800d8800d00d8800a8
:10614400200e8800700e8800c00e8800100f880092
:1061540011e1a80000a026008101200087ed0700be
:1061640008c42900a80c880000d0270001002000e2
:1061740082ed0700f80c880000d027000100200001
:106184007eed0700480d880000d0270001002000a4
:106194007aed0700980d880000d027000100200048
:1061a40076ed0700e80d880000d0270001002000ec
:1061b40072ed0700380e880000d02700010020008f
:1061c4006eed0700880e880000d027000100200033
:1061d4006aed0700d80e880000d0270001002000d7
:1061e40066ed0700280f8800d5c6bf0008ccb300b1
:1061f400084060002041b300d5e6b70092a1a90091
:1062040000a02600810120005ced0700dac6bf0073
:10621400084060003041b300dae6b7009ca1a90051
:1062240000a026008101200054ed0700d3c6bf0062
:10623400084060004041b300d3e6b700a6a1a9001e
:1062440000a02600810120004ced0700dbc6bf0042
:10625400084060005041b300dbe6b700b0a1a900dc
:1062640000a026008101200044ed0700d2c6bf0033
:10627400084060006041b300d2e6b700baa1a900ab
:1062840000a02600810120003ced0700dcc6bf0011
:10629400084060007041b300dce6b700c4a1a90067
:1062a40000a026008101200034ed0700cdc6bf0008
:1062b400084060008041b300cde6b700cea1a9003c
:1062c40000a02600810120002ced0700c1c6bf00fc
:1062d400084060009041b300c1e6b700d8a1a9000e
:1062e40000a026008101200024ed0700c0c6bf00e5
:1062f400084060003042b300c0e6b700e2a1a90044
:106304000001eb009208880013a1a90012c1a900a2
:1063140012c1bf00f1ccb300014060000044a000f2
:1063240012e1b7001221a9005208880013e1a80065
:106334009500a80070c0b300a860b7004f047800af
:1063440000000600889fbe008a9fbe008c9fbe008e
:106354008e1f7800800578000005eb000a0778009e
:106364000d0120007850b900a297200000044100dc
:106374008d0478000006eb000b00e0000d003200f5
:106384008900780018007800d2eb07000087fb0032
:106394000004e0000a00320080442900b9300700fc
:1063a4000e007800f4300700e0442900b5300700ff
:1063b400030037000900780013ea0700000c780096
:1063c40009007800ec30070000452900ad300700d3
:1063d4000a007800e8300700e0442900a9300700eb
:1063e4000c007800e430070020452900a5300700a0
:1063f400380078005831070050452900a1300700c3
:106404008904e8000c06e800ec0f5600daff3a00b5
:106414000a05e800ec864600ec0f5500d1ff3a006f
:106424008006eb00c368dd00a08e200000854000dc
:10643400090478000006eb000b00e00005003200c0
:10644400880078001a007800a2eb07000087fb00a0
:106454000300370008007800ebe90700000d78001e
:106464000e00e00006003200804429008530070059
:106474000e007800c0300700e04429008130070096
:1064840008007800bc300700804529007d300700f3
:106494000d007800b8300700e04429007930070087
:1064a4000c007800b430070020452900753007003f
:1064b4003a00780028310700504529007130070060
:1064c4008800e8000c06e800e40f560002003200e1
:1064d40001047800d8ff37008d06e800e484440006
:1064e400f28f5600cfff3a000b00e00003003200a9
:1064f4004047800077eb0700030037000100780075
:10650400c1e90700404788008880e8000b00e000ec
:1065140003003200104680006eeb070003003700d2
:1065240001007800b8e9070010468800e300440041
:106534000b00e000030032000046800065eb07001a
:106544000300370001007800afe907000046880027
:10655400e40044000b00e00003003200f04580003a
:106564005ceb07000300370001007800a6e9070090
:10657400f0458800e50044000b00e0000300320011
:10658400e045800053eb070003003700010078006a
:106594009de90700e0458800e60044000b00e000a8
:1065a40003003200d04580004aeb070003003700a7
:1065b4000100780094e90700d0458800e700440012
:1065c4000b00e000030032001040800041eb0700a4
:1065d40003003700010078008be9070010408800b1
:1065e400e80044000b00e00003003200c0458000d6
:1065f40038eb0700030037000100780082e9070048
:10660400c0458800e90044000b00e00003003200ac
:10661400b04580002feb070003003700010078002d
:1066240079e90700b0458800ea0044000b00e00067
:10663400030032000040800026eb0700030037000f
:106644000100780070e9070000408800a045290097
:106654000c30070000408000bf300700504529007f
:10666400083007006b00440043300700f045290060
:10667400043007004f0778004f06be004f05be00e8
:106684004f04be000000060050472900fd2f0700fc
:106694000000eb002bff070010492900f92f3700f9
:1066a40080492900f72f07001000200025ff07006c
:1066b400b04a2900f32f3700a097200000000600fd
:1066c400a08e200000000600f045800000000600b7
:1066d400889fbe008a9fbe008c1f780080057800ca
:1066e400010678000005eb00e18f550004003a0034
:1066f4000c0478002a012000290020000a00370039
:10670400e28f550006003a000a004500418c200043
:10671400010040000048eb008040eb00114098006d
:106724000a0478008a0478004340dd000080e80011
:10673400a18e200060807800e20f50003800320003
:1067440005003e000000e00008003200e10f5000a8
:10675400bc003a0010003700e30f50006300320021
:10676400e40f5000b7003a006a003700902b07008e
:1067740008014400c18420000101410089804400d3
:10678400808040009181fb00114090004800dd00b2
:10679400030070001e003700892b07008980440025
:1067a400808040001181fb00114090004800dd0012
:1067b400020070000d00320088004400408c20006c
:1067c400008140008001eb009280fb0012409000a9
:1067d4004800dd000100700001003a0013002000b1
:1067e400034978004818de0010419800080044006e
:1067f400c284200002014000418c200001004000be
:106804009080fb00104090004800dd000100700003
:10681400004978004800de001041980089003700e4
:10682400672b070089804400808040001181fb00b1
:10683400114090004800dd00020070000b0032009f
:106844000801440081822000810041000040eb00e7
:10685400e14870008041780090409800c084200096
:1068640000014100114978001341980008024400d6
:1068740080822000800142009380fb00134090003e
:106884004800dd0001017000100032004340dd00cb
:1068940064004000a18e200060807800800f5100c9
:1068a4000a003e00c0842000000042008040eb004b
:1068b40061c87000114098000200e8008049780027
:1068c4004800de00904198005e0037000801440053
:1068d40080822000000041000048eb008040eb0073
:1068e40011409800c084200053003700302b07006b
:1068f40089804400808040001181fb001140900099
:106904004800dd00020070004400320088024400a8
:106914001d0037002a2b0700898044008080400036
:106924001181fb00114090004800dd00020070005e
:106934000d00320088004400408c2000008140009b
:106944008001eb009280fb00124090004800dd00c3
:106954000100700001003a00130020000349780090
:106964004818de001041980088024400408c200042
:10697400008042009080fb00104090004800dd0041
:106984000100700025003200808220000080420057
:106994009080fb00104090004800dd000102700070
:1069a4004340dd00e6004000a38e200061817900b1
:1069b400801f7800110009000282d8004f0078007f
:1069c4006400400060807900808f50000500310031
:1069d400c0842000008042008040eb0061c8700049
:1069e4000500370008004400c18420000100400075
:1069f4000048eb008040eb00114098008800440000
:106a040080822000808040000400e80080487800f4
:106a14004800de00904098000a0037000801440056
:106a2400c0842000000041000048eb008040eb00df
:106a34001140980080822000000141000149780043
:106a440011419800c340dd00a08e2000610278004f
:106a5400e10f52000d003a0088004400c084200079
:106a6400008140008001eb009280fb001240900006
:106a74004800dd000100700001003a008401780044
:106a8400034978004818de00104198000a05e80020
:106a9400f10f550014ff36008001eb004480200004
:106aa400c5842000f80f2000038041000401400049
:106ab400050040009080fb00104090004800dd007d
:106ac40001007000084960004800de001041980091
:106ad4008301e800f28f5100f3ff3a0004007800cc
:106ae400b72d0700bb2e0700104890000048a300f4
:106af40006003200b72e070040609000610060007d
:106b0400080060000ce8b7000d68ef00b12e070024
:106b1400104890000058a30006003200ad2e070074
:106b2400406090000000d100610060000ee8b700f2
:106b34000f68ef00a72e0700104890000068a3001c
:106b440006003200a32e0700406090004200de00e1
:106b54006100600010e8b7001168ef009d2e070087
:106b6400104890000004e00006003d00992e070044
:106b7400406090004300de006100600012e8b7004e
:106b84001368ef00932e0700204890000008a3002c
:106b9400060032008f2e0700406090004400de00a3
:106ba400610060001ce8b7001d68ef00892e070033
:106bb400204890000018a30006003200852e07002c
:106bc400406090004500de00610060001ee8b700f0
:106bd4001f68ef007f2e0700204890000028a300c4
:106be400060032007b2e0700406090004600de0065
:106bf4006100600020e8b7002168ef00752e0700ef
:106c0400204890000038a30006003200712e0700cf
:106c1400406090000080fb004700de0022e8b700df
:106c24002368ef006b2e0700204890000048a30063
:106c340005003200672e070050609000610060007c
:106c440018e8b7001968ef00622e0700204890008a
:106c54000058a300060032005e2e0700506090002a
:106c64000000d100610060001ae8b7001b68ef0063
:106c7400582e0700204890000068a3000600320048
:106c8400542e0700506090004200de006100600056
:106c940014e8b7001568ef004e2e07002048900056
:106ca4000004e00006003d004a2e070050609000fa
:106cb4004300de006100600016e8b7001768ef00cb
:106cc400442e0700304890000008a300060032005c
:106cd400402e0700506090004400de006100600018
:106ce40006e8b7000768ef003a2e07003048900026
:106cf4000018a30006003200362e070050609000f2
:106d04004500de006100600008e8b7000968ef0094
:106d1400302e0700304890000028a30006003200ff
:106d24002c2e0700506090004600de0061006000d9
:106d340004e8b7000568ef00262e070030489000ed
:106d44000038a30006003200222e07005060900095
:106d54000080fb004700de000ae8b7000b68ef0084
:106d64001c2e0700304890000048a30005003200a4
:106d7400182e0700606090006100600026e8b700ec
:106d84002768ef00132e0700304890000058a30036
:106d9400060032000f2e0700606090000000d10052
:106da4006100600024e8b7002568ef00c18020007e
:106db400914078008180fb000dc8bf004800dd00d1
:106dc4000100700002003200dc42a800010037001c
:106dd400dc42a900e1802000914078008180fb0022
:106de4000fc8bf004800dd0001007000020032003f
:106df400dc62a80001003700dc62a90001812000e8
:106e0400914078008180fb0011c8bf004800dd007c
:106e14000100700002003200dc82a800010037008b
:106e2400dc82a90021812000914078008180fb0050
:106e340013c8bf004800dd000100700002003200ea
:106e4400dca2a80001003700dca2a900c181200057
:106e5400914078008180fb001dc8bf004800dd0020
:106e64000100700002003200e402a80001003700b3
:106e7400e402a900e1812000914078008180fb00b8
:106e84001fc8bf004800dd0001007000020032008e
:106e9400e422a80001003700e422a90001822000b6
:106ea400914078008180fb0021c8bf004800dd00cc
:106eb4000100700002003200e442a8000100370023
:106ec400e442a90021822000914078008180fb00e7
:106ed40023c8bf004800dd0001007000020032003a
:106ee400e462a80001003700e462a9008181200067
:106ef400914078008180fb0019c8bf004800dd0084
:106f04000100700002003200ec02a800010037000a
:106f1400ec02a900a1812000914078008180fb004f
:106f24001bc8bf004800dd000100700002003200f1
:106f3400ec22a80001003700ec22a90041812000c6
:106f4400914078008180fb0015c8bf004800dd0037
:106f54000100700002003200dcc2a800010037000a
:106f6400dcc2a90061812000914078008180fb008f
:106f740017c8bf004800dd000100700002003200a5
:106f8400dce2a80001003700dce2a90061802000f7
:106f9400914078008180fb0007c8bf004800dd00f5
:106fa4000100700002003200d5a2a80001003700e1
:106fb400d5a2a90081802000914078008180fb0047
:106fc40009c8bf004800dd00010070000200320063
:106fd400d5c2a80001003700d5c2a9004180200015
:106fe400914078008180fb0005c8bf004800dd00a7
:106ff4000100700002003200ec62a80001003700ba
:10700400ec62a900a1802000914078008180fb00ff
:107014000bc8bf004800dd00010070000200320010
:10702400dc22a80001003700dc22a90061822000d4
:10703400914078008180fb0027c8bf004800dd0034
:107044000100700002003200cc62a8000100370089
:10705400cc62a90041822000914078008180fb002d
:1070640025c8bf004800dd000100700002003200a6
:10707400e482a80001003700e482a9004f067800ea
:107084004f05be004f04be00000006008f0ab0008a
:10709400889fbe008a9fbe008c9fbe008e1f780012
:1070a4008004eb000b8720002a9820004629070063
:1070b40089804400808040001181fb0011409000d1
:1070c4004800dd000b047800820d700066805400d7
:1070d400e30f5000cc003e002a0090000000e000c6
:1070e40040003a00e68f540002003200e88f54005a
:1070f4001a003a001a0090000000e0000e003a0066
:107104001a0078000000e00004003a00302907006b
:107114009080fb00104090000d003700e10f5000fc
:10712400b9003a002a290700504990000281fb0067
:10713400604890001e003700e10f5000b2003a0092
:1071440023290700c04090008180fb00504090003c
:107154004800dd00010c7000ab003700e78f5400dd
:1071640002003200e98f5400a7003a001a00900090
:107174000000e00014003a001a0078000000e0006b
:1071840005003a0012290700a04090008180fb000e
:1071940030409000eeff3700e10f50009a003a00b3
:1071a4000b290700704990000281fb0000509000f9
:1071b4004800dd0002007000620420000280b90073
:1071c400000c780090003700e10f50008e003a0068
:1071d400ff280700e04090008180fb007040900091
:1071e400dbff3700e10f500087003a00e68f5400c0
:1071f40020003a00a05080000000e00014003a0093
:10720400905080000000e00005003a00f0280700dc
:10721400b05090008180fb00405090001200370075
:10722400e10f500078003a00e9280700006190005f
:107234000281fb00106090004800dd000200700035
:10724400620420000280b900e04388006e00370029
:10725400e10f50006c003a00dd280700f050900068
:107264008180fb00005890004800dd0001007000a0
:10727400f5ff3700e78f540020003a00605180008a
:107284000000e00014003a00505180000000e000cb
:1072940005003a00ce280700d05090008180fb0002
:1072a4006050900012003700e10f500056003a0081
:1072b400c7280700206190000281fb003060900025
:1072c4004800dd0002007000620420000280b90062
:1072d400f04388004c003700e10f50004a003a00a8
:1072e400bb280700905890008180fb002058900034
:1072f4004800dd0001007000f5ff3700e88f5400fe
:1073040020003a00205280000000e00013003a0000
:10731400105280000000e00005003a00ac2807008d
:10732400e06090008180fb007060900011003700e5
:10733400e10f500034003a00a52807003071900096
:107344000281fb00407090004800dd0002007000e4
:10735400620420000280b90008003700e10f5000e9
:1073640029003a009a280700a06890008180fb0059
:10737400306890004800dd0001007000004488007f
:1073840021003700e98f54001f003a00e0528000ca
:107394000000e00013003a00d05280000000e0003a
:1073a40005003a008a280700806890008180fb006d
:1073b4001068900011003700e10f500012003a00ed
:1073c40083280700507190000281fb0060709000d8
:1073d4004800dd0002007000620420000280b90051
:1073e40008003700e10f500007003a007828070032
:1073f400c06890008180fb00506890004800dd0068
:1074040001007000104488008904e8008b85e800be
:1074140078054500ec8f540024ff3a0068280700e3
:10742400a04090008180fb00304090004800dd00c7
:1074340001007000e10f500005003a008000eb00ed
:10744400a208e20001003a0080007800114588009b
:107454005b280700c04090008180fb0050409000f2
:107464004800dd0001007000e10f500005003a0003
:107474008000eb00a008e20001003a0080007800e0
:107484000145880010408000e10f500005003600df
:10749400000040006400400001872000b2438000e7
:1074a40002b07800c3982000e3a79f000007eb0018
:1074b4000c872000ab98200044e32000d4a79f0051
:1074c4004d00200085882000c5a79f002a98200031
:1074d400baa79f0064845600efa49700110020000f
:1074e400998f10000e003a00312807008060900048
:1074f4008180fb00106090004800dd0001007000f6
:10750400070032002e280700a04090008180fb0075
:10751400304090004800dd000100700011003a0086
:1075240022002000990f110019003a0020280700ba
:10753400806090008180fb00106090004800dd00b6
:1075440001007000120032001d280700c0409000a6
:107554008180fb00504090004800dd000100700075
:107564000b003200dfa197001300be00420620008a
:1075740003002000f5e307000001be00a005980009
:107584008d0078000200780052e7070034003700cd
:107594003fa59700150020009a8f12001f003a00a3
:1075a400998f120007003a0005280700a0409000b8
:1075b4008180fb00304090004800dd000100700035
:1075c4000d003a00100020009a0f100013003a003a
:1075d40021002000998f100010003a00f8270700be
:1075e400c04090008180fb00504090004800dd00c6
:1075f40001007000090032000d00780082e50700e8
:1076040080007800a0059800400620000008b8001b
:107614005fa197000089be00110037001a00e00046
:107624000d003a0019007800e20f500002003a0001
:107634000045800003003700e10f500006003a00c7
:1076440010458000e10f500003003a00cfa19700dd
:10765400130e7800020037004fa297001c0a78002e
:107664007b2a0700e30f500003003200e40f5000b0
:10767400ca003a0034003700e70f54006c003200af
:1076840005003e00e40f54002c003900e50f5400bf
:107694000900360056003700e90f54008400320018
:1076a40073003900ea0f54000d003200eb0f540050
:1076b40022003a00170037009c0278009b80520099
:1076c40046003700d0508000808050003c013700d5
:1076d40090518000fcff370050528000faff3700c1
:1076e400ecc2bf000008a30003003200ecc2bf00dc
:1076f4000018a30086003200ecc2bf000008a300fb
:107704008e003a00ecc2bf000018a30088003a00c3
:107714008a003700d5c2bf000058a300030032001e
:10772400d5c2bf000068a3008c003200d5c2bf00e0
:107734000058a30094003a008d0037001c0578001f
:107744009b0055001e013700e70f5400380032003b
:1077540006003e00e50f54001100320024003e00f4
:10776400e40f54008a003a0008003700e90f54007f
:107774004f0032003e003900ea0f54005e00320030
:10778400eb0f540082003a006e003700504f800027
:107794007808b50001f82f00810040000801370087
:1077a400dcc2bf000068a30005003200dc42e20036
:1077b40003003500f107200010508000c2ff37009d
:1077c400dcc2bf000068a30007003a00dc42e2000c
:1077d40005003d00020aee008000780000f82f004a
:1077e40080804000f600370011508000f40037001c
:1077f400dcc2bf000058a30004003200dcc2bf009a
:10780400f10720000038a300aeff3200dcc2bf0045
:107814000058a30004003a00dcc2bf0001f82f00a6
:107824000038a300a7ff3a00d1508000e4003700dd
:10783400dcc2bf000028a30004003200dcc2bf0089
:10784400f10720000048a300a1ff3200dcc2bf0002
:107854000028a30004003a00dcc2bf0001f82f0096
:107864000048a3009aff3a0091518000d4003700e9
:10787400e4c2bf000038a30004003200e4c2bf0029
:10788400f10720000018a30093ff3200e4c2bf00f8
:107894000038a30004003a00e4c2bf0001f82f003e
:1078a4000018a3008cff3a0051528000c400370036
:1078b400e4c2bf000008a30004003200e4c2bf0019
:1078c400f10720000028a30007003200e4c2bf0033
